{"abi":[{"type":"constructor","inputs":[{"name":"vat_","type":"address","internalType":"address"},{"name":"spotter_","type":"address","internalType":"address"},{"name":"dog_","type":"address","internalType":"address"},{"name":"ilk_","type":"bytes32","internalType":"bytes32"}],"stateMutability":"nonpayable"},{"type":"function","name":"active","inputs":[{"name":"","type":"uint256","internalType":"uint256"}],"outputs":[{"name":"","type":"uint256","internalType":"uint256"}],"stateMutability":"view"},{"type":"function","name":"buf","inputs":[],"outputs":[{"name":"","type":"uint256","internalType":"uint256"}],"stateMutability":"view"},{"type":"function","name":"calc","inputs":[],"outputs":[{"name":"","type":"address","internalType":"contract AbacusLike"}],"stateMutability":"view"},{"type":"function","name":"chip","inputs":[],"outputs":[{"name":"","type":"uint64","internalType":"uint64"}],"stateMutability":"view"},{"type":"function","name":"chost","inputs":[],"outputs":[{"name":"","type":"uint256","internalType":"uint256"}],"stateMutability":"view"},{"type":"function","name":"count","inputs":[],"outputs":[{"name":"","type":"uint256","internalType":"uint256"}],"stateMutability":"view"},{"type":"function","name":"cusp","inputs":[],"outputs":[{"name":"","type":"uint256","internalType":"uint256"}],"stateMutability":"view"},{"type":"function","name":"deny","inputs":[{"name":"usr","type":"address","internalType":"address"}],"outputs":[],"stateMutability":"nonpayable"},{"type":"function","name":"dog","inputs":[],"outputs":[{"name":"","type":"address","internalType":"contract DogLike"}],"stateMutability":"view"},{"type":"function","name":"file","inputs":[{"name":"what","type":"bytes32","internalType":"bytes32"},{"name":"data","type":"uint256","internalType":"uint256"}],"outputs":[],"stateMutability":"nonpayable"},{"type":"function","name":"file","inputs":[{"name":"what","type":"bytes32","internalType":"bytes32"},{"name":"data","type":"address","internalType":"address"}],"outputs":[],"stateMutability":"nonpayable"},{"type":"function","name":"getStatus","inputs":[{"name":"id","type":"uint256","internalType":"uint256"}],"outputs":[{"name":"needsRedo","type":"bool","internalType":"bool"},{"name":"price","type":"uint256","internalType":"uint256"},{"name":"lot","type":"uint256","internalType":"uint256"},{"name":"tab","type":"uint256","internalType":"uint256"}],"stateMutability":"view"},{"type":"function","name":"ilk","inputs":[],"outputs":[{"name":"","type":"bytes32","internalType":"bytes32"}],"stateMutability":"view"},{"type":"function","name":"kick","inputs":[{"name":"tab","type":"uint256","internalType":"uint256"},{"name":"lot","type":"uint256","internalType":"uint256"},{"name":"usr","type":"address","internalType":"address"},{"name":"kpr","type":"address","internalType":"address"}],"outputs":[{"name":"id","type":"uint256","internalType":"uint256"}],"stateMutability":"nonpayable"},{"type":"function","name":"kicks","inputs":[],"outputs":[{"name":"","type":"uint256","internalType":"uint256"}],"stateMutability":"view"},{"type":"function","name":"list","inputs":[],"outputs":[{"name":"","type":"uint256[]","internalType":"uint256[]"}],"stateMutability":"view"},{"type":"function","name":"redo","inputs":[{"name":"id","type":"uint256","internalType":"uint256"},{"name":"kpr","type":"address","internalType":"address"}],"outputs":[],"stateMutability":"nonpayable"},{"type":"function","name":"rely","inputs":[{"name":"usr","type":"address","internalType":"address"}],"outputs":[],"stateMutability":"nonpayable"},{"type":"function","name":"sales","inputs":[{"name":"","type":"uint256","internalType":"uint256"}],"outputs":[{"name":"pos","type":"uint256","internalType":"uint256"},{"name":"tab","type":"uint256","internalType":"uint256"},{"name":"lot","type":"uint256","internalType":"uint256"},{"name":"usr","type":"address","internalType":"address"},{"name":"tic","type":"uint96","internalType":"uint96"},{"name":"top","type":"uint256","internalType":"uint256"}],"stateMutability":"view"},{"type":"function","name":"spotter","inputs":[],"outputs":[{"name":"","type":"address","internalType":"contract SpotterLike"}],"stateMutability":"view"},{"type":"function","name":"stopped","inputs":[],"outputs":[{"name":"","type":"uint256","internalType":"uint256"}],"stateMutability":"view"},{"type":"function","name":"tail","inputs":[],"outputs":[{"name":"","type":"uint256","internalType":"uint256"}],"stateMutability":"view"},{"type":"function","name":"take","inputs":[{"name":"id","type":"uint256","internalType":"uint256"},{"name":"amt","type":"uint256","internalType":"uint256"},{"name":"max","type":"uint256","internalType":"uint256"},{"name":"who","type":"address","internalType":"address"},{"name":"data","type":"bytes","internalType":"bytes"}],"outputs":[],"stateMutability":"nonpayable"},{"type":"function","name":"tip","inputs":[],"outputs":[{"name":"","type":"uint192","internalType":"uint192"}],"stateMutability":"view"},{"type":"function","name":"upchost","inputs":[],"outputs":[],"stateMutability":"nonpayable"},{"type":"function","name":"vat","inputs":[],"outputs":[{"name":"","type":"address","internalType":"contract VatLike"}],"stateMutability":"view"},{"type":"function","name":"vow","inputs":[],"outputs":[{"name":"","type":"address","internalType":"address"}],"stateMutability":"view"},{"type":"function","name":"wards","inputs":[{"name":"","type":"address","internalType":"address"}],"outputs":[{"name":"","type":"uint256","internalType":"uint256"}],"stateMutability":"view"},{"type":"function","name":"yank","inputs":[{"name":"id","type":"uint256","internalType":"uint256"}],"outputs":[],"stateMutability":"nonpayable"},{"type":"event","name":"Deny","inputs":[{"name":"usr","type":"address","indexed":true,"internalType":"address"}],"anonymous":false},{"type":"event","name":"File","inputs":[{"name":"what","type":"bytes32","indexed":true,"internalType":"bytes32"},{"name":"data","type":"uint256","indexed":false,"internalType":"uint256"}],"anonymous":false},{"type":"event","name":"File","inputs":[{"name":"what","type":"bytes32","indexed":true,"internalType":"bytes32"},{"name":"data","type":"address","indexed":false,"internalType":"address"}],"anonymous":false},{"type":"event","name":"Kick","inputs":[{"name":"id","type":"uint256","indexed":true,"internalType":"uint256"},{"name":"top","type":"uint256","indexed":false,"internalType":"uint256"},{"name":"tab","type":"uint256","indexed":false,"internalType":"uint256"},{"name":"lot","type":"uint256","indexed":false,"internalType":"uint256"},{"name":"usr","type":"address","indexed":true,"internalType":"address"},{"name":"kpr","type":"address","indexed":true,"internalType":"address"},{"name":"coin","type":"uint256","indexed":false,"internalType":"uint256"}],"anonymous":false},{"type":"event","name":"Redo","inputs":[{"name":"id","type":"uint256","indexed":true,"internalType":"uint256"},{"name":"top","type":"uint256","indexed":false,"internalType":"uint256"},{"name":"tab","type":"uint256","indexed":false,"internalType":"uint256"},{"name":"lot","type":"uint256","indexed":false,"internalType":"uint256"},{"name":"usr","type":"address","indexed":true,"internalType":"address"},{"name":"kpr","type":"address","indexed":true,"internalType":"address"},{"name":"coin","type":"uint256","indexed":false,"internalType":"uint256"}],"anonymous":false},{"type":"event","name":"Rely","inputs":[{"name":"usr","type":"address","indexed":true,"internalType":"address"}],"anonymous":false},{"type":"event","name":"Take","inputs":[{"name":"id","type":"uint256","indexed":true,"internalType":"uint256"},{"name":"max","type":"uint256","indexed":false,"internalType":"uint256"},{"name":"price","type":"uint256","indexed":false,"internalType":"uint256"},{"name":"owe","type":"uint256","indexed":false,"internalType":"uint256"},{"name":"tab","type":"uint256","indexed":false,"internalType":"uint256"},{"name":"lot","type":"uint256","indexed":false,"internalType":"uint256"},{"name":"usr","type":"address","indexed":true,"internalType":"address"}],"anonymous":false},{"type":"event","name":"Yank","inputs":[{"name":"id","type":"uint256","indexed":false,"internalType":"uint256"}],"anonymous":false}],"bytecode":{"object":"0x60c06040526000600e5534801561001557600080fd5b506040516126143803806126148339818101604052608081101561003857600080fd5b5080516020808301516040808501516060958601519585901b6001600160601b03191660a052600380546001600160a01b03199081166001600160a01b03808716919091179092556001805490911691831691909117815560808790526b033b2e3c9fd0803ce8000000600555336000818152958690528386209190915591519495929490937fdd0e34038ac38b2a1ce960229778ac48a8719bc900b6c4f8d0475c6e8b385a6091a25050505060805160a05160601c6124b961015b600039806105b752806109855280610c4952806110de5280611159528061128f52806113fb52806118975280611f005250806105e6528061067d52806108ad5280610941528061108f528061130252806113b65280611a90528061222b52506124b96000f3fe608060405234801561001057600080fd5b50600436106101cf5760003560e01c806375f12b2111610104578063b61500e4116100a2578063c5ce281e11610071578063c5ce281e14610545578063cfdd33021461054d578063d4e8be8314610555578063d843416d14610581576101cf565b8063b61500e4146104ea578063ba2cdc751461050f578063bf353dbb14610517578063c3b3ad7f1461053d576101cf565b8063898eb267116100de578063898eb2671461042157806396f1b6be1461045b5780639c52a7f114610463578063b5f522f714610489576101cf565b806375f12b211461036b5780638033d5811461037357806381a794cb14610390576101cf565b806329ae81141161017157806349ed59311161014b57806349ed5931146102f05780635c622a0e146102f8578063626cb3c51461033d57806365fae35e14610345576101cf565b806329ae8114146102a15780632e77468d146102c457806336569e77146102e8576101cf565b806313d8c840116101ad57806313d8c84014610250578063152325151461025857806326e027f1146102605780632755cd2d1461027d576101cf565b806306661abd146101d45780630cbb5862146101ee5780630f560cd7146101f8575b600080fd5b6101dc6105ad565b60408051918252519081900360200190f35b6101f66105b3565b005b610200610714565b60408051602080825283518183015283519192839290830191858101910280838360005b8381101561023c578181015183820152602001610224565b505050509050019250505060405180910390f35b6101dc61076c565b6101dc610772565b6101f66004803603602081101561027657600080fd5b5035610778565b610285610a27565b604080516001600160c01b039092168252519081900360200190f35b6101f6600480360360408110156102b757600080fd5b5080359060200135610a3d565b6102cc610c38565b604080516001600160a01b039092168252519081900360200190f35b6102cc610c47565b6101dc610c6b565b6103156004803603602081101561030e57600080fd5b5035610c71565b6040805194151585526020850193909352838301919091526060830152519081900360800190f35b6102cc610cfd565b6101f66004803603602081101561035b57600080fd5b50356001600160a01b0316610d0c565b6101dc610da3565b6101dc6004803603602081101561038957600080fd5b5035610da9565b6101f6600480360360a08110156103a657600080fd5b8135916020810135916040820135916001600160a01b036060820135169181019060a0810160808201356401000000008111156103e257600080fd5b8201836020820111156103f457600080fd5b8035906020019184600183028401116401000000008311171561041657600080fd5b509092509050610dc7565b6101dc6004803603608081101561043757600080fd5b508035906020810135906001600160a01b03604082013581169160600135166114f1565b6102cc611967565b6101f66004803603602081101561047957600080fd5b50356001600160a01b0316611976565b6104a66004803603602081101561049f57600080fd5b5035611a0c565b604080519687526020870195909552858501939093526001600160a01b0390911660608501526001600160601b0316608084015260a0830152519081900360c00190f35b6104f2611a57565b6040805167ffffffffffffffff9092168252519081900360200190f35b6101dc611a67565b6101dc6004803603602081101561052d57600080fd5b50356001600160a01b0316611a6d565b6102cc611a7f565b6101dc611a8e565b6101dc611ab2565b6101f66004803603604081101561056b57600080fd5b50803590602001356001600160a01b0316611ab8565b6101f66004803603604081101561059757600080fd5b50803590602001356001600160a01b0316611c5d565b600b5490565b60007f00000000000000000000000000000000000000000000000000000000000000006001600160a01b031663d9638d367f00000000000000000000000000000000000000000000000000000000000000006040518263ffffffff1660e01b81526004018082815260200191505060a060405180830381600087803b15801561063b57600080fd5b505af115801561064f573d6000803e3d6000fd5b505050506040513d60a081101561066557600080fd5b506080015160015460408051631af24ca760e31b81527f00000000000000000000000000000000000000000000000000000000000000006004820152905192935061070e9284926001600160a01b03169163d79265389160248083019260209291908290030181600087803b1580156106dd57600080fd5b505af11580156106f1573d6000803e3d6000fd5b505050506040513d602081101561070757600080fd5b505161202e565b60095550565b6060600b80548060200260200160405190810160405280929190818152602001828054801561076257602002820191906000526020600020905b81548152602001906001019080831161074e575b5050505050905090565b60065481565b60055481565b336000908152602081905260409020546001146107ca576040805162461bcd60e51b81526020600482015260166024820152600080516020612464833981519152604482015290519081900360640190fd5b600d5415610817576040805162461bcd60e51b815260206004820152601560248201527410db1a5c1c195c8bdcde5cdd195b4b5b1bd8dad959605a1b604482015290519081900360640190fd5b6001600d556000818152600c60205260409020600301546001600160a01b0316610888576040805162461bcd60e51b815260206004820152601b60248201527f436c69707065722f6e6f742d72756e6e696e672d61756374696f6e0000000000604482015290519081900360640190fd5b600180546000838152600c602052604080822090930154835163321c64fd60e21b81527f00000000000000000000000000000000000000000000000000000000000000006004820152602481019190915292516001600160a01b039092169263c87193f4926044808301939282900301818387803b15801561090957600080fd5b505af115801561091d573d6000803e3d6000fd5b5050506000828152600c6020526040808220600201548151633088df1760e11b81527f00000000000000000000000000000000000000000000000000000000000000006004820152306024820152336044820152606481019190915290516001600160a01b037f0000000000000000000000000000000000000000000000000000000000000000169350636111be2e9260848084019391929182900301818387803b1580156109cb57600080fd5b505af11580156109df573d6000803e3d6000fd5b505050506109ec81612052565b6040805182815290517f2c5d2826eb5903b8fc201cf48094b858f42f61c7eaac9aaf43ebed490138144e9181900360200190a1506000600d55565b600854600160401b90046001600160c01b031681565b33600090815260208190526040902054600114610a8f576040805162461bcd60e51b81526020600482015260166024820152600080516020612464833981519152604482015290519081900360640190fd5b600d5415610adc576040805162461bcd60e51b815260206004820152601560248201527410db1a5c1c195c8bdcde5cdd195b4b5b1bd8dad959605a1b604482015290519081900360640190fd5b6001600d5562313ab360e91b821415610af9576005819055610bf9565b81631d185a5b60e21b1415610b12576006819055610bf9565b81630637573760e41b1415610b2b576007819055610bf9565b81630636869760e41b1415610b5c576008805467ffffffffffffffff191667ffffffffffffffff8316179055610bf9565b816207469760ec1b1415610b90576008805467ffffffffffffffff16600160401b6001600160c01b03841602179055610bf9565b81661cdd1bdc1c195960ca1b1415610bac57600e819055610bf9565b6040805162461bcd60e51b815260206004820152601f60248201527f436c69707065722f66696c652d756e7265636f676e697a65642d706172616d00604482015290519081900360640190fd5b60408051828152905183917fe986e40cc8c151830d4f61050f4fb2e4add8567caad2d5f5496f9158e91fe4c7919081900360200190a250506000600d55565b6003546001600160a01b031681565b7f000000000000000000000000000000000000000000000000000000000000000081565b60075481565b6000818152600c6020526040812060038101546004909101548291829182916001600160a01b03811691600160a01b9091046001600160601b0316908390610cba90839061210c565b965090506001600160a01b03831615801590610cd35750805b6000988952600c602052604090982060028101546001909101549899969890975095945050505050565b6002546001600160a01b031681565b33600090815260208190526040902054600114610d5e576040805162461bcd60e51b81526020600482015260166024820152600080516020612464833981519152604482015290519081900360640190fd5b6001600160a01b03811660008181526020819052604080822060019055517fdd0e34038ac38b2a1ce960229778ac48a8719bc900b6c4f8d0475c6e8b385a609190a250565b600e5481565b600b8181548110610db657fe5b600091825260209091200154905081565b600d5415610e14576040805162461bcd60e51b815260206004820152601560248201527410db1a5c1c195c8bdcde5cdd195b4b5b1bd8dad959605a1b604482015290519081900360640190fd5b6001600d55600e546003908111610e6e576040805162461bcd60e51b815260206004820152601960248201527810db1a5c1c195c8bdcdd1bdc1c19590b5a5b98dbdc9c9958dd603a1b604482015290519081900360640190fd5b6000878152600c60205260409020600301546001600160a01b03811690600160a01b90046001600160601b031681610eed576040805162461bcd60e51b815260206004820152601b60248201527f436c69707065722f6e6f742d72756e6e696e672d61756374696f6e0000000000604482015290519081900360640190fd5b6000898152600c60205260408120600401548190610f0c90849061210c565b925090508015610f59576040805162461bcd60e51b815260206004820152601360248201527210db1a5c1c195c8bdb9959591ccb5c995cd95d606a1b604482015290519081900360640190fd5b5080881015610fa7576040805162461bcd60e51b8152602060048201526015602482015274436c69707065722f746f6f2d657870656e7369766560581b604482015290519081900360640190fd5b60008a8152600c602052604081206002810154600190910154909180610fcd848e6121d5565b9050610fd981866121ee565b915082821115610ff757829150848281610fef57fe5b04905061107f565b828210801561100557508381105b1561107f5760095482840381111561107d5780841161106b576040805162461bcd60e51b815260206004820152601b60248201527f436c69707065722f6e6f2d7061727469616c2d70757263686173650000000000604482015290519081900360640190fd5b808403925085838161107957fe5b0491505b505b60408051633088df1760e11b81527f000000000000000000000000000000000000000000000000000000000000000060048201523060248201526001600160a01b038d81166044830152606482018490529151958390039594849003947f000000000000000000000000000000000000000000000000000000000000000090921691636111be2e9160848082019260009290919082900301818387803b15801561112857600080fd5b505af115801561113c573d6000803e3d6000fd5b50506001546001600160a01b0316915050891580159061118e57507f00000000000000000000000000000000000000000000000000000000000000006001600160a01b03168c6001600160a01b031614155b80156111ac5750806001600160a01b03168c6001600160a01b031614155b1561125d578b6001600160a01b0316638452c10e3385858f8f6040518663ffffffff1660e01b815260040180866001600160a01b03168152602001858152602001848152602001806020018281038252848482818152602001925080828437600081840152601f19601f8201169050808301925050509650505050505050600060405180830381600087803b15801561124457600080fd5b505af1158015611258573d6000803e3d6000fd5b505050505b6002546040805163bb35783b60e01b81523360048201526001600160a01b0392831660248201526044810186905290517f00000000000000000000000000000000000000000000000000000000000000009092169163bb35783b9160648082019260009290919082900301818387803b1580156112d957600080fd5b505af11580156112ed573d6000803e3d6000fd5b50505050806001600160a01b031663c87193f47f00000000000000000000000000000000000000000000000000000000000000008760001461132f5785611333565b8587015b6040518363ffffffff1660e01b81526004018083815260200182815260200192505050600060405180830381600087803b15801561137057600080fd5b505af1158015611384573d6000803e3d6000fd5b50505050505082600014156113a15761139c8d612052565b611482565b816114665760408051633088df1760e11b81527f000000000000000000000000000000000000000000000000000000000000000060048201523060248201526001600160a01b0388811660448301526064820186905291517f000000000000000000000000000000000000000000000000000000000000000090921691636111be2e9160848082019260009290919082900301818387803b15801561144557600080fd5b505af1158015611459573d6000803e3d6000fd5b5050505061139c8d612052565b60008d8152600c60205260409020600181018390556002018390555b604080518c815260208101869052808201839052606081018490526080810185905290516001600160a01b038816918f917f05e309fd6ce72f2ab888a20056bb4210df08daed86f21f95053deb19964d86b19181900360a00190a350506000600d555050505050505050505050565b33600090815260208190526040812054600114611543576040805162461bcd60e51b81526020600482015260166024820152600080516020612464833981519152604482015290519081900360640190fd5b600d5415611590576040805162461bcd60e51b815260206004820152601560248201527410db1a5c1c195c8bdcde5cdd195b4b5b1bd8dad959605a1b604482015290519081900360640190fd5b6001600d819055600e5481116115e9576040805162461bcd60e51b815260206004820152601960248201527810db1a5c1c195c8bdcdd1bdc1c19590b5a5b98dbdc9c9958dd603a1b604482015290519081900360640190fd5b60008611611631576040805162461bcd60e51b815260206004820152601060248201526f21b634b83832b917bd32b93796ba30b160811b604482015290519081900360640190fd5b60008511611679576040805162461bcd60e51b815260206004820152601060248201526f10db1a5c1c195c8bde995c9bcb5b1bdd60821b604482015290519081900360640190fd5b6001600160a01b0384166116c7576040805162461bcd60e51b815260206004820152601060248201526f21b634b83832b917bd32b93796bab9b960811b604482015290519081900360640190fd5b600a805460010190819055915081611719576040805162461bcd60e51b815260206004820152601060248201526f436c69707065722f6f766572666c6f7760801b604482015290519081900360640190fd5b600b8054600180820183557f0175b7a638427703f0dbe7bb9bbf987a2551717b34e79f33b5b1008d1fa01db990910184905590546000848152600c6020526040812060001990920182559181018890556002810187905560030180546001600160a01b0319166001600160a01b038781169190911716600160a01b426001600160601b0316021790556117b56117ad612218565b600554612411565b905060008111611805576040805162461bcd60e51b8152602060048201526016602482015275436c69707065722f7a65726f2d746f702d707269636560501b604482015290519081900360640190fd5b6000838152600c602052604081206004018290556008546001600160c01b03600160401b8204169167ffffffffffffffff90911690821515806118485750600082115b156118fa576118608361185b8c8561202e565b61242a565b6002546040805163f24e23eb60e01b81526001600160a01b0392831660048201528a831660248201526044810184905290519293507f00000000000000000000000000000000000000000000000000000000000000009091169163f24e23eb9160648082019260009290919082900301818387803b1580156118e157600080fd5b505af11580156118f5573d6000803e3d6000fd5b505050505b60408051858152602081018c90528082018b90526060810183905290516001600160a01b03808a1692908b169189917f7c5bfdc0a5e8192f6cd4972f382cec69116862fb62e6abff8003874c58e064b8919081900360800190a450506000600d5550919695505050505050565b6004546001600160a01b031681565b336000908152602081905260409020546001146119c8576040805162461bcd60e51b81526020600482015260166024820152600080516020612464833981519152604482015290519081900360640190fd5b6001600160a01b038116600081815260208190526040808220829055517f184450df2e323acec0ed3b5c7531b81f9b4cdef7914dfd4c0a4317416bb5251b9190a250565b600c60205260009081526040902080546001820154600283015460038401546004909401549293919290916001600160a01b03811691600160a01b9091046001600160601b03169086565b60085467ffffffffffffffff1681565b60095481565b60006020819052908152604090205481565b6001546001600160a01b031681565b7f000000000000000000000000000000000000000000000000000000000000000081565b600a5481565b33600090815260208190526040902054600114611b0a576040805162461bcd60e51b81526020600482015260166024820152600080516020612464833981519152604482015290519081900360640190fd5b600d5415611b57576040805162461bcd60e51b815260206004820152601560248201527410db1a5c1c195c8bdcde5cdd195b4b5b1bd8dad959605a1b604482015290519081900360640190fd5b6001600d556639b837ba3a32b960c91b821415611b8e57600380546001600160a01b0319166001600160a01b038316179055611c15565b8162646f6760e81b1415611bbc57600180546001600160a01b0319166001600160a01b038316179055611c15565b8162766f7760e81b1415611bea57600280546001600160a01b0319166001600160a01b038316179055611c15565b816363616c6360e01b1415610bac57600480546001600160a01b0319166001600160a01b0383161790555b604080516001600160a01b0383168152905183917f8fef588b5fc1afbf5b2f06c1a435d513f208da2e6704c3d8f0e0ec91167066ba919081900360200190a250506000600d55565b600d5415611caa576040805162461bcd60e51b815260206004820152601560248201527410db1a5c1c195c8bdcde5cdd195b4b5b1bd8dad959605a1b604482015290519081900360640190fd5b6001600d55600e546002908111611d04576040805162461bcd60e51b815260206004820152601960248201527810db1a5c1c195c8bdcdd1bdc1c19590b5a5b98dbdc9c9958dd603a1b604482015290519081900360640190fd5b6000838152600c6020526040902060038101546004909101546001600160a01b03821691600160a01b90046001600160601b03169082611d8b576040805162461bcd60e51b815260206004820152601b60248201527f436c69707065722f6e6f742d72756e6e696e672d61756374696f6e0000000000604482015290519081900360640190fd5b6000611d97838361210c565b50905080611de3576040805162461bcd60e51b815260206004820152601460248201527310db1a5c1c195c8bd8d85b9b9bdd0b5c995cd95d60621b604482015290519081900360640190fd5b6000878152600c6020526040812060018101546002820154600390920180546001600160a01b0316600160a01b426001600160601b03160217905591611e27612218565b9050611e3581600554612411565b945060008511611e85576040805162461bcd60e51b8152602060048201526016602482015275436c69707065722f7a65726f2d746f702d707269636560501b604482015290519081900360640190fd5b60008a8152600c602052604081206004018690556008546001600160c01b03600160401b8204169167ffffffffffffffff9091169082151580611ec85750600082115b15611fb657600954808710801590611ee9575080611ee687876121ee565b10155b15611fb457611efc8461185b898661202e565b91507f00000000000000000000000000000000000000000000000000000000000000006001600160a01b031663f24e23eb600260009054906101000a90046001600160a01b03168f856040518463ffffffff1660e01b815260040180846001600160a01b03168152602001836001600160a01b031681526020018281526020019350505050600060405180830381600087803b158015611f9b57600080fd5b505af1158015611faf573d6000803e3d6000fd5b505050505b505b8b6001600160a01b03168a6001600160a01b03168e7f275de7ecdd375b5e8049319f8b350686131c219dd4dc450a08e9cf83b03c865f8b8a8a876040518085815260200184815260200183815260200182815260200194505050505060405180910390a450506000600d555050505050505050505050565b6000670de0b6b3a764000061204384846121ee565b8161204a57fe5b049392505050565b600b805460009190600019810190811061206857fe5b906000526020600020015490508082146120bb576000828152600c6020526040902054600b80548391908390811061209c57fe5b6000918252602080832090910192909255838152600c90915260409020555b600b8054806120c657fe5b600082815260208082208301600019908101839055909201909255928152600c909252506040812081815560018101829055600281018290556003810182905560040155565b60045460009081906001600160a01b031663487a239584612136426001600160601b03891661243a565b6040518363ffffffff1660e01b8152600401808381526020018281526020019250505060206040518083038186803b15801561217157600080fd5b505afa158015612185573d6000803e3d6000fd5b505050506040513d602081101561219b57600080fd5b50516006549091506121b6426001600160601b03871661243a565b11806121cc57506007546121ca828561244a565b105b91509250929050565b6000818311156121e557816121e7565b825b9392505050565b60008115806122095750508082028282828161220657fe5b04145b61221257600080fd5b92915050565b60035460408051636cb1c69b60e11b81527f00000000000000000000000000000000000000000000000000000000000000006004820152815160009384936001600160a01b039091169263d9638d36926024808301939282900301818787803b15801561228457600080fd5b505af1158015612298573d6000803e3d6000fd5b505050506040513d60408110156122ae57600080fd5b5051604080516359e02dd760e01b8152815192935060009283926001600160a01b038616926359e02dd7926004808301939282900301818787803b1580156122f557600080fd5b505af1158015612309573d6000803e3d6000fd5b505050506040513d604081101561231f57600080fd5b508051602090910151909250905080612377576040805162461bcd60e51b8152602060048201526015602482015274436c69707065722f696e76616c69642d707269636560581b604482015290519081900360640190fd5b61240961238883633b9aca006121ee565b600360009054906101000a90046001600160a01b03166001600160a01b031663495d32cb6040518163ffffffff1660e01b8152600401602060405180830381600087803b1580156123d857600080fd5b505af11580156123ec573d6000803e3d6000fd5b505050506040513d602081101561240257600080fd5b505161244a565b935050505090565b60006b033b2e3c9fd0803ce800000061204384846121ee565b8082018281101561221257600080fd5b8082038281111561221257600080fd5b600081612043846b033b2e3c9fd0803ce80000006121ee56fe436c69707065722f6e6f742d617574686f72697a656400000000000000000000a2646970667358221220522902d5f89d43684e47bf7db9be6512b3abc4aa4d14ca81d8607f99cf8b8ce664736f6c634300060c0033","linkReferences":{}},"methodIdentifiers":{"active(uint256)":"8033d581","buf()":"15232515","calc()":"96f1b6be","chip()":"b61500e4","chost()":"ba2cdc75","count()":"06661abd","cusp()":"49ed5931","deny(address)":"9c52a7f1","dog()":"c3b3ad7f","file(bytes32,address)":"d4e8be83","file(bytes32,uint256)":"29ae8114","getStatus(uint256)":"5c622a0e","ilk()":"c5ce281e","kick(uint256,uint256,address,address)":"898eb267","kicks()":"cfdd3302","list()":"0f560cd7","redo(uint256,address)":"d843416d","rely(address)":"65fae35e","sales(uint256)":"b5f522f7","spotter()":"2e77468d","stopped()":"75f12b21","tail()":"13d8c840","take(uint256,uint256,uint256,address,bytes)":"81a794cb","tip()":"2755cd2d","upchost()":"0cbb5862","vat()":"36569e77","vow()":"626cb3c5","wards(address)":"bf353dbb","yank(uint256)":"26e027f1"},"id":25}