{"abi":[{"type":"constructor","inputs":[{"name":"vat_","type":"address","internalType":"address"},{"name":"cat_","type":"address","internalType":"address"},{"name":"ilk_","type":"bytes32","internalType":"bytes32"}],"stateMutability":"nonpayable"},{"type":"function","name":"beg","inputs":[],"outputs":[{"name":"","type":"uint256","internalType":"uint256"}],"stateMutability":"view"},{"type":"function","name":"bids","inputs":[{"name":"","type":"uint256","internalType":"uint256"}],"outputs":[{"name":"bid","type":"uint256","internalType":"uint256"},{"name":"lot","type":"uint256","internalType":"uint256"},{"name":"guy","type":"address","internalType":"address"},{"name":"tic","type":"uint48","internalType":"uint48"},{"name":"end","type":"uint48","internalType":"uint48"},{"name":"usr","type":"address","internalType":"address"},{"name":"gal","type":"address","internalType":"address"},{"name":"tab","type":"uint256","internalType":"uint256"}],"stateMutability":"view"},{"type":"function","name":"cat","inputs":[],"outputs":[{"name":"","type":"address","internalType":"contract CatLike"}],"stateMutability":"view"},{"type":"function","name":"deal","inputs":[{"name":"id","type":"uint256","internalType":"uint256"}],"outputs":[],"stateMutability":"nonpayable"},{"type":"function","name":"dent","inputs":[{"name":"id","type":"uint256","internalType":"uint256"},{"name":"lot","type":"uint256","internalType":"uint256"},{"name":"bid","type":"uint256","internalType":"uint256"}],"outputs":[],"stateMutability":"nonpayable"},{"type":"function","name":"deny","inputs":[{"name":"usr","type":"address","internalType":"address"}],"outputs":[],"stateMutability":"nonpayable"},{"type":"function","name":"file","inputs":[{"name":"what","type":"bytes32","internalType":"bytes32"},{"name":"data","type":"uint256","internalType":"uint256"}],"outputs":[],"stateMutability":"nonpayable"},{"type":"function","name":"file","inputs":[{"name":"what","type":"bytes32","internalType":"bytes32"},{"name":"data","type":"address","internalType":"address"}],"outputs":[],"stateMutability":"nonpayable"},{"type":"function","name":"ilk","inputs":[],"outputs":[{"name":"","type":"bytes32","internalType":"bytes32"}],"stateMutability":"view"},{"type":"function","name":"kick","inputs":[{"name":"usr","type":"address","internalType":"address"},{"name":"gal","type":"address","internalType":"address"},{"name":"tab","type":"uint256","internalType":"uint256"},{"name":"lot","type":"uint256","internalType":"uint256"},{"name":"bid","type":"uint256","internalType":"uint256"}],"outputs":[{"name":"id","type":"uint256","internalType":"uint256"}],"stateMutability":"nonpayable"},{"type":"function","name":"kicks","inputs":[],"outputs":[{"name":"","type":"uint256","internalType":"uint256"}],"stateMutability":"view"},{"type":"function","name":"rely","inputs":[{"name":"usr","type":"address","internalType":"address"}],"outputs":[],"stateMutability":"nonpayable"},{"type":"function","name":"tau","inputs":[],"outputs":[{"name":"","type":"uint48","internalType":"uint48"}],"stateMutability":"view"},{"type":"function","name":"tend","inputs":[{"name":"id","type":"uint256","internalType":"uint256"},{"name":"lot","type":"uint256","internalType":"uint256"},{"name":"bid","type":"uint256","internalType":"uint256"}],"outputs":[],"stateMutability":"nonpayable"},{"type":"function","name":"tick","inputs":[{"name":"id","type":"uint256","internalType":"uint256"}],"outputs":[],"stateMutability":"nonpayable"},{"type":"function","name":"ttl","inputs":[],"outputs":[{"name":"","type":"uint48","internalType":"uint48"}],"stateMutability":"view"},{"type":"function","name":"vat","inputs":[],"outputs":[{"name":"","type":"address","internalType":"contract VatLike"}],"stateMutability":"view"},{"type":"function","name":"wards","inputs":[{"name":"","type":"address","internalType":"address"}],"outputs":[{"name":"","type":"uint256","internalType":"uint256"}],"stateMutability":"view"},{"type":"function","name":"yank","inputs":[{"name":"id","type":"uint256","internalType":"uint256"}],"outputs":[],"stateMutability":"nonpayable"},{"type":"event","name":"Kick","inputs":[{"name":"id","type":"uint256","indexed":false,"internalType":"uint256"},{"name":"lot","type":"uint256","indexed":false,"internalType":"uint256"},{"name":"bid","type":"uint256","indexed":false,"internalType":"uint256"},{"name":"tab","type":"uint256","indexed":false,"internalType":"uint256"},{"name":"usr","type":"address","indexed":true,"internalType":"address"},{"name":"gal","type":"address","indexed":true,"internalType":"address"}],"anonymous":false}],"bytecode":{"object":"0x6080604052670e92596fd629000060045560058054612a3065ffffffffffff199091161765ffffffffffff60301b19166802a300000000000000179055600060065534801561004d57600080fd5b506040516119ed3803806119ed8339818101604052606081101561007057600080fd5b508051602080830151604093840151600280546001600160a01b039586166001600160a01b0319918216179091556007805495909316941693909317905560039190915533600090815290819052206001905561191b806100d26000396000f3fe608060405234801561001057600080fd5b50600436106101215760003560e01c80637d780d82116100ad578063cfc4af5511610071578063cfc4af5514610366578063cfdd33021461036e578063d4e8be8314610376578063e4881813146103a2578063fc7b6aee146103aa57610121565b80637d780d82146102ed5780639c52a7f1146102f5578063bf353dbb1461031b578063c5ce281e14610341578063c959c42b1461034957610121565b80634423c5f1116100f45780634423c5f1146101e05780634b43ed12146102525780634e8b1dd51461027b5780635ff3a3821461029e57806365fae35e146102c757610121565b806326e027f11461012657806329ae811414610145578063351de6001461016857806336569e77146101bc575b600080fd5b6101436004803603602081101561013c57600080fd5b50356103c7565b005b6101436004803603604081101561015b57600080fd5b50803590602001356106a9565b6101aa600480360360a081101561017e57600080fd5b506001600160a01b038135811691602081013590911690604081013590606081013590608001356107c8565b60408051918252519081900360200190f35b6101c46109f9565b604080516001600160a01b039092168252519081900360200190f35b6101fd600480360360208110156101f657600080fd5b5035610a08565b6040805198895260208901979097526001600160a01b039586168888015265ffffffffffff9485166060890152929093166080870152831660a0860152911660c084015260e083015251908190036101000190f35b6101436004803603606081101561026857600080fd5b5080359060208101359060400135610a66565b610283610f51565b6040805165ffffffffffff9092168252519081900360200190f35b610143600480360360608110156102b457600080fd5b5080359060208101359060400135610f5f565b610143600480360360208110156102dd57600080fd5b50356001600160a01b03166113fc565b6101aa61146b565b6101436004803603602081101561030b57600080fd5b50356001600160a01b0316611471565b6101aa6004803603602081101561033157600080fd5b50356001600160a01b03166114dd565b6101aa6114ef565b6101436004803603602081101561035f57600080fd5b50356114f5565b6102836116a2565b6101aa6116b7565b6101436004803603604081101561038c57600080fd5b50803590602001356001600160a01b03166116bd565b6101c461173d565b610143600480360360208110156103c057600080fd5b503561174c565b33600090815260208190526040902054600114610419576040805162461bcd60e51b815260206004820152601660248201526000805160206118c6833981519152604482015290519081900360640190fd5b6000818152600160205260409020600201546001600160a01b031661047b576040805162461bcd60e51b8152602060048201526013602482015272119b1a5c1c195c8bd9dd5e4b5b9bdd0b5cd95d606a1b604482015290519081900360640190fd5b600081815260016020526040902060058101549054106104e2576040805162461bcd60e51b815260206004820152601a60248201527f466c69707065722f616c72656164792d64656e742d7068617365000000000000604482015290519081900360640190fd5b60075460008281526001602052604080822060050154815163e66d279b60e01b8152600481019190915290516001600160a01b039093169263e66d279b9260248084019391929182900301818387803b15801561053e57600080fd5b505af1158015610552573d6000803e3d6000fd5b50506002546003546000858152600160208190526040808320909101548151633088df1760e11b815260048101949094523060248501523360448501526064840152516001600160a01b039093169450636111be2e9350608480830193919282900301818387803b1580156105c657600080fd5b505af11580156105da573d6000803e3d6000fd5b505060028054600085815260016020526040808220938401549354815163bb35783b60e01b81523360048201526001600160a01b0395861660248201526044810191909152905193909216945063bb35783b9350606480830193919282900301818387803b15801561064b57600080fd5b505af115801561065f573d6000803e3d6000fd5b5050506000918252506001602081905260408220828155908101829055600281018290556003810180546001600160a01b0319908116909155600482018054909116905560050155565b336000908152602081905260409020546001146106fb576040805162461bcd60e51b815260206004820152601660248201526000805160206118c6833981519152604482015290519081900360640190fd5b816262656760e81b14156107135760048190556107c4565b81621d1d1b60ea1b141561073f576005805465ffffffffffff191665ffffffffffff83161790556107c4565b816274617560e81b141561077757600580546bffffffffffff0000000000001916600160301b65ffffffffffff8416021790556107c4565b6040805162461bcd60e51b815260206004820152601f60248201527f466c69707065722f66696c652d756e7265636f676e697a65642d706172616d00604482015290519081900360640190fd5b5050565b3360009081526020819052604081205460011461081a576040805162461bcd60e51b815260206004820152601660248201526000805160206118c6833981519152604482015290519081900360640190fd5b60001960065410610865576040805162461bcd60e51b815260206004820152601060248201526f466c69707065722f6f766572666c6f7760801b604482015290519081900360640190fd5b5060068054600190810191829055600082815260208290526040902083815590810184905560020180546001600160a01b031916331790556005546108bb90429065ffffffffffff600160301b90910416611880565b6000828152600160205260408082206002808201805465ffffffffffff96909616600160d01b026001600160d01b0390961695909517909455600380820180546001600160a01b03808e166001600160a01b031992831617909255600480850180548e851693169290921790915560059093018a9055945490548351633088df1760e11b8152928301523360248301523060448301526064820188905291519190931692636111be2e92608480830193919282900301818387803b15801561098257600080fd5b505af1158015610996573d6000803e3d6000fd5b505060408051848152602081018790528082018690526060810188905290516001600160a01b03808a1694508a1692507fc84ce3a1172f0dec3173f04caaa6005151a4bfe40d4c9f3ea28dba5f719b2a7a9181900360800190a395945050505050565b6002546001600160a01b031681565b600160208190526000918252604090912080549181015460028201546003830154600484015460059094015492936001600160a01b038084169465ffffffffffff600160a01b8604811695600160d01b900416938216929091169088565b6000838152600160205260409020600201546001600160a01b0316610ac8576040805162461bcd60e51b8152602060048201526013602482015272119b1a5c1c195c8bd9dd5e4b5b9bdd0b5cd95d606a1b604482015290519081900360640190fd5b60008381526001602052604090206002015442600160a01b90910465ffffffffffff161180610b155750600083815260016020526040902060020154600160a01b900465ffffffffffff16155b610b66576040805162461bcd60e51b815260206004820152601c60248201527f466c69707065722f616c72656164792d66696e69736865642d74696300000000604482015290519081900360640190fd5b60008381526001602052604090206002015442600160d01b90910465ffffffffffff1611610bdb576040805162461bcd60e51b815260206004820152601c60248201527f466c69707065722f616c72656164792d66696e69736865642d656e6400000000604482015290519081900360640190fd5b600083815260016020819052604090912001548214610c41576040805162461bcd60e51b815260206004820152601860248201527f466c69707065722f6c6f742d6e6f742d6d61746368696e670000000000000000604482015290519081900360640190fd5b600083815260016020526040902060050154811115610ca7576040805162461bcd60e51b815260206004820152601760248201527f466c69707065722f6869676865722d7468616e2d746162000000000000000000604482015290519081900360640190fd5b6000838152600160205260409020548111610d02576040805162461bcd60e51b8152602060048201526016602482015275233634b83832b917b134b216b737ba16b434b3b432b960511b604482015290519081900360640190fd5b600454600084815260016020526040902054610d1e91906118a1565b610d3082670de0b6b3a76400006118a1565b101580610d4d575060008381526001602052604090206005015481145b610d9e576040805162461bcd60e51b815260206004820152601d60248201527f466c69707065722f696e73756666696369656e742d696e637265617365000000604482015290519081900360640190fd5b6000838152600160205260409020600201546001600160a01b03163314610e665760028054600085815260016020526040808220938401549354815163bb35783b60e01b81523360048201526001600160a01b03958616602482015260448101919091529051939092169263bb35783b92606480820193929182900301818387803b158015610e2c57600080fd5b505af1158015610e40573d6000803e3d6000fd5b505050600084815260016020526040902060020180546001600160a01b03191633179055505b6002546000848152600160205260408082206004808201549154835163bb35783b60e01b815233928101929092526001600160a01b03928316602483015286036044820152915193169263bb35783b9260648084019391929182900301818387803b158015610ed457600080fd5b505af1158015610ee8573d6000803e3d6000fd5b505050600084815260016020526040902082905550600554610f1390429065ffffffffffff16611880565b600093845260016020526040909320600201805465ffffffffffff94909416600160a01b0265ffffffffffff60a01b19909416939093179092555050565b60055465ffffffffffff1681565b6000838152600160205260409020600201546001600160a01b0316610fc1576040805162461bcd60e51b8152602060048201526013602482015272119b1a5c1c195c8bd9dd5e4b5b9bdd0b5cd95d606a1b604482015290519081900360640190fd5b60008381526001602052604090206002015442600160a01b90910465ffffffffffff16118061100e5750600083815260016020526040902060020154600160a01b900465ffffffffffff16155b61105f576040805162461bcd60e51b815260206004820152601c60248201527f466c69707065722f616c72656164792d66696e69736865642d74696300000000604482015290519081900360640190fd5b60008381526001602052604090206002015442600160d01b90910465ffffffffffff16116110d4576040805162461bcd60e51b815260206004820152601c60248201527f466c69707065722f616c72656164792d66696e69736865642d656e6400000000604482015290519081900360640190fd5b6000838152600160205260409020548114611136576040805162461bcd60e51b815260206004820152601860248201527f466c69707065722f6e6f742d6d61746368696e672d6269640000000000000000604482015290519081900360640190fd5b600083815260016020526040902060050154811461119b576040805162461bcd60e51b815260206004820152601960248201527f466c69707065722f74656e642d6e6f742d66696e697368656400000000000000604482015290519081900360640190fd5b6000838152600160208190526040909120015482106111f9576040805162461bcd60e51b8152602060048201526015602482015274233634b83832b917b637ba16b737ba16b637bbb2b960591b604482015290519081900360640190fd5b6000838152600160208190526040909120015461121e90670de0b6b3a76400006118a1565b61122a600454846118a1565b111561127d576040805162461bcd60e51b815260206004820152601d60248201527f466c69707065722f696e73756666696369656e742d6465637265617365000000604482015290519081900360640190fd5b6000838152600160205260409020600201546001600160a01b0316331461133f576002805460008581526001602052604080822090930154835163bb35783b60e01b81523360048201526001600160a01b03918216602482015260448101869052935192169263bb35783b926064808301939282900301818387803b15801561130557600080fd5b505af1158015611319573d6000803e3d6000fd5b505050600084815260016020526040902060020180546001600160a01b03191633179055505b6002546003805460008681526001602081905260408083209485015494909101548151633088df1760e11b815260048101949094523060248501526001600160a01b0394851660448501528790036064840152519290931692636111be2e9260848084019382900301818387803b1580156113b957600080fd5b505af11580156113cd573d6000803e3d6000fd5b50505060008481526001602081905260409091200183905550600554610f1390429065ffffffffffff16611880565b3360009081526020819052604090205460011461144e576040805162461bcd60e51b815260206004820152601660248201526000805160206118c6833981519152604482015290519081900360640190fd5b6001600160a01b0316600090815260208190526040902060019055565b60045481565b336000908152602081905260409020546001146114c3576040805162461bcd60e51b815260206004820152601660248201526000805160206118c6833981519152604482015290519081900360640190fd5b6001600160a01b0316600090815260208190526040812055565b60006020819052908152604090205481565b60035481565b600081815260016020526040902060020154600160a01b900465ffffffffffff161580159061156e575060008181526001602052604090206002015442600160a01b90910465ffffffffffff16108061156e575060008181526001602052604090206002015442600160d01b90910465ffffffffffff16105b6115b6576040805162461bcd60e51b8152602060048201526014602482015273119b1a5c1c195c8bdb9bdd0b599a5b9a5cda195960621b604482015290519081900360640190fd5b60075460008281526001602052604080822060050154815163e66d279b60e01b8152600481019190915290516001600160a01b039093169263e66d279b9260248084019391929182900301818387803b15801561161257600080fd5b505af1158015611626573d6000803e3d6000fd5b50506002805460035460008681526001602081905260408083209586015495909101548151633088df1760e11b815260048101949094523060248501526001600160a01b039586166044850152606484015251939092169450636111be2e93506084808201939182900301818387803b15801561064b57600080fd5b600554600160301b900465ffffffffffff1681565b60065481565b3360009081526020819052604090205460011461170f576040805162461bcd60e51b815260206004820152601660248201526000805160206118c6833981519152604482015290519081900360640190fd5b816218d85d60ea1b141561077757600780546001600160a01b0319166001600160a01b0383161790556107c4565b6007546001600160a01b031681565b60008181526001602052604090206002015442600160d01b90910465ffffffffffff16106117b8576040805162461bcd60e51b8152602060048201526014602482015273119b1a5c1c195c8bdb9bdd0b599a5b9a5cda195960621b604482015290519081900360640190fd5b600081815260016020526040902060020154600160a01b900465ffffffffffff161561182b576040805162461bcd60e51b815260206004820152601a60248201527f466c69707065722f6269642d616c72656164792d706c61636564000000000000604482015290519081900360640190fd5b600554611848904290600160301b900465ffffffffffff16611880565b600091825260016020526040909120600201805465ffffffffffff92909216600160d01b026001600160d01b03909216919091179055565b80820165ffffffffffff808416908216101561189b57600080fd5b92915050565b60008115806118bc575050808202828282816118b957fe5b04145b61189b57600080fdfe466c69707065722f6e6f742d617574686f72697a656400000000000000000000a2646970667358221220005af7a09a6d0f22afb08b474d999d1da68552f622e3db68a8aa87a2b36b22e264736f6c634300060c0033","linkReferences":{}},"methodIdentifiers":{"beg()":"7d780d82","bids(uint256)":"4423c5f1","cat()":"e4881813","deal(uint256)":"c959c42b","dent(uint256,uint256,uint256)":"5ff3a382","deny(address)":"9c52a7f1","file(bytes32,address)":"d4e8be83","file(bytes32,uint256)":"29ae8114","ilk()":"c5ce281e","kick(address,address,uint256,uint256,uint256)":"351de600","kicks()":"cfdd3302","rely(address)":"65fae35e","tau()":"cfc4af55","tend(uint256,uint256,uint256)":"4b43ed12","tick(uint256)":"fc7b6aee","ttl()":"4e8b1dd5","vat()":"36569e77","wards(address)":"bf353dbb","yank(uint256)":"26e027f1"},"id":31}