{"abi":[{"type":"constructor","inputs":[{"name":"vat_","type":"address","internalType":"address"},{"name":"gem_","type":"address","internalType":"address"}],"stateMutability":"nonpayable"},{"type":"function","name":"beg","inputs":[],"outputs":[{"name":"","type":"uint256","internalType":"uint256"}],"stateMutability":"view"},{"type":"function","name":"bids","inputs":[{"name":"","type":"uint256","internalType":"uint256"}],"outputs":[{"name":"bid","type":"uint256","internalType":"uint256"},{"name":"lot","type":"uint256","internalType":"uint256"},{"name":"guy","type":"address","internalType":"address"},{"name":"tic","type":"uint48","internalType":"uint48"},{"name":"end","type":"uint48","internalType":"uint48"}],"stateMutability":"view"},{"type":"function","name":"cage","inputs":[{"name":"rad","type":"uint256","internalType":"uint256"}],"outputs":[],"stateMutability":"nonpayable"},{"type":"function","name":"deal","inputs":[{"name":"id","type":"uint256","internalType":"uint256"}],"outputs":[],"stateMutability":"nonpayable"},{"type":"function","name":"deny","inputs":[{"name":"usr","type":"address","internalType":"address"}],"outputs":[],"stateMutability":"nonpayable"},{"type":"function","name":"file","inputs":[{"name":"what","type":"bytes32","internalType":"bytes32"},{"name":"data","type":"uint256","internalType":"uint256"}],"outputs":[],"stateMutability":"nonpayable"},{"type":"function","name":"fill","inputs":[],"outputs":[{"name":"","type":"uint256","internalType":"uint256"}],"stateMutability":"view"},{"type":"function","name":"gem","inputs":[],"outputs":[{"name":"","type":"address","internalType":"contract GemLike"}],"stateMutability":"view"},{"type":"function","name":"kick","inputs":[{"name":"lot","type":"uint256","internalType":"uint256"},{"name":"bid","type":"uint256","internalType":"uint256"}],"outputs":[{"name":"id","type":"uint256","internalType":"uint256"}],"stateMutability":"nonpayable"},{"type":"function","name":"kicks","inputs":[],"outputs":[{"name":"","type":"uint256","internalType":"uint256"}],"stateMutability":"view"},{"type":"function","name":"lid","inputs":[],"outputs":[{"name":"","type":"uint256","internalType":"uint256"}],"stateMutability":"view"},{"type":"function","name":"live","inputs":[],"outputs":[{"name":"","type":"uint256","internalType":"uint256"}],"stateMutability":"view"},{"type":"function","name":"rely","inputs":[{"name":"usr","type":"address","internalType":"address"}],"outputs":[],"stateMutability":"nonpayable"},{"type":"function","name":"tau","inputs":[],"outputs":[{"name":"","type":"uint48","internalType":"uint48"}],"stateMutability":"view"},{"type":"function","name":"tend","inputs":[{"name":"id","type":"uint256","internalType":"uint256"},{"name":"lot","type":"uint256","internalType":"uint256"},{"name":"bid","type":"uint256","internalType":"uint256"}],"outputs":[],"stateMutability":"nonpayable"},{"type":"function","name":"tick","inputs":[{"name":"id","type":"uint256","internalType":"uint256"}],"outputs":[],"stateMutability":"nonpayable"},{"type":"function","name":"ttl","inputs":[],"outputs":[{"name":"","type":"uint48","internalType":"uint48"}],"stateMutability":"view"},{"type":"function","name":"vat","inputs":[],"outputs":[{"name":"","type":"address","internalType":"contract VatLike"}],"stateMutability":"view"},{"type":"function","name":"wards","inputs":[{"name":"","type":"address","internalType":"address"}],"outputs":[{"name":"","type":"uint256","internalType":"uint256"}],"stateMutability":"view"},{"type":"function","name":"yank","inputs":[{"name":"id","type":"uint256","internalType":"uint256"}],"outputs":[],"stateMutability":"nonpayable"},{"type":"event","name":"Kick","inputs":[{"name":"id","type":"uint256","indexed":false,"internalType":"uint256"},{"name":"lot","type":"uint256","indexed":false,"internalType":"uint256"},{"name":"bid","type":"uint256","indexed":false,"internalType":"uint256"}],"anonymous":false}],"bytecode":{"object":"0x6080604052670e92596fd629000060045560058054612a3065ffffffffffff199091161765ffffffffffff60301b19166802a300000000000000179055600060065534801561004d57600080fd5b506040516114893803806114898339818101604052604081101561007057600080fd5b508051602091820151336000908152928390526040909220600190819055600280546001600160a01b039384166001600160a01b03199182161790915560038054939094169216919091179091556007556113b9806100d06000396000f3fe608060405234801561001057600080fd5b506004361061012c5760003560e01c8063957aa58c116100ad578063ca40c41911610071578063ca40c4191461031c578063cfc4af551461033f578063cfdd330214610347578063d9c55ce11461034f578063fc7b6aee146103575761012c565b8063957aa58c1461028e5780639c52a7f114610296578063a2f91af2146102bc578063bf353dbb146102d9578063c959c42b146102ff5761012c565b80634b43ed12116100f45780634b43ed121461020c5780634e8b1dd51461023557806365fae35e146102585780637bd2bea71461027e5780637d780d82146102865761012c565b806326d2addc1461013157806326e027f11461014b57806329ae81141461016a57806336569e771461018d5780634423c5f1146101b1575b600080fd5b610139610374565b60408051918252519081900360200190f35b6101686004803603602081101561016157600080fd5b503561037a565b005b6101686004803603604081101561018057600080fd5b50803590602001356104c9565b61019561060b565b604080516001600160a01b039092168252519081900360200190f35b6101ce600480360360208110156101c757600080fd5b503561061a565b6040805195865260208601949094526001600160a01b039092168484015265ffffffffffff9081166060850152166080830152519081900360a00190f35b6101686004803603606081101561022257600080fd5b508035906020810135906040013561065e565b61023d610b08565b6040805165ffffffffffff9092168252519081900360200190f35b6101686004803603602081101561026e57600080fd5b50356001600160a01b0316610b16565b610195610b90565b610139610b9f565b610139610ba5565b610168600480360360208110156102ac57600080fd5b50356001600160a01b0316610bab565b610168600480360360208110156102d257600080fd5b5035610c22565b610139600480360360208110156102ef57600080fd5b50356001600160a01b0316610cf4565b6101686004803603602081101561031557600080fd5b5035610d06565b6101396004803603604081101561033257600080fd5b5080359060200135610f3d565b61023d6111c9565b6101396111de565b6101396111e4565b6101686004803603602081101561036d57600080fd5b50356111ea565b60085481565b600754156103c4576040805162461bcd60e51b8152602060048201526012602482015271466c61707065722f7374696c6c2d6c69766560701b604482015290519081900360640190fd5b6000818152600160205260409020600201546001600160a01b0316610426576040805162461bcd60e51b8152602060048201526013602482015272119b185c1c195c8bd9dd5e4b5b9bdd0b5cd95d606a1b604482015290519081900360640190fd5b60035460008281526001602052604080822060028101549054825163bb35783b60e01b81523060048201526001600160a01b0392831660248201526044810191909152915193169263bb35783b9260648084019391929182900301818387803b15801561049257600080fd5b505af11580156104a6573d6000803e3d6000fd5b505050600091825250600160208190526040822082815590810182905560020155565b33600090815260208190526040902054600114610526576040805162461bcd60e51b8152602060048201526016602482015275119b185c1c195c8bdb9bdd0b585d5d1a1bdc9a5e995960521b604482015290519081900360640190fd5b816262656760e81b141561053e576004819055610607565b81621d1d1b60ea1b141561056a576005805465ffffffffffff191665ffffffffffff8316179055610607565b816274617560e81b14156105a257600580546bffffffffffff0000000000001916600160301b65ffffffffffff841602179055610607565b81621b1a5960ea1b14156105ba576008819055610607565b6040805162461bcd60e51b815260206004820152601f60248201527f466c61707065722f66696c652d756e7265636f676e697a65642d706172616d00604482015290519081900360640190fd5b5050565b6002546001600160a01b031681565b60016020819052600091825260409091208054918101546002909101546001600160a01b0381169065ffffffffffff600160a01b8204811691600160d01b90041685565b6007546001146106a8576040805162461bcd60e51b815260206004820152601060248201526f466c61707065722f6e6f742d6c69766560801b604482015290519081900360640190fd5b6000838152600160205260409020600201546001600160a01b031661070a576040805162461bcd60e51b8152602060048201526013602482015272119b185c1c195c8bd9dd5e4b5b9bdd0b5cd95d606a1b604482015290519081900360640190fd5b60008381526001602052604090206002015442600160a01b90910465ffffffffffff1611806107575750600083815260016020526040902060020154600160a01b900465ffffffffffff16155b6107a8576040805162461bcd60e51b815260206004820152601c60248201527f466c61707065722f616c72656164792d66696e69736865642d74696300000000604482015290519081900360640190fd5b60008381526001602052604090206002015442600160d01b90910465ffffffffffff161161081d576040805162461bcd60e51b815260206004820152601c60248201527f466c61707065722f616c72656164792d66696e69736865642d656e6400000000604482015290519081900360640190fd5b600083815260016020819052604090912001548214610883576040805162461bcd60e51b815260206004820152601860248201527f466c61707065722f6c6f742d6e6f742d6d61746368696e670000000000000000604482015290519081900360640190fd5b60008381526001602052604090205481116108de576040805162461bcd60e51b8152602060048201526016602482015275233630b83832b917b134b216b737ba16b434b3b432b960511b604482015290519081900360640190fd5b6004546000848152600160205260409020546108fa919061131e565b61090c82670de0b6b3a764000061131e565b101561095f576040805162461bcd60e51b815260206004820152601d60248201527f466c61707065722f696e73756666696369656e742d696e637265617365000000604482015290519081900360640190fd5b6000838152600160205260409020600201546001600160a01b03163314610a265760035460008481526001602052604080822060028101549054825163bb35783b60e01b81523360048201526001600160a01b0392831660248201526044810191909152915193169263bb35783b9260648084019391929182900301818387803b1580156109ec57600080fd5b505af1158015610a00573d6000803e3d6000fd5b505050600084815260016020526040902060020180546001600160a01b03191633179055505b60035460008481526001602052604080822054815163bb35783b60e01b8152336004820152306024820152908503604482015290516001600160a01b039093169263bb35783b9260648084019391929182900301818387803b158015610a8b57600080fd5b505af1158015610a9f573d6000803e3d6000fd5b505050600084815260016020526040902082905550600554610aca90429065ffffffffffff16611348565b600093845260016020526040909320600201805465ffffffffffff94909416600160a01b0265ffffffffffff60a01b19909416939093179092555050565b60055465ffffffffffff1681565b33600090815260208190526040902054600114610b73576040805162461bcd60e51b8152602060048201526016602482015275119b185c1c195c8bdb9bdd0b585d5d1a1bdc9a5e995960521b604482015290519081900360640190fd5b6001600160a01b0316600090815260208190526040902060019055565b6003546001600160a01b031681565b60045481565b60075481565b33600090815260208190526040902054600114610c08576040805162461bcd60e51b8152602060048201526016602482015275119b185c1c195c8bdb9bdd0b585d5d1a1bdc9a5e995960521b604482015290519081900360640190fd5b6001600160a01b0316600090815260208190526040812055565b33600090815260208190526040902054600114610c7f576040805162461bcd60e51b8152602060048201526016602482015275119b185c1c195c8bdb9bdd0b585d5d1a1bdc9a5e995960521b604482015290519081900360640190fd5b600060078190556002546040805163bb35783b60e01b81523060048201523360248201526044810185905290516001600160a01b039092169263bb35783b9260648084019382900301818387803b158015610cd957600080fd5b505af1158015610ced573d6000803e3d6000fd5b5050505050565b60006020819052908152604090205481565b600754600114610d50576040805162461bcd60e51b815260206004820152601060248201526f466c61707065722f6e6f742d6c69766560801b604482015290519081900360640190fd5b600081815260016020526040902060020154600160a01b900465ffffffffffff1615801590610dc9575060008181526001602052604090206002015442600160a01b90910465ffffffffffff161080610dc9575060008181526001602052604090206002015442600160d01b90910465ffffffffffff16105b610e11576040805162461bcd60e51b8152602060048201526014602482015273119b185c1c195c8bdb9bdd0b599a5b9a5cda195960621b604482015290519081900360640190fd5b60008181526001602081905260408083209182015460028054930154825163bb35783b60e01b81523060048201526001600160a01b039182166024820152604481018390529251919493169263bb35783b926064808201939182900301818387803b158015610e7f57600080fd5b505af1158015610e93573d6000803e3d6000fd5b5050600354600085815260016020526040808220548151632770a7eb60e21b8152306004820152602481019190915290516001600160a01b039093169450639dc29fac93506044808201939182900301818387803b158015610ef457600080fd5b505af1158015610f08573d6000803e3d6000fd5b505050600083815260016020819052604082208281559081018290556002015550600954610f369082611363565b6009555050565b33600090815260208190526040812054600114610f9a576040805162461bcd60e51b8152602060048201526016602482015275119b185c1c195c8bdb9bdd0b585d5d1a1bdc9a5e995960521b604482015290519081900360640190fd5b600754600114610fe4576040805162461bcd60e51b815260206004820152601060248201526f466c61707065722f6e6f742d6c69766560801b604482015290519081900360640190fd5b6000196006541061102f576040805162461bcd60e51b815260206004820152601060248201526f466c61707065722f6f766572666c6f7760801b604482015290519081900360640190fd5b61103b60095484611373565b60098190556008541015611089576040805162461bcd60e51b815260206004820152601060248201526f119b185c1c195c8bdbdd995c8b5b1a5960821b604482015290519081900360640190fd5b5060068054600190810191829055600082815260208290526040902083815590810184905560020180546001600160a01b031916331790556005546110df90429065ffffffffffff600160301b90910416611348565b6000828152600160205260408082206002908101805465ffffffffffff95909516600160d01b026001600160d01b03909516949094179093559154825163bb35783b60e01b81523360048201523060248201526044810187905292516001600160a01b039091169263bb35783b92606480830193919282900301818387803b15801561116a57600080fd5b505af115801561117e573d6000803e3d6000fd5b5050604080518481526020810187905280820186905290517fe6dde59cbc017becba89714a037778d234a84ce7f0a137487142a007e580d6099350908190036060019150a192915050565b600554600160301b900465ffffffffffff1681565b60065481565b60095481565b60008181526001602052604090206002015442600160d01b90910465ffffffffffff1610611256576040805162461bcd60e51b8152602060048201526014602482015273119b185c1c195c8bdb9bdd0b599a5b9a5cda195960621b604482015290519081900360640190fd5b600081815260016020526040902060020154600160a01b900465ffffffffffff16156112c9576040805162461bcd60e51b815260206004820152601a60248201527f466c61707065722f6269642d616c72656164792d706c61636564000000000000604482015290519081900360640190fd5b6005546112e6904290600160301b900465ffffffffffff16611348565b600091825260016020526040909120600201805465ffffffffffff92909216600160d01b026001600160d01b03909216919091179055565b60008115806113395750508082028282828161133657fe5b04145b61134257600080fd5b92915050565b80820165ffffffffffff808416908216101561134257600080fd5b8082038281111561134257600080fd5b8082018281101561134257600080fdfea2646970667358221220dac876ebe8bf619b1ae41e364673587875719210423bcf2e67b5ee400de67a9464736f6c634300060c0033","linkReferences":{}},"methodIdentifiers":{"beg()":"7d780d82","bids(uint256)":"4423c5f1","cage(uint256)":"a2f91af2","deal(uint256)":"c959c42b","deny(address)":"9c52a7f1","file(bytes32,uint256)":"29ae8114","fill()":"d9c55ce1","gem()":"7bd2bea7","kick(uint256,uint256)":"ca40c419","kicks()":"cfdd3302","lid()":"26d2addc","live()":"957aa58c","rely(address)":"65fae35e","tau()":"cfc4af55","tend(uint256,uint256,uint256)":"4b43ed12","tick(uint256)":"fc7b6aee","ttl()":"4e8b1dd5","vat()":"36569e77","wards(address)":"bf353dbb","yank(uint256)":"26e027f1"},"id":30}