{"abi":[{"type":"constructor","inputs":[],"stateMutability":"nonpayable"},{"type":"function","name":"Art","inputs":[{"name":"","type":"bytes32","internalType":"bytes32"}],"outputs":[{"name":"","type":"uint256","internalType":"uint256"}],"stateMutability":"view"},{"type":"function","name":"bag","inputs":[{"name":"","type":"address","internalType":"address"}],"outputs":[{"name":"","type":"uint256","internalType":"uint256"}],"stateMutability":"view"},{"type":"function","name":"cage","inputs":[],"outputs":[],"stateMutability":"nonpayable"},{"type":"function","name":"cage","inputs":[{"name":"ilk","type":"bytes32","internalType":"bytes32"}],"outputs":[],"stateMutability":"nonpayable"},{"type":"function","name":"cash","inputs":[{"name":"ilk","type":"bytes32","internalType":"bytes32"},{"name":"wad","type":"uint256","internalType":"uint256"}],"outputs":[],"stateMutability":"nonpayable"},{"type":"function","name":"cat","inputs":[],"outputs":[{"name":"","type":"address","internalType":"contract CatLike"}],"stateMutability":"view"},{"type":"function","name":"cure","inputs":[],"outputs":[{"name":"","type":"address","internalType":"contract CureLike"}],"stateMutability":"view"},{"type":"function","name":"debt","inputs":[],"outputs":[{"name":"","type":"uint256","internalType":"uint256"}],"stateMutability":"view"},{"type":"function","name":"deny","inputs":[{"name":"usr","type":"address","internalType":"address"}],"outputs":[],"stateMutability":"nonpayable"},{"type":"function","name":"dog","inputs":[],"outputs":[{"name":"","type":"address","internalType":"contract DogLike"}],"stateMutability":"view"},{"type":"function","name":"file","inputs":[{"name":"what","type":"bytes32","internalType":"bytes32"},{"name":"data","type":"uint256","internalType":"uint256"}],"outputs":[],"stateMutability":"nonpayable"},{"type":"function","name":"file","inputs":[{"name":"what","type":"bytes32","internalType":"bytes32"},{"name":"data","type":"address","internalType":"address"}],"outputs":[],"stateMutability":"nonpayable"},{"type":"function","name":"fix","inputs":[{"name":"","type":"bytes32","internalType":"bytes32"}],"outputs":[{"name":"","type":"uint256","internalType":"uint256"}],"stateMutability":"view"},{"type":"function","name":"flow","inputs":[{"name":"ilk","type":"bytes32","internalType":"bytes32"}],"outputs":[],"stateMutability":"nonpayable"},{"type":"function","name":"free","inputs":[{"name":"ilk","type":"bytes32","internalType":"bytes32"}],"outputs":[],"stateMutability":"nonpayable"},{"type":"function","name":"gap","inputs":[{"name":"","type":"bytes32","internalType":"bytes32"}],"outputs":[{"name":"","type":"uint256","internalType":"uint256"}],"stateMutability":"view"},{"type":"function","name":"live","inputs":[],"outputs":[{"name":"","type":"uint256","internalType":"uint256"}],"stateMutability":"view"},{"type":"function","name":"out","inputs":[{"name":"","type":"bytes32","internalType":"bytes32"},{"name":"","type":"address","internalType":"address"}],"outputs":[{"name":"","type":"uint256","internalType":"uint256"}],"stateMutability":"view"},{"type":"function","name":"pack","inputs":[{"name":"wad","type":"uint256","internalType":"uint256"}],"outputs":[],"stateMutability":"nonpayable"},{"type":"function","name":"pot","inputs":[],"outputs":[{"name":"","type":"address","internalType":"contract PotLike"}],"stateMutability":"view"},{"type":"function","name":"rely","inputs":[{"name":"usr","type":"address","internalType":"address"}],"outputs":[],"stateMutability":"nonpayable"},{"type":"function","name":"skim","inputs":[{"name":"ilk","type":"bytes32","internalType":"bytes32"},{"name":"urn","type":"address","internalType":"address"}],"outputs":[],"stateMutability":"nonpayable"},{"type":"function","name":"skip","inputs":[{"name":"ilk","type":"bytes32","internalType":"bytes32"},{"name":"id","type":"uint256","internalType":"uint256"}],"outputs":[],"stateMutability":"nonpayable"},{"type":"function","name":"snip","inputs":[{"name":"ilk","type":"bytes32","internalType":"bytes32"},{"name":"id","type":"uint256","internalType":"uint256"}],"outputs":[],"stateMutability":"nonpayable"},{"type":"function","name":"spot","inputs":[],"outputs":[{"name":"","type":"address","internalType":"contract SpotLike"}],"stateMutability":"view"},{"type":"function","name":"tag","inputs":[{"name":"","type":"bytes32","internalType":"bytes32"}],"outputs":[{"name":"","type":"uint256","internalType":"uint256"}],"stateMutability":"view"},{"type":"function","name":"thaw","inputs":[],"outputs":[],"stateMutability":"nonpayable"},{"type":"function","name":"vat","inputs":[],"outputs":[{"name":"","type":"address","internalType":"contract VatLike"}],"stateMutability":"view"},{"type":"function","name":"vow","inputs":[],"outputs":[{"name":"","type":"address","internalType":"contract VowLike"}],"stateMutability":"view"},{"type":"function","name":"wait","inputs":[],"outputs":[{"name":"","type":"uint256","internalType":"uint256"}],"stateMutability":"view"},{"type":"function","name":"wards","inputs":[{"name":"","type":"address","internalType":"address"}],"outputs":[{"name":"","type":"uint256","internalType":"uint256"}],"stateMutability":"view"},{"type":"function","name":"when","inputs":[],"outputs":[{"name":"","type":"uint256","internalType":"uint256"}],"stateMutability":"view"},{"type":"event","name":"Cage","inputs":[],"anonymous":false},{"type":"event","name":"Cage","inputs":[{"name":"ilk","type":"bytes32","indexed":true,"internalType":"bytes32"}],"anonymous":false},{"type":"event","name":"Cash","inputs":[{"name":"ilk","type":"bytes32","indexed":true,"internalType":"bytes32"},{"name":"usr","type":"address","indexed":true,"internalType":"address"},{"name":"wad","type":"uint256","indexed":false,"internalType":"uint256"}],"anonymous":false},{"type":"event","name":"Deny","inputs":[{"name":"usr","type":"address","indexed":true,"internalType":"address"}],"anonymous":false},{"type":"event","name":"File","inputs":[{"name":"what","type":"bytes32","indexed":true,"internalType":"bytes32"},{"name":"data","type":"uint256","indexed":false,"internalType":"uint256"}],"anonymous":false},{"type":"event","name":"File","inputs":[{"name":"what","type":"bytes32","indexed":true,"internalType":"bytes32"},{"name":"data","type":"address","indexed":false,"internalType":"address"}],"anonymous":false},{"type":"event","name":"Flow","inputs":[{"name":"ilk","type":"bytes32","indexed":true,"internalType":"bytes32"}],"anonymous":false},{"type":"event","name":"Free","inputs":[{"name":"ilk","type":"bytes32","indexed":true,"internalType":"bytes32"},{"name":"usr","type":"address","indexed":true,"internalType":"address"},{"name":"ink","type":"uint256","indexed":false,"internalType":"uint256"}],"anonymous":false},{"type":"event","name":"Pack","inputs":[{"name":"usr","type":"address","indexed":true,"internalType":"address"},{"name":"wad","type":"uint256","indexed":false,"internalType":"uint256"}],"anonymous":false},{"type":"event","name":"Rely","inputs":[{"name":"usr","type":"address","indexed":true,"internalType":"address"}],"anonymous":false},{"type":"event","name":"Skim","inputs":[{"name":"ilk","type":"bytes32","indexed":true,"internalType":"bytes32"},{"name":"urn","type":"address","indexed":true,"internalType":"address"},{"name":"wad","type":"uint256","indexed":false,"internalType":"uint256"},{"name":"art","type":"uint256","indexed":false,"internalType":"uint256"}],"anonymous":false},{"type":"event","name":"Skip","inputs":[{"name":"ilk","type":"bytes32","indexed":true,"internalType":"bytes32"},{"name":"id","type":"uint256","indexed":true,"internalType":"uint256"},{"name":"usr","type":"address","indexed":true,"internalType":"address"},{"name":"tab","type":"uint256","indexed":false,"internalType":"uint256"},{"name":"lot","type":"uint256","indexed":false,"internalType":"uint256"},{"name":"art","type":"uint256","indexed":false,"internalType":"uint256"}],"anonymous":false},{"type":"event","name":"Snip","inputs":[{"name":"ilk","type":"bytes32","indexed":true,"internalType":"bytes32"},{"name":"id","type":"uint256","indexed":true,"internalType":"uint256"},{"name":"usr","type":"address","indexed":true,"internalType":"address"},{"name":"tab","type":"uint256","indexed":false,"internalType":"uint256"},{"name":"lot","type":"uint256","indexed":false,"internalType":"uint256"},{"name":"art","type":"uint256","indexed":false,"internalType":"uint256"}],"anonymous":false},{"type":"event","name":"Thaw","inputs":[],"anonymous":false}],"bytecode":{"object":"0x608060405234801561001057600080fd5b5033600081815260208190526040808220600190819055600855517fdd0e34038ac38b2a1ce960229778ac48a8719bc900b6c4f8d0475c6e8b385a609190a26128428061005e6000396000f3fe608060405234801561001057600080fd5b50600436106101f05760003560e01c806389ea45d31161010f578063d4e8be83116100a2578063e488181311610071578063e4881813146104b8578063e6ee62aa146104c0578063ee6447b5146104dd578063fe8507c6146104fa576101f0565b8063d4e8be831461044a578063e1340a3d14610476578063e2702fdc14610493578063e2b0caef146104b0576101f0565b8063bf353dbb116100de578063bf353dbb146103d3578063c3b3ad7f146103f9578063c83062c614610401578063c939ebfc1461041e576101f0565b806389ea45d3146103535780639255f8091461037f578063957aa58c146103a55780639c52a7f1146103ad576101f0565b8063626cb3c5116101875780636924500911610156578063692450091461031e5780636ea42555146103265780636f265b9314610343578063840782ed1461034b576101f0565b8063626cb3c5146102cb57806363fad85e146102d357806364bd7013146102f057806365fae35e146102f8576101f0565b80634a10eaa6116101c35780634a10eaa61461027b5780634ba2363a14610298578063503ecf06146102a05780635920375c146102c3576101f0565b80630dca59c1146101f557806329ae81141461020f57806336569e771461023457806338c6de4014610258575b600080fd5b6101fd61051d565b60408051918252519081900360200190f35b6102326004803603604081101561022557600080fd5b5080359060200135610523565b005b61023c610662565b604080516001600160a01b039092168252519081900360200190f35b6102326004803603604081101561026e57600080fd5b5080359060200135610671565b6102326004803603602081101561029157600080fd5b5035610a9e565b61023c610c89565b610232600480360360408110156102b657600080fd5b5080359060200135610c98565b6102326111ad565b61023c611474565b6101fd600480360360208110156102e957600080fd5b5035611483565b6101fd611495565b6102326004803603602081101561030e57600080fd5b50356001600160a01b031661149b565b610232611539565b6102326004803603602081101561033c57600080fd5b50356118c9565b61023c611a13565b61023c611a22565b6102326004803603604081101561036957600080fd5b50803590602001356001600160a01b0316611a31565b6101fd6004803603602081101561039557600080fd5b50356001600160a01b0316611d34565b6101fd611d46565b610232600480360360208110156103c357600080fd5b50356001600160a01b0316611d4c565b6101fd600480360360208110156103e957600080fd5b50356001600160a01b0316611de9565b61023c611dfb565b6102326004803603602081101561041757600080fd5b5035611e0a565b6101fd6004803603604081101561043457600080fd5b50803590602001356001600160a01b031661202f565b6102326004803603604081101561046057600080fd5b50803590602001356001600160a01b031661204c565b6101fd6004803603602081101561048c57600080fd5b503561226e565b610232600480360360208110156104a957600080fd5b5035612280565b6101fd612550565b61023c612556565b6101fd600480360360208110156104d657600080fd5b5035612565565b6101fd600480360360208110156104f357600080fd5b5035612577565b6102326004803603604081101561051057600080fd5b5080359060200135612589565b600b5481565b3360009081526020819052604090205460011461057c576040805162461bcd60e51b8152602060048201526012602482015271115b990bdb9bdd0b585d5d1a1bdc9a5e995960721b604482015290519081900360640190fd5b6008546001146105c2576040805162461bcd60e51b815260206004820152600c60248201526b456e642f6e6f742d6c69766560a01b604482015290519081900360640190fd5b81631dd85a5d60e21b14156105db57600a819055610628565b6040805162461bcd60e51b815260206004820152601b60248201527f456e642f66696c652d756e7265636f676e697a65642d706172616d0000000000604482015290519081900360640190fd5b60408051828152905183917fe986e40cc8c151830d4f61050f4fb2e4add8567caad2d5f5496f9158e91fe4c7919081900360200190a25050565b6001546001600160a01b031681565b6000828152600c60205260409020546106cb576040805162461bcd60e51b8152602060048201526017602482015276115b990bdd1859cb5a5b1acb5b9bdd0b5919599a5b9959604a1b604482015290519081900360640190fd5b60035460408051636cb1c69b60e11b81526004810185905290516000926001600160a01b03169163d9638d3691602480830192608092919082900301818787803b15801561071857600080fd5b505af115801561072c573d6000803e3d6000fd5b505050506040513d608081101561074257600080fd5b505160015460408051636cb1c69b60e11b815260048101879052905192935083926000926001600160a01b03169163d9638d369160248083019260a092919082900301818787803b15801561079657600080fd5b505af11580156107aa573d6000803e3d6000fd5b505050506040513d60a08110156107c057600080fd5b50602001516040805163b5f522f760e01b8152600481018790529051919250600091829182916001600160a01b0387169163b5f522f79160248083019260c0929190829003018186803b15801561081657600080fd5b505afa15801561082a573d6000803e3d6000fd5b505050506040513d60c081101561084057600080fd5b50602081015160408083015160609093015160015460048054845163f24e23eb60e01b81526001600160a01b039182169281018390526024810192909252604482018690529351949850949650909450169163f24e23eb91606480830192600092919082900301818387803b1580156108b857600080fd5b505af11580156108cc573d6000803e3d6000fd5b50505050846001600160a01b03166326e027f1886040518263ffffffff1660e01b815260040180828152602001915050600060405180830381600087803b15801561091657600080fd5b505af115801561092a573d6000803e3d6000fd5b50505050600084848161093957fe5b60008b8152600e60205260409020549190049150610957908261276c565b60008a8152600e60205260408120919091558312801590610979575060008112155b6109b9576040805162461bcd60e51b815260206004820152600c60248201526b456e642f6f766572666c6f7760a01b604482015290519081900360640190fd5b60015460048054604080516301eeacfd60e61b81529283018d90526001600160a01b03868116602485015230604485015291821660648401526084830187905260a4830185905251921691637bab3f409160c48082019260009290919082900301818387803b158015610a2b57600080fd5b505af1158015610a3f573d6000803e3d6000fd5b5050604080518781526020810187905280820185905290516001600160a01b03861693508b92508c917ffc67e20caaffa015d51f696df8ea5c273ba269c69bdc2ec31c1334d01286eaa4919081900360600190a4505050505050505050565b600b54610ae2576040805162461bcd60e51b815260206004820152600d60248201526c456e642f646562742d7a65726f60981b604482015290519081900360640190fd5b6000818152600f602052604090205415610b43576040805162461bcd60e51b815260206004820152601b60248201527f456e642f6669782d696c6b2d616c72656164792d646566696e65640000000000604482015290519081900360640190fd5b60015460408051636cb1c69b60e11b81526004810184905290516000926001600160a01b03169163d9638d369160248083019260a092919082900301818787803b158015610b9057600080fd5b505af1158015610ba4573d6000803e3d6000fd5b505050506040513d60a0811015610bba57600080fd5b506020908101516000848152600e9092526040822054909250610bf590610be19084612782565b6000858152600c6020526040902054612782565b90506b033b2e3c9fd0803ce8000000600b5481610c0e57fe5b04610c41610c2f83600d6000888152602001908152602001600020546127aa565b6b033b2e3c9fd0803ce80000006127ba565b81610c4857fe5b6000858152600f6020526040808220939092049092555184917f8d1d5ae676a6db1f6f14414f8a6c78941bbfb700fe3f3be6d3245f26c2f2d55091a2505050565b6005546001600160a01b031681565b6000828152600c6020526040902054610cf2576040805162461bcd60e51b8152602060048201526017602482015276115b990bdd1859cb5a5b1acb5b9bdd0b5919599a5b9959604a1b604482015290519081900360640190fd5b60025460408051636cb1c69b60e11b81526004810185905290516000926001600160a01b03169163d9638d3691602480830192606092919082900301818787803b158015610d3f57600080fd5b505af1158015610d53573d6000803e3d6000fd5b505050506040513d6060811015610d6957600080fd5b505160015460408051636cb1c69b60e11b815260048101879052905192935083926000926001600160a01b03169163d9638d369160248083019260a092919082900301818787803b158015610dbd57600080fd5b505af1158015610dd1573d6000803e3d6000fd5b505050506040513d60a0811015610de757600080fd5b506020015160408051634423c5f160e01b81526004810187905290519192506000918291829182916001600160a01b03881691634423c5f19160248082019261010092909190829003018186803b158015610e4157600080fd5b505afa158015610e55573d6000803e3d6000fd5b505050506040513d610100811015610e6c57600080fd5b508051602082015160a083015160e090930151600154600480546040805163f24e23eb60e01b81526001600160a01b0392831693810184905260248101939093526044830185905251959a50939850949650909450169163f24e23eb91606480830192600092919082900301818387803b158015610ee957600080fd5b505af1158015610efd573d6000803e3d6000fd5b5050600154600480546040805163f24e23eb60e01b81526001600160a01b0392831693810193909352306024840152604483018a9052519216935063f24e23eb925060648082019260009290919082900301818387803b158015610f6057600080fd5b505af1158015610f74573d6000803e3d6000fd5b5050600154604080516328ec8bf160e21b81526001600160a01b038b81166004830152915191909216935063a3b22fc49250602480830192600092919082900301818387803b158015610fc657600080fd5b505af1158015610fda573d6000803e3d6000fd5b50505050856001600160a01b03166326e027f1896040518263ffffffff1660e01b815260040180828152602001915050600060405180830381600087803b15801561102457600080fd5b505af1158015611038573d6000803e3d6000fd5b50505050600085828161104757fe5b60008c8152600e60205260409020549190049150611065908261276c565b60008b8152600e60205260408120919091558412801590611087575060008112155b6110c7576040805162461bcd60e51b815260206004820152600c60248201526b456e642f6f766572666c6f7760a01b604482015290519081900360640190fd5b60015460048054604080516301eeacfd60e61b81529283018e90526001600160a01b03878116602485015230604485015291821660648401526084830188905260a4830185905251921691637bab3f409160c48082019260009290919082900301818387803b15801561113957600080fd5b505af115801561114d573d6000803e3d6000fd5b5050604080518581526020810188905280820185905290516001600160a01b03871693508c92508d917fbfa2310a8897203a59922debd0db38279196d8de5050df84608e2bb3e7790f69919081900360600190a450505050505050505050565b600854156111f3576040805162461bcd60e51b815260206004820152600e60248201526d456e642f7374696c6c2d6c69766560901b604482015290519081900360640190fd5b600b541561123c576040805162461bcd60e51b8152602060048201526011602482015270456e642f646562742d6e6f742d7a65726f60781b604482015290519081900360640190fd5b6001546004805460408051633612d9a360e11b81526001600160a01b039283169381019390935251921691636c25b34691602480820192602092909190829003018186803b15801561128d57600080fd5b505afa1580156112a1573d6000803e3d6000fd5b505050506040513d60208110156112b757600080fd5b505115611302576040805162461bcd60e51b8152602060048201526014602482015273456e642f737572706c75732d6e6f742d7a65726f60601b604482015290519081900360640190fd5b611310600954600a5461276c565b42101561135c576040805162461bcd60e51b8152602060048201526015602482015274115b990bddd85a5d0b5b9bdd0b599a5b9a5cda1959605a1b604482015290519081900360640190fd5b60015460408051630dca59c160e01b81529051611446926001600160a01b031691630dca59c19160048083019260209291908290030181600087803b1580156113a457600080fd5b505af11580156113b8573d6000803e3d6000fd5b505050506040513d60208110156113ce57600080fd5b5051600754604080516353d700e560e01b815290516001600160a01b03909216916353d700e591600480820192602092909190829003018186803b15801561141557600080fd5b505afa158015611429573d6000803e3d6000fd5b505050506040513d602081101561143f57600080fd5b50516127aa565b600b556040517f4df15159e645ba7d02cadde0bc937abef5ad0134623c00de50a31750b85978b990600090a1565b6004546001600160a01b031681565b600f6020526000908152604090205481565b600a5481565b336000908152602081905260409020546001146114f4576040805162461bcd60e51b8152602060048201526012602482015271115b990bdb9bdd0b585d5d1a1bdc9a5e995960721b604482015290519081900360640190fd5b6001600160a01b03811660008181526020819052604080822060019055517fdd0e34038ac38b2a1ce960229778ac48a8719bc900b6c4f8d0475c6e8b385a609190a250565b33600090815260208190526040902054600114611592576040805162461bcd60e51b8152602060048201526012602482015271115b990bdb9bdd0b585d5d1a1bdc9a5e995960721b604482015290519081900360640190fd5b6008546001146115d8576040805162461bcd60e51b815260206004820152600c60248201526b456e642f6e6f742d6c69766560a01b604482015290519081900360640190fd5b600060088190554260095560015460408051636924500960e01b815290516001600160a01b039092169263692450099260048084019382900301818387803b15801561162357600080fd5b505af1158015611637573d6000803e3d6000fd5b50505050600260009054906101000a90046001600160a01b03166001600160a01b031663692450096040518163ffffffff1660e01b8152600401600060405180830381600087803b15801561168b57600080fd5b505af115801561169f573d6000803e3d6000fd5b50505050600360009054906101000a90046001600160a01b03166001600160a01b031663692450096040518163ffffffff1660e01b8152600401600060405180830381600087803b1580156116f357600080fd5b505af1158015611707573d6000803e3d6000fd5b50506004805460408051636924500960e01b815290516001600160a01b03909216945063692450099350808301926000929182900301818387803b15801561174e57600080fd5b505af1158015611762573d6000803e3d6000fd5b50505050600660009054906101000a90046001600160a01b03166001600160a01b031663692450096040518163ffffffff1660e01b8152600401600060405180830381600087803b1580156117b657600080fd5b505af11580156117ca573d6000803e3d6000fd5b50505050600560009054906101000a90046001600160a01b03166001600160a01b031663692450096040518163ffffffff1660e01b8152600401600060405180830381600087803b15801561181e57600080fd5b505af1158015611832573d6000803e3d6000fd5b50505050600760009054906101000a90046001600160a01b03166001600160a01b031663692450096040518163ffffffff1660e01b8152600401600060405180830381600087803b15801561188657600080fd5b505af115801561189a573d6000803e3d6000fd5b50506040517f2308ed18a14e800c39b86eb6ea43270105955ca385b603b64eca89f98ae8fbda925060009150a1565b600b5461190d576040805162461bcd60e51b815260206004820152600d60248201526c456e642f646562742d7a65726f60981b604482015290519081900360640190fd5b6001546004546001600160a01b039182169163bb35783b9133911661193e856b033b2e3c9fd0803ce80000006127ba565b6040518463ffffffff1660e01b815260040180846001600160a01b03168152602001836001600160a01b031681526020018281526020019350505050600060405180830381600087803b15801561199457600080fd5b505af11580156119a8573d6000803e3d6000fd5b5050336000908152601060205260409020546119c7925090508261276c565b33600081815260106020908152604091829020939093558051848152905191927f47a981d8cbc0f6df64c9be4ce0a423071a088bd46c549bbd11a4d566e031fe0c92918290030190a250565b6006546001600160a01b031681565b6007546001600160a01b031681565b6000828152600c6020526040902054611a8b576040805162461bcd60e51b8152602060048201526017602482015276115b990bdd1859cb5a5b1acb5b9bdd0b5919599a5b9959604a1b604482015290519081900360640190fd5b60015460408051636cb1c69b60e11b81526004810185905290516000926001600160a01b03169163d9638d369160248083019260a092919082900301818787803b158015611ad857600080fd5b505af1158015611aec573d6000803e3d6000fd5b505050506040513d60a0811015611b0257600080fd5b5060200151600154604080516309092f9760e21b8152600481018790526001600160a01b038681166024830152825194955060009485949190911692632424be5c926044808201939182900301818787803b158015611b6057600080fd5b505af1158015611b74573d6000803e3d6000fd5b505050506040513d6040811015611b8a57600080fd5b50805160209091015190925090506000611bbb611ba78386612782565b6000888152600c6020526040902054612782565b90506000611bc984836127de565b6000888152600d6020526040902054909150611bee90611be984846127aa565b61276c565b6000888152600d6020526040902055600160ff1b8111801590611c155750600160ff1b8311155b611c55576040805162461bcd60e51b815260206004820152600c60248201526b456e642f6f766572666c6f7760a01b604482015290519081900360640190fd5b60015460048054604080516301eeacfd60e61b81529283018b90526001600160a01b038a8116602485015230604485015291821660648401526000858103608485015287810360a485015290519190931692637bab3f409260c4808201939182900301818387803b158015611cc957600080fd5b505af1158015611cdd573d6000803e3d6000fd5b50505050856001600160a01b0316877fa05b7b56166c25efbac063da905f9ea6aa1dc5101f95b43c7a838aace979ab598386604051808381526020018281526020019250505060405180910390a350505050505050565b60106020526000908152604090205481565b60085481565b33600090815260208190526040902054600114611da5576040805162461bcd60e51b8152602060048201526012602482015271115b990bdb9bdd0b585d5d1a1bdc9a5e995960721b604482015290519081900360640190fd5b6001600160a01b038116600081815260208190526040808220829055517f184450df2e323acec0ed3b5c7531b81f9b4cdef7914dfd4c0a4317416bb5251b9190a250565b60006020819052908152604090205481565b6003546001600160a01b031681565b60085415611e50576040805162461bcd60e51b815260206004820152600e60248201526d456e642f7374696c6c2d6c69766560901b604482015290519081900360640190fd5b600154604080516309092f9760e21b815260048101849052336024820152815160009384936001600160a01b0390911692632424be5c926044808301939282900301818787803b158015611ea357600080fd5b505af1158015611eb7573d6000803e3d6000fd5b505050506040513d6040811015611ecd57600080fd5b50805160209091015190925090508015611f21576040805162461bcd60e51b815260206004820152601060248201526f456e642f6172742d6e6f742d7a65726f60801b604482015290519081900360640190fd5b600160ff1b821115611f69576040805162461bcd60e51b815260206004820152600c60248201526b456e642f6f766572666c6f7760a01b604482015290519081900360640190fd5b60015460048054604080516301eeacfd60e61b8152928301879052336024840181905260448401526001600160a01b0391821660648401526000868103608485015260a4840181905290519190931692637bab3f409260c4808201939182900301818387803b158015611fdb57600080fd5b505af1158015611fef573d6000803e3d6000fd5b50506040805185815290513393508692507ff26f2b994a5e16f0960958e62541681f9e3e84d4caac2e487d25e0c75243f0d89181900360200190a3505050565b601160209081526000928352604080842090915290825290205481565b336000908152602081905260409020546001146120a5576040805162461bcd60e51b8152602060048201526012602482015271115b990bdb9bdd0b585d5d1a1bdc9a5e995960721b604482015290519081900360640190fd5b6008546001146120eb576040805162461bcd60e51b815260206004820152600c60248201526b456e642f6e6f742d6c69766560a01b604482015290519081900360640190fd5b81621d985d60ea1b141561211957600180546001600160a01b0319166001600160a01b03831617905561222b565b816218d85d60ea1b141561214757600280546001600160a01b0319166001600160a01b03831617905561222b565b8162646f6760e81b141561217557600380546001600160a01b0319166001600160a01b03831617905561222b565b8162766f7760e81b14156121a357600480546001600160a01b0319166001600160a01b03831617905561222b565b81621c1bdd60ea1b14156121d157600580546001600160a01b0319166001600160a01b03831617905561222b565b81631cdc1bdd60e21b141561220057600680546001600160a01b0319166001600160a01b03831617905561222b565b81636375726560e01b14156105db57600780546001600160a01b0319166001600160a01b0383161790555b604080516001600160a01b0383168152905183917f8fef588b5fc1afbf5b2f06c1a435d513f208da2e6704c3d8f0e0ec91167066ba919081900360200190a25050565b600e6020526000908152604090205481565b600854156122c6576040805162461bcd60e51b815260206004820152600e60248201526d456e642f7374696c6c2d6c69766560901b604482015290519081900360640190fd5b6000818152600c602052604090205415612327576040805162461bcd60e51b815260206004820152601b60248201527f456e642f7461672d696c6b2d616c72656164792d646566696e65640000000000604482015290519081900360640190fd5b60015460408051636cb1c69b60e11b81526004810184905290516001600160a01b039092169163d9638d369160248082019260a0929091908290030181600087803b15801561237557600080fd5b505af1158015612389573d6000803e3d6000fd5b505050506040513d60a081101561239f57600080fd5b50516000828152600e6020526040808220929092556006548251636cb1c69b60e11b815260048101859052835192936001600160a01b039092169263d9638d3692602480840193919291829003018186803b1580156123fd57600080fd5b505afa158015612411573d6000803e3d6000fd5b505050506040513d604081101561242757600080fd5b50516006546040805163495d32cb60e01b81529051929350612512926001600160a01b039092169163495d32cb91600480820192602092909190829003018186803b15801561247557600080fd5b505afa158015612489573d6000803e3d6000fd5b505050506040513d602081101561249f57600080fd5b5051604080516315f789a960e21b815290516001600160a01b038516916357de26a4916004808301926020929190829003018186803b1580156124e157600080fd5b505afa1580156124f5573d6000803e3d6000fd5b505050506040513d602081101561250b57600080fd5b50516127f7565b6000838152600c602052604080822092909255905183917f4a9efa0a0e3f548761a6924fe06ac5cb94ecdbc08b10d855bbcc04e37c4910db91a25050565b60095481565b6002546001600160a01b031681565b600d6020526000908152604090205481565b600c6020526000908152604090205481565b6000828152600f60205260409020546125e9576040805162461bcd60e51b815260206004820152601760248201527f456e642f6669782d696c6b2d6e6f742d646566696e6564000000000000000000604482015290519081900360640190fd5b6001546000838152600f60205260409020546001600160a01b0390911690636111be2e9084903090339061261e908790612782565b6040518563ffffffff1660e01b815260040180858152602001846001600160a01b03168152602001836001600160a01b03168152602001828152602001945050505050600060405180830381600087803b15801561267b57600080fd5b505af115801561268f573d6000803e3d6000fd5b50505060008381526011602090815260408083203384529091529020546126b791508261276c565b6000838152601160209081526040808320338452808352818420859055601083529220549190521015612731576040805162461bcd60e51b815260206004820152601c60248201527f456e642f696e73756666696369656e742d6261672d62616c616e636500000000604482015290519081900360640190fd5b604080518281529051339184917f888c7c01b06fd8004523e2bc9a274be1feaa9f03579ae5f568061dac078793c99181900360200190a35050565b8181018281101561277c57600080fd5b92915050565b60006b033b2e3c9fd0803ce800000061279b84846127ba565b816127a257fe5b049392505050565b8082038281111561277c57600080fd5b60008115806127d5575050808202828282816127d257fe5b04145b61277c57600080fd5b6000818311156127ee57816127f0565b825b9392505050565b60008161279b84670de0b6b3a76400006127ba56fea26469706673582212209faf71e4d2868606ea970f794f5e077716ca554d4e5ae96c205e8c074b2e130e64736f6c634300060c0033","linkReferences":{}},"methodIdentifiers":{"Art(bytes32)":"e1340a3d","bag(address)":"9255f809","cage()":"69245009","cage(bytes32)":"e2702fdc","cash(bytes32,uint256)":"fe8507c6","cat()":"e4881813","cure()":"840782ed","debt()":"0dca59c1","deny(address)":"9c52a7f1","dog()":"c3b3ad7f","file(bytes32,address)":"d4e8be83","file(bytes32,uint256)":"29ae8114","fix(bytes32)":"63fad85e","flow(bytes32)":"4a10eaa6","free(bytes32)":"c83062c6","gap(bytes32)":"e6ee62aa","live()":"957aa58c","out(bytes32,address)":"c939ebfc","pack(uint256)":"6ea42555","pot()":"4ba2363a","rely(address)":"65fae35e","skim(bytes32,address)":"89ea45d3","skip(bytes32,uint256)":"503ecf06","snip(bytes32,uint256)":"38c6de40","spot()":"6f265b93","tag(bytes32)":"ee6447b5","thaw()":"5920375c","vat()":"36569e77","vow()":"626cb3c5","wait()":"64bd7013","wards(address)":"bf353dbb","when()":"e2b0caef"},"id":29}