{"abi":[{"type":"constructor","inputs":[{"name":"vat_","type":"address","internalType":"address"}],"stateMutability":"nonpayable"},{"type":"function","name":"bite","inputs":[{"name":"ilk","type":"bytes32","internalType":"bytes32"},{"name":"urn","type":"address","internalType":"address"}],"outputs":[{"name":"id","type":"uint256","internalType":"uint256"}],"stateMutability":"nonpayable"},{"type":"function","name":"box","inputs":[],"outputs":[{"name":"","type":"uint256","internalType":"uint256"}],"stateMutability":"view"},{"type":"function","name":"cage","inputs":[],"outputs":[],"stateMutability":"nonpayable"},{"type":"function","name":"claw","inputs":[{"name":"rad","type":"uint256","internalType":"uint256"}],"outputs":[],"stateMutability":"nonpayable"},{"type":"function","name":"deny","inputs":[{"name":"usr","type":"address","internalType":"address"}],"outputs":[],"stateMutability":"nonpayable"},{"type":"function","name":"file","inputs":[{"name":"ilk","type":"bytes32","internalType":"bytes32"},{"name":"what","type":"bytes32","internalType":"bytes32"},{"name":"data","type":"uint256","internalType":"uint256"}],"outputs":[],"stateMutability":"nonpayable"},{"type":"function","name":"file","inputs":[{"name":"what","type":"bytes32","internalType":"bytes32"},{"name":"data","type":"uint256","internalType":"uint256"}],"outputs":[],"stateMutability":"nonpayable"},{"type":"function","name":"file","inputs":[{"name":"what","type":"bytes32","internalType":"bytes32"},{"name":"data","type":"address","internalType":"address"}],"outputs":[],"stateMutability":"nonpayable"},{"type":"function","name":"file","inputs":[{"name":"ilk","type":"bytes32","internalType":"bytes32"},{"name":"what","type":"bytes32","internalType":"bytes32"},{"name":"flip","type":"address","internalType":"address"}],"outputs":[],"stateMutability":"nonpayable"},{"type":"function","name":"ilks","inputs":[{"name":"","type":"bytes32","internalType":"bytes32"}],"outputs":[{"name":"flip","type":"address","internalType":"address"},{"name":"chop","type":"uint256","internalType":"uint256"},{"name":"dunk","type":"uint256","internalType":"uint256"}],"stateMutability":"view"},{"type":"function","name":"litter","inputs":[],"outputs":[{"name":"","type":"uint256","internalType":"uint256"}],"stateMutability":"view"},{"type":"function","name":"live","inputs":[],"outputs":[{"name":"","type":"uint256","internalType":"uint256"}],"stateMutability":"view"},{"type":"function","name":"rely","inputs":[{"name":"usr","type":"address","internalType":"address"}],"outputs":[],"stateMutability":"nonpayable"},{"type":"function","name":"vat","inputs":[],"outputs":[{"name":"","type":"address","internalType":"contract VatLike"}],"stateMutability":"view"},{"type":"function","name":"vow","inputs":[],"outputs":[{"name":"","type":"address","internalType":"contract VowLike"}],"stateMutability":"view"},{"type":"function","name":"wards","inputs":[{"name":"","type":"address","internalType":"address"}],"outputs":[{"name":"","type":"uint256","internalType":"uint256"}],"stateMutability":"view"},{"type":"event","name":"Bite","inputs":[{"name":"ilk","type":"bytes32","indexed":true,"internalType":"bytes32"},{"name":"urn","type":"address","indexed":true,"internalType":"address"},{"name":"ink","type":"uint256","indexed":false,"internalType":"uint256"},{"name":"art","type":"uint256","indexed":false,"internalType":"uint256"},{"name":"tab","type":"uint256","indexed":false,"internalType":"uint256"},{"name":"flip","type":"address","indexed":false,"internalType":"address"},{"name":"id","type":"uint256","indexed":false,"internalType":"uint256"}],"anonymous":false}],"bytecode":{"object":"0x608060405234801561001057600080fd5b50604051610fc8380380610fc88339818101604052602081101561003357600080fd5b5051336000908152602081905260409020600190819055600380546001600160a01b039093166001600160a01b031990931692909217909155600255610f4a8061007e6000396000f3fe608060405234801561001057600080fd5b50600436106101005760003560e01c8063957aa58c11610097578063d4e8be8311610066578063d4e8be831461024f578063d9638d361461027b578063e66d279b146102c0578063ebecb39d146102dd57610100565b8063957aa58c146101f35780639c52a7f1146101fb578063a4fe8caf14610221578063bf353dbb1461022957610100565b8063626cb3c5116100d3578063626cb3c5146101b557806365fae35e146101bd57806369245009146101e3578063754215a1146101eb57610100565b80631a0b287e1461010557806329ae81141461013057806336569e771461015357806345cf223014610177575b600080fd5b61012e6004803603606081101561011b57600080fd5b508035906020810135906040013561030f565b005b61012e6004803603604081101561014657600080fd5b508035906020013561040b565b61015b61047c565b604080516001600160a01b039092168252519081900360200190f35b6101a36004803603604081101561018d57600080fd5b50803590602001356001600160a01b031661048b565b60408051918252519081900360200190f35b61015b610a8c565b61012e600480360360208110156101d357600080fd5b50356001600160a01b0316610a9b565b61012e610b11565b6101a3610b71565b6101a3610b77565b61012e6004803603602081101561021157600080fd5b50356001600160a01b0316610b7d565b6101a3610bf0565b6101a36004803603602081101561023f57600080fd5b50356001600160a01b0316610bf6565b61012e6004803603604081101561026557600080fd5b50803590602001356001600160a01b0316610c08565b6102986004803603602081101561029157600080fd5b5035610c8f565b604080516001600160a01b039094168452602084019290925282820152519081900360600190f35b61012e600480360360208110156102d657600080fd5b5035610cbb565b61012e600480360360608110156102f357600080fd5b50803590602081013590604001356001600160a01b0316610d26565b33600090815260208190526040902054600114610368576040805162461bcd60e51b815260206004820152601260248201527110d85d0bdb9bdd0b585d5d1a1bdc9a5e995960721b604482015290519081900360640190fd5b8163063686f760e41b141561039157600083815260016020819052604090912001819055610406565b816364756e6b60e01b14156103b9576000838152600160205260409020600201819055610406565b6040805162461bcd60e51b815260206004820152601b60248201527f4361742f66696c652d756e7265636f676e697a65642d706172616d0000000000604482015290519081900360640190fd5b505050565b33600090815260208190526040902054600114610464576040805162461bcd60e51b815260206004820152601260248201527110d85d0bdb9bdd0b585d5d1a1bdc9a5e995960721b604482015290519081900360640190fd5b81620c4def60eb1b14156103b95760058190555b5050565b6003546001600160a01b031681565b60035460408051636cb1c69b60e11b81526004810185905290516000928392839283926001600160a01b03169163d9638d369160248083019260a0929190829003018186803b1580156104dd57600080fd5b505afa1580156104f1573d6000803e3d6000fd5b505050506040513d60a081101561050757600080fd5b50602081015160408083015160809093015160035482516309092f9760e21b8152600481018c90526001600160a01b038b8116602483015284519599509597509195506000948594911692632424be5c9260448082019391829003018186803b15801561057357600080fd5b505afa158015610587573d6000803e3d6000fd5b505050506040513d604081101561059d57600080fd5b50805160209091015160025491935091506001146105f1576040805162461bcd60e51b815260206004820152600c60248201526b4361742f6e6f742d6c69766560a01b604482015290519081900360640190fd5b60008411801561061257506106068186610e88565b6106108386610e88565b105b610654576040805162461bcd60e51b815260206004820152600e60248201526d4361742f6e6f742d756e7361666560901b604482015290519081900360640190fd5b61065c610eea565b506000888152600160208181526040808420815160608101835281546001600160a01b0316815293810154928401929092526002909101549082015260055460065491929182916106ac91610eb2565b90506005546006541080156106c15750858110155b610712576040805162461bcd60e51b815260206004820152601960248201527f4361742f6c69717569646174696f6e2d6c696d69742d68697400000000000000604482015290519081900360640190fd5b6107508484602001518a61073b61072d886040015187610ec2565b670de0b6b3a7640000610e88565b8161074257fe5b048161074a57fe5b04610ec2565b915050600061076b85856107648886610e88565b8161074a57fe5b905060008211801561077d5750600081115b6107c1576040805162461bcd60e51b815260206004820152601060248201526f21b0ba17b73ab63616b0bab1ba34b7b760811b604482015290519081900360640190fd5b600160ff1b82111580156107d95750600160ff1b8111155b610819576040805162461bcd60e51b815260206004820152600c60248201526b4361742f6f766572666c6f7760a01b604482015290519081900360640190fd5b60035460048054604080516301eeacfd60e61b81529283018f90526001600160a01b038e8116602485015230604485015291821660648401526000858103608485015286810360a485015290519190931692637bab3f409260c4808201939182900301818387803b15801561088d57600080fd5b505af11580156108a1573d6000803e3d6000fd5b50506004546001600160a01b0316915063697efb7890506108c2848b610e88565b6040518263ffffffff1660e01b815260040180828152602001915050600060405180830381600087803b1580156108f857600080fd5b505af115801561090c573d6000803e3d6000fd5b505050506000670de0b6b3a7640000610932610928858c610e88565b8660200151610e88565b8161093957fe5b04905061094860065482610eda565b60068190555083600001516001600160a01b031663351de6008c600460009054906101000a90046001600160a01b0316848660006040518663ffffffff1660e01b815260040180866001600160a01b03168152602001856001600160a01b0316815260200184815260200183815260200182815260200195505050505050602060405180830381600087803b1580156109e057600080fd5b505af11580156109f4573d6000803e3d6000fd5b505050506040513d6020811015610a0a57600080fd5b50519950506001600160a01b038a168b7fa716da86bc1fb6d43d1493373f34d7a418b619681cd7b90f7ea667ba1489be288385610a47818e610e88565b8851604080519485526020850193909352838301919091526001600160a01b03166060830152608082018e9052519081900360a00190a3505050505050505092915050565b6004546001600160a01b031681565b33600090815260208190526040902054600114610af4576040805162461bcd60e51b815260206004820152601260248201527110d85d0bdb9bdd0b585d5d1a1bdc9a5e995960721b604482015290519081900360640190fd5b6001600160a01b0316600090815260208190526040902060019055565b33600090815260208190526040902054600114610b6a576040805162461bcd60e51b815260206004820152601260248201527110d85d0bdb9bdd0b585d5d1a1bdc9a5e995960721b604482015290519081900360640190fd5b6000600255565b60055481565b60025481565b33600090815260208190526040902054600114610bd6576040805162461bcd60e51b815260206004820152601260248201527110d85d0bdb9bdd0b585d5d1a1bdc9a5e995960721b604482015290519081900360640190fd5b6001600160a01b0316600090815260208190526040812055565b60065481565b60006020819052908152604090205481565b33600090815260208190526040902054600114610c61576040805162461bcd60e51b815260206004820152601260248201527110d85d0bdb9bdd0b585d5d1a1bdc9a5e995960721b604482015290519081900360640190fd5b8162766f7760e81b14156103b957600480546001600160a01b0319166001600160a01b038316179055610478565b60016020819052600091825260409091208054918101546002909101546001600160a01b039092169183565b33600090815260208190526040902054600114610d14576040805162461bcd60e51b815260206004820152601260248201527110d85d0bdb9bdd0b585d5d1a1bdc9a5e995960721b604482015290519081900360640190fd5b610d2060065482610eb2565b60065550565b33600090815260208190526040902054600114610d7f576040805162461bcd60e51b815260206004820152601260248201527110d85d0bdb9bdd0b585d5d1a1bdc9a5e995960721b604482015290519081900360640190fd5b81630666c69760e41b14156103b957600354600084815260016020526040808220548151636e26907d60e11b81526001600160a01b039182166004820152915193169263dc4d20fa9260248084019391929182900301818387803b158015610de657600080fd5b505af1158015610dfa573d6000803e3d6000fd5b50505060008481526001602052604080822080546001600160a01b0319166001600160a01b0386811691821790925560035483516328ec8bf160e21b81526004810192909252925192909116935063a3b22fc492602480830193919282900301818387803b158015610e6b57600080fd5b505af1158015610e7f573d6000803e3d6000fd5b50505050610406565b6000811580610ea357505080820282828281610ea057fe5b04145b610eac57600080fd5b92915050565b80820382811115610eac57600080fd5b600081831115610ed3575080610eac565b5090919050565b80820182811015610eac57600080fd5b604051806060016040528060006001600160a01b031681526020016000815260200160008152509056fea2646970667358221220b8f6e61ce76859b89252a92ba8dfbac8f5056e2a9ae9a8512a6d148bc7c6ae4764736f6c634300060c0033","linkReferences":{}},"methodIdentifiers":{"bite(bytes32,address)":"45cf2230","box()":"754215a1","cage()":"69245009","claw(uint256)":"e66d279b","deny(address)":"9c52a7f1","file(bytes32,address)":"d4e8be83","file(bytes32,bytes32,address)":"ebecb39d","file(bytes32,bytes32,uint256)":"1a0b287e","file(bytes32,uint256)":"29ae8114","ilks(bytes32)":"d9638d36","litter()":"a4fe8caf","live()":"957aa58c","rely(address)":"65fae35e","vat()":"36569e77","vow()":"626cb3c5","wards(address)":"bf353dbb"},"id":24}