{"abi":[{"type":"constructor","inputs":[],"stateMutability":"nonpayable"},{"type":"function","name":"deny","inputs":[{"name":"usr","type":"address","internalType":"address"}],"outputs":[],"stateMutability":"nonpayable"},{"type":"function","name":"file","inputs":[{"name":"what","type":"bytes32","internalType":"bytes32"},{"name":"data","type":"uint256","internalType":"uint256"}],"outputs":[],"stateMutability":"nonpayable"},{"type":"function","name":"price","inputs":[{"name":"top","type":"uint256","internalType":"uint256"},{"name":"dur","type":"uint256","internalType":"uint256"}],"outputs":[{"name":"","type":"uint256","internalType":"uint256"}],"stateMutability":"view"},{"type":"function","name":"rely","inputs":[{"name":"usr","type":"address","internalType":"address"}],"outputs":[],"stateMutability":"nonpayable"},{"type":"function","name":"tau","inputs":[],"outputs":[{"name":"","type":"uint256","internalType":"uint256"}],"stateMutability":"view"},{"type":"function","name":"wards","inputs":[{"name":"","type":"address","internalType":"address"}],"outputs":[{"name":"","type":"uint256","internalType":"uint256"}],"stateMutability":"view"},{"type":"event","name":"Deny","inputs":[{"name":"usr","type":"address","indexed":true,"internalType":"address"}],"anonymous":false},{"type":"event","name":"File","inputs":[{"name":"what","type":"bytes32","indexed":true,"internalType":"bytes32"},{"name":"data","type":"uint256","indexed":false,"internalType":"uint256"}],"anonymous":false},{"type":"event","name":"Rely","inputs":[{"name":"usr","type":"address","indexed":true,"internalType":"address"}],"anonymous":false}],"bytecode":{"object":"0x608060405234801561001057600080fd5b503360008181526020819052604080822060019055517fdd0e34038ac38b2a1ce960229778ac48a8719bc900b6c4f8d0475c6e8b385a609190a2610491806100596000396000f3fe608060405234801561001057600080fd5b50600436106100625760003560e01c806329ae811414610067578063487a23951461008c57806365fae35e146100c15780639c52a7f1146100e7578063bf353dbb1461010d578063cfc4af5514610133575b600080fd5b61008a6004803603604081101561007d57600080fd5b508035906020013561013b565b005b6100af600480360360408110156100a257600080fd5b5080359060200135610228565b60408051918252519081900360200190f35b61008a600480360360208110156100d757600080fd5b50356001600160a01b0316610272565b61008a600480360360208110156100fd57600080fd5b50356001600160a01b031661031b565b6100af6004803603602081101561012357600080fd5b50356001600160a01b03166103c3565b6100af6103d5565b3360009081526020819052604090205460011461019f576040805162461bcd60e51b815260206004820152601d60248201527f4c696e65617244656372656173652f6e6f742d617574686f72697a6564000000604482015290519081900360640190fd5b816274617560e81b14156101b75760018190556101ee565b60405162461bcd60e51b81526004018080602001828103825260268152602001806104366026913960400191505060405180910390fd5b60408051828152905183917fe986e40cc8c151830d4f61050f4fb2e4add8567caad2d5f5496f9158e91fe4c7919081900360200190a25050565b6000600154821061023b5750600061026c565b6102698360015461025c85600154036b033b2e3c9fd0803ce80000006103db565b8161026357fe5b046103ff565b90505b92915050565b336000908152602081905260409020546001146102d6576040805162461bcd60e51b815260206004820152601d60248201527f4c696e65617244656372656173652f6e6f742d617574686f72697a6564000000604482015290519081900360640190fd5b6001600160a01b03811660008181526020819052604080822060019055517fdd0e34038ac38b2a1ce960229778ac48a8719bc900b6c4f8d0475c6e8b385a609190a250565b3360009081526020819052604090205460011461037f576040805162461bcd60e51b815260206004820152601d60248201527f4c696e65617244656372656173652f6e6f742d617574686f72697a6564000000604482015290519081900360640190fd5b6001600160a01b038116600081815260208190526040808220829055517f184450df2e323acec0ed3b5c7531b81f9b4cdef7914dfd4c0a4317416bb5251b9190a250565b60006020819052908152604090205481565b60015481565b60008115806103f6575050808202828282816103f357fe5b04145b61026c57600080fd5b81810281158061041757508282828161041457fe5b04145b61042057600080fd5b6b033b2e3c9fd0803ce800000090049291505056fe4c696e65617244656372656173652f66696c652d756e7265636f676e697a65642d706172616da264697066735822122029998f11f4ab98e3f418fd0a1a75362149360e5a36e0b54b0cebecd24f96ee8a64736f6c634300060c0033","linkReferences":{}},"methodIdentifiers":{"deny(address)":"9c52a7f1","file(bytes32,uint256)":"29ae8114","price(uint256,uint256)":"487a2395","rely(address)":"65fae35e","tau()":"cfc4af55","wards(address)":"bf353dbb"},"id":22}