{"abi":[{"type":"constructor","inputs":[],"stateMutability":"nonpayable"},{"type":"function","name":"cut","inputs":[],"outputs":[{"name":"","type":"uint256","internalType":"uint256"}],"stateMutability":"view"},{"type":"function","name":"deny","inputs":[{"name":"usr","type":"address","internalType":"address"}],"outputs":[],"stateMutability":"nonpayable"},{"type":"function","name":"file","inputs":[{"name":"what","type":"bytes32","internalType":"bytes32"},{"name":"data","type":"uint256","internalType":"uint256"}],"outputs":[],"stateMutability":"nonpayable"},{"type":"function","name":"price","inputs":[{"name":"top","type":"uint256","internalType":"uint256"},{"name":"dur","type":"uint256","internalType":"uint256"}],"outputs":[{"name":"","type":"uint256","internalType":"uint256"}],"stateMutability":"view"},{"type":"function","name":"rely","inputs":[{"name":"usr","type":"address","internalType":"address"}],"outputs":[],"stateMutability":"nonpayable"},{"type":"function","name":"step","inputs":[],"outputs":[{"name":"","type":"uint256","internalType":"uint256"}],"stateMutability":"view"},{"type":"function","name":"wards","inputs":[{"name":"","type":"address","internalType":"address"}],"outputs":[{"name":"","type":"uint256","internalType":"uint256"}],"stateMutability":"view"},{"type":"event","name":"Deny","inputs":[{"name":"usr","type":"address","indexed":true,"internalType":"address"}],"anonymous":false},{"type":"event","name":"File","inputs":[{"name":"what","type":"bytes32","indexed":true,"internalType":"bytes32"},{"name":"data","type":"uint256","indexed":false,"internalType":"uint256"}],"anonymous":false},{"type":"event","name":"Rely","inputs":[{"name":"usr","type":"address","indexed":true,"internalType":"address"}],"anonymous":false}],"bytecode":{"object":"0x608060405234801561001057600080fd5b503360008181526020819052604080822060019055517fdd0e34038ac38b2a1ce960229778ac48a8719bc900b6c4f8d0475c6e8b385a609190a26105c2806100596000396000f3fe608060405234801561001057600080fd5b506004361061007d5760003560e01c80639c52a7f11161005b5780639c52a7f114610102578063bf353dbb14610128578063e25fe1751461014e578063e6fd604c146101565761007d565b806329ae811414610082578063487a2395146100a757806365fae35e146100dc575b600080fd5b6100a56004803603604081101561009857600080fd5b508035906020013561015e565b005b6100ca600480360360408110156100bd57600080fd5b5080359060200135610299565b60408051918252519081900360200190f35b6100a5600480360360208110156100f257600080fd5b50356001600160a01b03166102cf565b6100a56004803603602081101561011857600080fd5b50356001600160a01b0316610362565b6100ca6004803603602081101561013e57600080fd5b50356001600160a01b03166103f4565b6100ca610406565b6100ca61040c565b336000908152602081905260409020546001146101ac5760405162461bcd60e51b815260040180806020018281038252602b815260200180610507602b913960400191505060405180910390fd5b816218dd5d60ea1b141561020f576b033b2e3c9fd0803ce8000000816002819055111561020a5760405162461bcd60e51b81526004018080602001828103825260278152602001806105326027913960400191505060405180910390fd5b61025f565b81630737465760e41b141561022857600181905561025f565b60405162461bcd60e51b81526004018080602001828103825260348152602001806105596034913960400191505060405180910390fd5b60408051828152905183917fe986e40cc8c151830d4f61050f4fb2e4add8567caad2d5f5496f9158e91fe4c7919081900360200190a25050565b60006102c8836102c360025460015486816102b057fe5b046b033b2e3c9fd0803ce8000000610412565b6104d0565b9392505050565b3360009081526020819052604090205460011461031d5760405162461bcd60e51b815260040180806020018281038252602b815260200180610507602b913960400191505060405180910390fd5b6001600160a01b03811660008181526020819052604080822060019055517fdd0e34038ac38b2a1ce960229778ac48a8719bc900b6c4f8d0475c6e8b385a609190a250565b336000908152602081905260409020546001146103b05760405162461bcd60e51b815260040180806020018281038252602b815260200180610507602b913960400191505060405180910390fd5b6001600160a01b038116600081815260208190526040808220829055517f184450df2e323acec0ed3b5c7531b81f9b4cdef7914dfd4c0a4317416bb5251b9190a250565b60006020819052908152604090205481565b60015481565b60025481565b60008280156104c4578480156104b95760018516801561043457869350610438565b8493505b50600284046002860495505b85156104b3578687028760801c1561045b57600080fd5b8181018181101561046b57600080fd5b86900497505060018616156104a857868402848882041415881515161561049157600080fd5b818101818110156104a157600080fd5b8690049450505b600286049550610444565b506104be565b600092505b506104c8565b8291505b509392505050565b8181028115806104e85750828282816104e557fe5b04145b6104f157600080fd5b6b033b2e3c9fd0803ce800000090049291505056fe5374616972737465704578706f6e656e7469616c44656372656173652f6e6f742d617574686f72697a65645374616972737465704578706f6e656e7469616c44656372656173652f6375742d67742d5241595374616972737465704578706f6e656e7469616c44656372656173652f66696c652d756e7265636f676e697a65642d706172616da26469706673582212205e2cde6598c25db2e50f9950f3345c4940a220fc67e2a9eebaa0179a09f7045c64736f6c634300060c0033","linkReferences":{}},"methodIdentifiers":{"cut()":"e6fd604c","deny(address)":"9c52a7f1","file(bytes32,uint256)":"29ae8114","price(uint256,uint256)":"487a2395","rely(address)":"65fae35e","step()":"e25fe175","wards(address)":"bf353dbb"},"id":22}