{"abi":[{"type":"constructor","inputs":[{"name":"vat_","type":"address","internalType":"address"}],"stateMutability":"nonpayable"},{"type":"function","name":"base","inputs":[],"outputs":[{"name":"","type":"uint256","internalType":"uint256"}],"stateMutability":"view"},{"type":"function","name":"deny","inputs":[{"name":"usr","type":"address","internalType":"address"}],"outputs":[],"stateMutability":"nonpayable"},{"type":"function","name":"drip","inputs":[{"name":"ilk","type":"bytes32","internalType":"bytes32"}],"outputs":[{"name":"rate","type":"uint256","internalType":"uint256"}],"stateMutability":"nonpayable"},{"type":"function","name":"file","inputs":[{"name":"ilk","type":"bytes32","internalType":"bytes32"},{"name":"what","type":"bytes32","internalType":"bytes32"},{"name":"data","type":"uint256","internalType":"uint256"}],"outputs":[],"stateMutability":"nonpayable"},{"type":"function","name":"file","inputs":[{"name":"what","type":"bytes32","internalType":"bytes32"},{"name":"data","type":"uint256","internalType":"uint256"}],"outputs":[],"stateMutability":"nonpayable"},{"type":"function","name":"file","inputs":[{"name":"what","type":"bytes32","internalType":"bytes32"},{"name":"data","type":"address","internalType":"address"}],"outputs":[],"stateMutability":"nonpayable"},{"type":"function","name":"ilks","inputs":[{"name":"","type":"bytes32","internalType":"bytes32"}],"outputs":[{"name":"duty","type":"uint256","internalType":"uint256"},{"name":"rho","type":"uint256","internalType":"uint256"}],"stateMutability":"view"},{"type":"function","name":"init","inputs":[{"name":"ilk","type":"bytes32","internalType":"bytes32"}],"outputs":[],"stateMutability":"nonpayable"},{"type":"function","name":"rely","inputs":[{"name":"usr","type":"address","internalType":"address"}],"outputs":[],"stateMutability":"nonpayable"},{"type":"function","name":"vat","inputs":[],"outputs":[{"name":"","type":"address","internalType":"contract VatLike"}],"stateMutability":"view"},{"type":"function","name":"vow","inputs":[],"outputs":[{"name":"","type":"address","internalType":"address"}],"stateMutability":"view"},{"type":"function","name":"wards","inputs":[{"name":"","type":"address","internalType":"address"}],"outputs":[{"name":"","type":"uint256","internalType":"uint256"}],"stateMutability":"view"}],"bytecode":{"object":"0x608060405234801561001057600080fd5b50604051610a29380380610a298339818101604052602081101561003357600080fd5b505133600090815260208190526040902060019055600280546001600160a01b039092166001600160a01b03199092169190911790556109b1806100786000396000f3fe608060405234801561001057600080fd5b50600436106100b45760003560e01c8063626cb3c511610071578063626cb3c51461017f57806365fae35e146101875780639c52a7f1146101ad578063bf353dbb146101d3578063d4e8be83146101f9578063d9638d3614610225576100b4565b80631a0b287e146100b957806329ae8114146100e457806336569e77146101075780633b6631951461012b57806344e2a5a8146101485780635001f3b514610177575b600080fd5b6100e2600480360360608110156100cf57600080fd5b508035906020810135906040013561025b565b005b6100e2600480360360408110156100fa57600080fd5b5080359060200135610387565b61010f6103f9565b604080516001600160a01b039092168252519081900360200190f35b6100e26004803603602081101561014157600080fd5b5035610408565b6101656004803603602081101561015e57600080fd5b50356104d3565b60408051918252519081900360200190f35b6101656106a3565b61010f6106a9565b6100e26004803603602081101561019d57600080fd5b50356001600160a01b03166106b8565b6100e2600480360360208110156101c357600080fd5b50356001600160a01b031661072e565b610165600480360360208110156101e957600080fd5b50356001600160a01b03166107a1565b6100e26004803603604081101561020f57600080fd5b50803590602001356001600160a01b03166107b3565b6102426004803603602081101561023b57600080fd5b503561083a565b6040805192835260208301919091528051918290030190f35b336000908152602081905260409020546001146102b4576040805162461bcd60e51b8152602060048201526012602482015271129d59cbdb9bdd0b585d5d1a1bdc9a5e995960721b604482015290519081900360640190fd5b600083815260016020819052604090912001544214610310576040805162461bcd60e51b8152602060048201526013602482015272129d59cbdc9a1bcb5b9bdd0b5d5c19185d1959606a1b604482015290519081900360640190fd5b81636475747960e01b1415610335576000838152600160205260409020819055610382565b6040805162461bcd60e51b815260206004820152601b60248201527f4a75672f66696c652d756e7265636f676e697a65642d706172616d0000000000604482015290519081900360640190fd5b505050565b336000908152602081905260409020546001146103e0576040805162461bcd60e51b8152602060048201526012602482015271129d59cbdb9bdd0b585d5d1a1bdc9a5e995960721b604482015290519081900360640190fd5b81636261736560e01b14156103355760048190555b5050565b6002546001600160a01b031681565b33600090815260208190526040902054600114610461576040805162461bcd60e51b8152602060048201526012602482015271129d59cbdb9bdd0b585d5d1a1bdc9a5e995960721b604482015290519081900360640190fd5b60008181526001602052604090208054156104ba576040805162461bcd60e51b8152602060048201526014602482015273129d59cbda5b1acb585b1c9958591e4b5a5b9a5d60621b604482015290519081900360640190fd5b6b033b2e3c9fd0803ce800000081554260019091015550565b60008181526001602081905260408220015442101561052b576040805162461bcd60e51b815260206004820152600f60248201526e4a75672f696e76616c69642d6e6f7760881b604482015290519081900360640190fd5b60025460408051636cb1c69b60e11b81526004810185905281516000936001600160a01b03169263d9638d36926024808201939182900301818787803b15801561057457600080fd5b505af1158015610588573d6000803e3d6000fd5b505050506040513d604081101561059e57600080fd5b50602090810151600454600086815260019093526040909220549092506105fa916105f4916105cd9190610853565b6000868152600160208190526040909120015442036b033b2e3c9fd0803ce8000000610869565b82610927565b6002546003549193506001600160a01b039081169163b65337df91869116610622868661095d565b6040518463ffffffff1660e01b815260040180848152602001836001600160a01b031681526020018281526020019350505050600060405180830381600087803b15801561066f57600080fd5b505af1158015610683573d6000803e3d6000fd5b505050600093845250506001602081905260409092204292019190915590565b60045481565b6003546001600160a01b031681565b33600090815260208190526040902054600114610711576040805162461bcd60e51b8152602060048201526012602482015271129d59cbdb9bdd0b585d5d1a1bdc9a5e995960721b604482015290519081900360640190fd5b6001600160a01b0316600090815260208190526040902060019055565b33600090815260208190526040902054600114610787576040805162461bcd60e51b8152602060048201526012602482015271129d59cbdb9bdd0b585d5d1a1bdc9a5e995960721b604482015290519081900360640190fd5b6001600160a01b0316600090815260208190526040812055565b60006020819052908152604090205481565b3360009081526020819052604090205460011461080c576040805162461bcd60e51b8152602060048201526012602482015271129d59cbdb9bdd0b585d5d1a1bdc9a5e995960721b604482015290519081900360640190fd5b8162766f7760e81b141561033557600380546001600160a01b0319166001600160a01b0383161790556103f5565b6001602081905260009182526040909120805491015482565b8181018281101561086357600080fd5b92915050565b60008380156109095760018416801561088457859250610888565b8392505b50600283046002850494505b84156109035785860286878204146108ab57600080fd5b818101818110156108bb57600080fd5b85900496505060018516156108f85785830283878204141587151516156108e157600080fd5b818101818110156108f157600080fd5b8590049350505b600285049450610894565b5061091f565b838015610919576000925061091d565b8392505b505b509392505050565b81810281158061093f57508282828161093c57fe5b04145b61094857600080fd5b6b033b2e3c9fd0803ce8000000900492915050565b80820360008312801590610972575060008212155b61086357600080fdfea2646970667358221220b7b00c4652fc670e370a25690fe44f820e6ec96e6ae7866f980828d7dcdd2d8264736f6c634300060c0033","linkReferences":{}},"methodIdentifiers":{"base()":"5001f3b5","deny(address)":"9c52a7f1","drip(bytes32)":"44e2a5a8","file(bytes32,address)":"d4e8be83","file(bytes32,bytes32,uint256)":"1a0b287e","file(bytes32,uint256)":"29ae8114","ilks(bytes32)":"d9638d36","init(bytes32)":"3b663195","rely(address)":"65fae35e","vat()":"36569e77","vow()":"626cb3c5","wards(address)":"bf353dbb"},"id":34}