{"abi":[{"type":"constructor","inputs":[{"name":"vat_","type":"address","internalType":"address"}],"stateMutability":"nonpayable"},{"type":"function","name":"Pie","inputs":[],"outputs":[{"name":"","type":"uint256","internalType":"uint256"}],"stateMutability":"view"},{"type":"function","name":"cage","inputs":[],"outputs":[],"stateMutability":"nonpayable"},{"type":"function","name":"chi","inputs":[],"outputs":[{"name":"","type":"uint256","internalType":"uint256"}],"stateMutability":"view"},{"type":"function","name":"deny","inputs":[{"name":"guy","type":"address","internalType":"address"}],"outputs":[],"stateMutability":"nonpayable"},{"type":"function","name":"drip","inputs":[],"outputs":[{"name":"tmp","type":"uint256","internalType":"uint256"}],"stateMutability":"nonpayable"},{"type":"function","name":"dsr","inputs":[],"outputs":[{"name":"","type":"uint256","internalType":"uint256"}],"stateMutability":"view"},{"type":"function","name":"exit","inputs":[{"name":"wad","type":"uint256","internalType":"uint256"}],"outputs":[],"stateMutability":"nonpayable"},{"type":"function","name":"file","inputs":[{"name":"what","type":"bytes32","internalType":"bytes32"},{"name":"data","type":"uint256","internalType":"uint256"}],"outputs":[],"stateMutability":"nonpayable"},{"type":"function","name":"file","inputs":[{"name":"what","type":"bytes32","internalType":"bytes32"},{"name":"addr","type":"address","internalType":"address"}],"outputs":[],"stateMutability":"nonpayable"},{"type":"function","name":"join","inputs":[{"name":"wad","type":"uint256","internalType":"uint256"}],"outputs":[],"stateMutability":"nonpayable"},{"type":"function","name":"live","inputs":[],"outputs":[{"name":"","type":"uint256","internalType":"uint256"}],"stateMutability":"view"},{"type":"function","name":"pie","inputs":[{"name":"","type":"address","internalType":"address"}],"outputs":[{"name":"","type":"uint256","internalType":"uint256"}],"stateMutability":"view"},{"type":"function","name":"rely","inputs":[{"name":"guy","type":"address","internalType":"address"}],"outputs":[],"stateMutability":"nonpayable"},{"type":"function","name":"rho","inputs":[],"outputs":[{"name":"","type":"uint256","internalType":"uint256"}],"stateMutability":"view"},{"type":"function","name":"vat","inputs":[],"outputs":[{"name":"","type":"address","internalType":"contract VatLike"}],"stateMutability":"view"},{"type":"function","name":"vow","inputs":[],"outputs":[{"name":"","type":"address","internalType":"address"}],"stateMutability":"view"},{"type":"function","name":"wards","inputs":[{"name":"","type":"address","internalType":"address"}],"outputs":[{"name":"","type":"uint256","internalType":"uint256"}],"stateMutability":"view"}],"bytecode":{"object":"0x608060405234801561001057600080fd5b50604051610ae3380380610ae38339818101604052602081101561003357600080fd5b5051336000908152602081905260409020600190819055600580546001600160a01b039093166001600160a01b0319909316929092179091556b033b2e3c9fd0803ce8000000600381905560045542600755600855610a4c806100976000396000f3fe608060405234801561001057600080fd5b506004361061010b5760003560e01c806365fae35e116100a25780639c52a7f1116100715780639c52a7f1146102215780639f678cca14610247578063bf353dbb1461024f578063c92aecc414610275578063d4e8be831461027d5761010b565b806365fae35e146101ce57806369245009146101f45780637f8661a1146101fc578063957aa58c146102195761010b565b80632c69ed58116100de5780632c69ed581461019257806336569e771461019a578063487bf082146101be578063626cb3c5146101c65761010b565b8063049878f3146101105780630bebac861461012f57806320aba08b1461016757806329ae81141461016f575b600080fd5b61012d6004803603602081101561012657600080fd5b50356102a9565b005b6101556004803603602081101561014557600080fd5b50356001600160a01b03166103c6565b60408051918252519081900360200190f35b6101556103d8565b61012d6004803603604081101561018557600080fd5b50803590602001356103de565b610155610532565b6101a2610538565b604080516001600160a01b039092168252519081900360200190f35b610155610547565b6101a261054d565b61012d600480360360208110156101e457600080fd5b50356001600160a01b031661055c565b61012d6105d2565b61012d6004803603602081101561021257600080fd5b5035610642565b6101556106a2565b61012d6004803603602081101561023757600080fd5b50356001600160a01b03166106a8565b61015561071b565b6101556004803603602081101561026557600080fd5b50356001600160a01b0316610847565b610155610859565b61012d6004803603604081101561029357600080fd5b50803590602001356001600160a01b031661085f565b60075442146102f5576040805162461bcd60e51b8152602060048201526013602482015272141bdd0bdc9a1bcb5b9bdd0b5d5c19185d1959606a1b604482015290519081900360640190fd5b3360009081526001602052604090205461030f90826108e6565b3360009081526001602052604090205560025461032c90826108e6565b6002556005546004546001600160a01b039091169063bb35783b903390309061035590866108fc565b6040518463ffffffff1660e01b815260040180846001600160a01b03168152602001836001600160a01b031681526020018281526020019350505050600060405180830381600087803b1580156103ab57600080fd5b505af11580156103bf573d6000803e3d6000fd5b5050505050565b60016020526000908152604090205481565b60075481565b33600090815260208190526040902054600114610437576040805162461bcd60e51b8152602060048201526012602482015271141bdd0bdb9bdd0b585d5d1a1bdc9a5e995960721b604482015290519081900360640190fd5b60085460011461047d576040805162461bcd60e51b815260206004820152600c60248201526b506f742f6e6f742d6c69766560a01b604482015290519081900360640190fd5b60075442146104c9576040805162461bcd60e51b8152602060048201526013602482015272141bdd0bdc9a1bcb5b9bdd0b5d5c19185d1959606a1b604482015290519081900360640190fd5b81623239b960e91b14156104e157600381905561052e565b6040805162461bcd60e51b815260206004820152601b60248201527f506f742f66696c652d756e7265636f676e697a65642d706172616d0000000000604482015290519081900360640190fd5b5050565b60025481565b6005546001600160a01b031681565b60035481565b6006546001600160a01b031681565b336000908152602081905260409020546001146105b5576040805162461bcd60e51b8152602060048201526012602482015271141bdd0bdb9bdd0b585d5d1a1bdc9a5e995960721b604482015290519081900360640190fd5b6001600160a01b0316600090815260208190526040902060019055565b3360009081526020819052604090205460011461062b576040805162461bcd60e51b8152602060048201526012602482015271141bdd0bdb9bdd0b585d5d1a1bdc9a5e995960721b604482015290519081900360640190fd5b60006008556b033b2e3c9fd0803ce8000000600355565b3360009081526001602052604090205461065c9082610920565b336000908152600160205260409020556002546106799082610920565b6002556005546004546001600160a01b039091169063bb35783b903090339061035590866108fc565b60085481565b33600090815260208190526040902054600114610701576040805162461bcd60e51b8152602060048201526012602482015271141bdd0bdb9bdd0b585d5d1a1bdc9a5e995960721b604482015290519081900360640190fd5b6001600160a01b0316600090815260208190526040812055565b6000600754421015610766576040805162461bcd60e51b815260206004820152600f60248201526e506f742f696e76616c69642d6e6f7760881b604482015290519081900360640190fd5b61078e61078660035460075442036b033b2e3c9fd0803ce8000000610930565b6004546109ee565b9050600061079e82600454610920565b6004839055426007556005546006546002549293506001600160a01b039182169263f24e23eb929091169030906107d590866108fc565b6040518463ffffffff1660e01b815260040180846001600160a01b03168152602001836001600160a01b031681526020018281526020019350505050600060405180830381600087803b15801561082b57600080fd5b505af115801561083f573d6000803e3d6000fd5b505050505090565b60006020819052908152604090205481565b60045481565b336000908152602081905260409020546001146108b8576040805162461bcd60e51b8152602060048201526012602482015271141bdd0bdb9bdd0b585d5d1a1bdc9a5e995960721b604482015290519081900360640190fd5b8162766f7760e81b14156104e157600680546001600160a01b0319166001600160a01b03831617905561052e565b808201828110156108f657600080fd5b92915050565b60008115806109175750508082028282828161091457fe5b04145b6108f657600080fd5b808203828111156108f657600080fd5b60008380156109d05760018416801561094b5785925061094f565b8392505b50600283046002850494505b84156109ca57858602868782041461097257600080fd5b8181018181101561098257600080fd5b85900496505060018516156109bf5785830283878204141587151516156109a857600080fd5b818101818110156109b857600080fd5b8590049350505b60028504945061095b565b506109e6565b8380156109e057600092506109e4565b8392505b505b509392505050565b60006b033b2e3c9fd0803ce8000000610a0784846108fc565b81610a0e57fe5b04939250505056fea264697066735822122048189e69569474f8b8fa9b0ec15d038535c9e8be2966416388d660e107fa3f2d64736f6c634300060c0033","linkReferences":{}},"methodIdentifiers":{"Pie()":"2c69ed58","cage()":"69245009","chi()":"c92aecc4","deny(address)":"9c52a7f1","drip()":"9f678cca","dsr()":"487bf082","exit(uint256)":"7f8661a1","file(bytes32,address)":"d4e8be83","file(bytes32,uint256)":"29ae8114","join(uint256)":"049878f3","live()":"957aa58c","pie(address)":"0bebac86","rely(address)":"65fae35e","rho()":"20aba08b","vat()":"36569e77","vow()":"626cb3c5","wards(address)":"bf353dbb"},"id":36}