{"abi":[{"type":"constructor","inputs":[{"name":"vat_","type":"address","internalType":"address"}],"stateMutability":"nonpayable"},{"type":"function","name":"cage","inputs":[],"outputs":[],"stateMutability":"nonpayable"},{"type":"function","name":"deny","inputs":[{"name":"guy","type":"address","internalType":"address"}],"outputs":[],"stateMutability":"nonpayable"},{"type":"function","name":"file","inputs":[{"name":"ilk","type":"bytes32","internalType":"bytes32"},{"name":"what","type":"bytes32","internalType":"bytes32"},{"name":"data","type":"uint256","internalType":"uint256"}],"outputs":[],"stateMutability":"nonpayable"},{"type":"function","name":"file","inputs":[{"name":"what","type":"bytes32","internalType":"bytes32"},{"name":"data","type":"uint256","internalType":"uint256"}],"outputs":[],"stateMutability":"nonpayable"},{"type":"function","name":"file","inputs":[{"name":"ilk","type":"bytes32","internalType":"bytes32"},{"name":"what","type":"bytes32","internalType":"bytes32"},{"name":"pip_","type":"address","internalType":"address"}],"outputs":[],"stateMutability":"nonpayable"},{"type":"function","name":"ilks","inputs":[{"name":"","type":"bytes32","internalType":"bytes32"}],"outputs":[{"name":"pip","type":"address","internalType":"contract PipLike"},{"name":"mat","type":"uint256","internalType":"uint256"}],"stateMutability":"view"},{"type":"function","name":"live","inputs":[],"outputs":[{"name":"","type":"uint256","internalType":"uint256"}],"stateMutability":"view"},{"type":"function","name":"par","inputs":[],"outputs":[{"name":"","type":"uint256","internalType":"uint256"}],"stateMutability":"view"},{"type":"function","name":"poke","inputs":[{"name":"ilk","type":"bytes32","internalType":"bytes32"}],"outputs":[],"stateMutability":"nonpayable"},{"type":"function","name":"rely","inputs":[{"name":"guy","type":"address","internalType":"address"}],"outputs":[],"stateMutability":"nonpayable"},{"type":"function","name":"vat","inputs":[],"outputs":[{"name":"","type":"address","internalType":"contract VatLike"}],"stateMutability":"view"},{"type":"function","name":"wards","inputs":[{"name":"","type":"address","internalType":"address"}],"outputs":[{"name":"","type":"uint256","internalType":"uint256"}],"stateMutability":"view"},{"type":"event","name":"Poke","inputs":[{"name":"ilk","type":"bytes32","indexed":false,"internalType":"bytes32"},{"name":"val","type":"bytes32","indexed":false,"internalType":"bytes32"},{"name":"spot","type":"uint256","indexed":false,"internalType":"uint256"}],"anonymous":false}],"bytecode":{"object":"0x608060405234801561001057600080fd5b506040516109393803806109398339818101604052602081101561003357600080fd5b5051336000908152602081905260409020600190819055600280546001600160a01b039093166001600160a01b0319909316929092179091556b033b2e3c9fd0803ce80000006003556004556108ab8061008e6000396000f3fe608060405234801561001057600080fd5b50600436106100b45760003560e01c806369245009116100715780636924500914610188578063957aa58c146101905780639c52a7f114610198578063bf353dbb146101be578063d9638d36146101e4578063ebecb39d14610224576100b4565b80631504460f146100b95780631a0b287e146100d857806329ae81141461010157806336569e7714610124578063495d32cb1461014857806365fae35e14610162575b600080fd5b6100d6600480360360208110156100cf57600080fd5b5035610256565b005b6100d6600480360360608110156100ee57600080fd5b50803590602081013590604001356103e1565b6100d66004803603604081101561011757600080fd5b50803590602001356104f7565b61012c6105a7565b604080516001600160a01b039092168252519081900360200190f35b6101506105b6565b60408051918252519081900360200190f35b6100d66004803603602081101561017857600080fd5b50356001600160a01b03166105bc565b6100d661062b565b610150610684565b6100d6600480360360208110156101ae57600080fd5b50356001600160a01b031661068a565b610150600480360360208110156101d457600080fd5b50356001600160a01b03166106f6565b610201600480360360208110156101fa57600080fd5b5035610708565b604080516001600160a01b03909316835260208301919091528051918290030190f35b6100d66004803603606081101561023a57600080fd5b50803590602081013590604001356001600160a01b031661072d565b6000818152600160205260408082205481516359e02dd760e01b8152825184936001600160a01b03909316926359e02dd7926004808201939182900301818787803b1580156102a457600080fd5b505af11580156102b8573d6000803e3d6000fd5b505050506040513d60408110156102ce57600080fd5b50805160209091015190925090506000816102ea57600061031e565b61031e6103066102fe85633b9aca00610803565b60035461082d565b6000868152600160208190526040909120015461082d565b60025460408051630d05943f60e11b815260048101889052631cdc1bdd60e21b60248201526044810184905290519293506001600160a01b0390911691631a0b287e9160648082019260009290919082900301818387803b15801561038257600080fd5b505af1158015610396573d6000803e3d6000fd5b5050604080518781526020810187905280820185905290517fdfd7467e425a8107cfd368d159957692c25085aacbcf5228ce08f10f2146486e9350908190036060019150a150505050565b33600090815260208190526040902054600114610433576040805162461bcd60e51b81526020600482015260166024820152600080516020610856833981519152604482015290519081900360640190fd5b60045460011461047d576040805162461bcd60e51b815260206004820152601060248201526f53706f747465722f6e6f742d6c69766560801b604482015290519081900360640190fd5b81621b585d60ea1b14156104a5576000838152600160208190526040909120018190556104f2565b6040805162461bcd60e51b815260206004820152601f60248201527f53706f747465722f66696c652d756e7265636f676e697a65642d706172616d00604482015290519081900360640190fd5b505050565b33600090815260208190526040902054600114610549576040805162461bcd60e51b81526020600482015260166024820152600080516020610856833981519152604482015290519081900360640190fd5b600454600114610593576040805162461bcd60e51b815260206004820152601060248201526f53706f747465722f6e6f742d6c69766560801b604482015290519081900360640190fd5b81623830b960e91b14156104a55760035550565b6002546001600160a01b031681565b60035481565b3360009081526020819052604090205460011461060e576040805162461bcd60e51b81526020600482015260166024820152600080516020610856833981519152604482015290519081900360640190fd5b6001600160a01b0316600090815260208190526040902060019055565b3360009081526020819052604090205460011461067d576040805162461bcd60e51b81526020600482015260166024820152600080516020610856833981519152604482015290519081900360640190fd5b6000600455565b60045481565b336000908152602081905260409020546001146106dc576040805162461bcd60e51b81526020600482015260166024820152600080516020610856833981519152604482015290519081900360640190fd5b6001600160a01b0316600090815260208190526040812055565b60006020819052908152604090205481565b600160208190526000918252604090912080549101546001600160a01b039091169082565b3360009081526020819052604090205460011461077f576040805162461bcd60e51b81526020600482015260166024820152600080516020610856833981519152604482015290519081900360640190fd5b6004546001146107c9576040805162461bcd60e51b815260206004820152601060248201526f53706f747465722f6e6f742d6c69766560801b604482015290519081900360640190fd5b816207069760ec1b14156104a557600083815260016020526040902080546001600160a01b0319166001600160a01b0383161790556104f2565b600081158061081e5750508082028282828161081b57fe5b04145b61082757600080fd5b92915050565b600081610846846b033b2e3c9fd0803ce8000000610803565b8161084d57fe5b04939250505056fe53706f747465722f6e6f742d617574686f72697a656400000000000000000000a2646970667358221220fea0f0b22e2f913cf6f46da3ce2f8882a0401a191ffa6126fa0544ee7413322964736f6c634300060c0033","linkReferences":{}},"methodIdentifiers":{"cage()":"69245009","deny(address)":"9c52a7f1","file(bytes32,bytes32,address)":"ebecb39d","file(bytes32,bytes32,uint256)":"1a0b287e","file(bytes32,uint256)":"29ae8114","ilks(bytes32)":"d9638d36","live()":"957aa58c","par()":"495d32cb","poke(bytes32)":"1504460f","rely(address)":"65fae35e","vat()":"36569e77","wards(address)":"bf353dbb"},"id":37}