{"abi":[{"type":"constructor","inputs":[{"name":"vat_","type":"address","internalType":"address"},{"name":"dai_","type":"address","internalType":"address"}],"stateMutability":"nonpayable"},{"type":"function","name":"cage","inputs":[],"outputs":[],"stateMutability":"nonpayable"},{"type":"function","name":"dai","inputs":[],"outputs":[{"name":"","type":"address","internalType":"contract DSTokenLike"}],"stateMutability":"view"},{"type":"function","name":"deny","inputs":[{"name":"usr","type":"address","internalType":"address"}],"outputs":[],"stateMutability":"nonpayable"},{"type":"function","name":"exit","inputs":[{"name":"usr","type":"address","internalType":"address"},{"name":"wad","type":"uint256","internalType":"uint256"}],"outputs":[],"stateMutability":"nonpayable"},{"type":"function","name":"join","inputs":[{"name":"usr","type":"address","internalType":"address"},{"name":"wad","type":"uint256","internalType":"uint256"}],"outputs":[],"stateMutability":"nonpayable"},{"type":"function","name":"live","inputs":[],"outputs":[{"name":"","type":"uint256","internalType":"uint256"}],"stateMutability":"view"},{"type":"function","name":"rely","inputs":[{"name":"usr","type":"address","internalType":"address"}],"outputs":[],"stateMutability":"nonpayable"},{"type":"function","name":"vat","inputs":[],"outputs":[{"name":"","type":"address","internalType":"contract VatLike"}],"stateMutability":"view"},{"type":"function","name":"wards","inputs":[{"name":"","type":"address","internalType":"address"}],"outputs":[{"name":"","type":"uint256","internalType":"uint256"}],"stateMutability":"view"},{"type":"event","name":"Cage","inputs":[],"anonymous":false},{"type":"event","name":"Deny","inputs":[{"name":"usr","type":"address","indexed":true,"internalType":"address"}],"anonymous":false},{"type":"event","name":"Exit","inputs":[{"name":"usr","type":"address","indexed":true,"internalType":"address"},{"name":"wad","type":"uint256","indexed":false,"internalType":"uint256"}],"anonymous":false},{"type":"event","name":"Join","inputs":[{"name":"usr","type":"address","indexed":true,"internalType":"address"},{"name":"wad","type":"uint256","indexed":false,"internalType":"uint256"}],"anonymous":false},{"type":"event","name":"Rely","inputs":[{"name":"usr","type":"address","indexed":true,"internalType":"address"}],"anonymous":false}],"bytecode":{"object":"0x608060405234801561001057600080fd5b5060405161077d38038061077d8339818101604052604081101561003357600080fd5b508051602091820151336000908152928390526040909220600190819055600381905580546001600160a01b039283166001600160a01b031991821617909155600280549290931691161790556106ee8061008f6000396000f3fe608060405234801561001057600080fd5b50600436106100935760003560e01c8063957aa58c11610066578063957aa58c146101185780639c52a7f114610132578063bf353dbb14610158578063ef693bed1461017e578063f4b9fa75146101aa57610093565b806336569e77146100985780633b4da69f146100bc57806365fae35e146100ea5780636924500914610110575b600080fd5b6100a06101b2565b604080516001600160a01b039092168252519081900360200190f35b6100e8600480360360408110156100d257600080fd5b506001600160a01b0381351690602001356101c1565b005b6100e86004803603602081101561010057600080fd5b50356001600160a01b0316610306565b6100e86103a8565b610120610435565b60408051918252519081900360200190f35b6100e86004803603602081101561014857600080fd5b50356001600160a01b031661043b565b6101206004803603602081101561016e57600080fd5b50356001600160a01b03166104dc565b6100e86004803603604081101561019457600080fd5b506001600160a01b0381351690602001356104ee565b6100a061067f565b6001546001600160a01b031681565b6001546001600160a01b031663bb35783b30846101ea6b033b2e3c9fd0803ce80000008661068e565b6040518463ffffffff1660e01b815260040180846001600160a01b03168152602001836001600160a01b031681526020018281526020019350505050600060405180830381600087803b15801561024057600080fd5b505af1158015610254573d6000803e3d6000fd5b505060025460408051632770a7eb60e21b81523360048201526024810186905290516001600160a01b039092169350639dc29fac925060448082019260009290919082900301818387803b1580156102ab57600080fd5b505af11580156102bf573d6000803e3d6000fd5b50506040805184815290516001600160a01b03861693507fb4e09949657f21548b58afe74e7b86cd2295da5ff1598ae1e5faecb1cf19ca9592509081900360200190a25050565b33600090815260208190526040902054600114610363576040805162461bcd60e51b815260206004820152601660248201527511185a529bda5b8bdb9bdd0b585d5d1a1bdc9a5e995960521b604482015290519081900360640190fd5b6001600160a01b03811660008181526020819052604080822060019055517fdd0e34038ac38b2a1ce960229778ac48a8719bc900b6c4f8d0475c6e8b385a609190a250565b33600090815260208190526040902054600114610405576040805162461bcd60e51b815260206004820152601660248201527511185a529bda5b8bdb9bdd0b585d5d1a1bdc9a5e995960521b604482015290519081900360640190fd5b600060038190556040517f2308ed18a14e800c39b86eb6ea43270105955ca385b603b64eca89f98ae8fbda9190a1565b60035481565b33600090815260208190526040902054600114610498576040805162461bcd60e51b815260206004820152601660248201527511185a529bda5b8bdb9bdd0b585d5d1a1bdc9a5e995960521b604482015290519081900360640190fd5b6001600160a01b038116600081815260208190526040808220829055517f184450df2e323acec0ed3b5c7531b81f9b4cdef7914dfd4c0a4317416bb5251b9190a250565b60006020819052908152604090205481565b600354600114610538576040805162461bcd60e51b815260206004820152601060248201526f4461694a6f696e2f6e6f742d6c69766560801b604482015290519081900360640190fd5b6001546001600160a01b031663bb35783b33306105616b033b2e3c9fd0803ce80000008661068e565b6040518463ffffffff1660e01b815260040180846001600160a01b03168152602001836001600160a01b031681526020018281526020019350505050600060405180830381600087803b1580156105b757600080fd5b505af11580156105cb573d6000803e3d6000fd5b5050600254604080516340c10f1960e01b81526001600160a01b0387811660048301526024820187905291519190921693506340c10f199250604480830192600092919082900301818387803b15801561062457600080fd5b505af1158015610638573d6000803e3d6000fd5b50506040805184815290516001600160a01b03861693507f22d324652c93739755cf4581508b60875ebdd78c20c0cff5cf8e23452b29963192509081900360200190a25050565b6002546001600160a01b031681565b60008115806106a9575050808202828282816106a657fe5b04145b6106b257600080fd5b9291505056fea2646970667358221220df2c48a846565fe42c901f43fdb12405c8787e48eef0308ca333abbbffb420fa64736f6c634300060c0033","linkReferences":{}},"methodIdentifiers":{"cage()":"69245009","dai()":"f4b9fa75","deny(address)":"9c52a7f1","exit(address,uint256)":"ef693bed","join(address,uint256)":"3b4da69f","live()":"957aa58c","rely(address)":"65fae35e","vat()":"36569e77","wards(address)":"bf353dbb"},"id":33}