{"abi":[{"type":"constructor","inputs":[{"name":"vat_","type":"address","internalType":"address"},{"name":"flapper_","type":"address","internalType":"address"},{"name":"flopper_","type":"address","internalType":"address"}],"stateMutability":"nonpayable"},{"type":"function","name":"Ash","inputs":[],"outputs":[{"name":"","type":"uint256","internalType":"uint256"}],"stateMutability":"view"},{"type":"function","name":"Sin","inputs":[],"outputs":[{"name":"","type":"uint256","internalType":"uint256"}],"stateMutability":"view"},{"type":"function","name":"bump","inputs":[],"outputs":[{"name":"","type":"uint256","internalType":"uint256"}],"stateMutability":"view"},{"type":"function","name":"cage","inputs":[],"outputs":[],"stateMutability":"nonpayable"},{"type":"function","name":"deny","inputs":[{"name":"usr","type":"address","internalType":"address"}],"outputs":[],"stateMutability":"nonpayable"},{"type":"function","name":"dump","inputs":[],"outputs":[{"name":"","type":"uint256","internalType":"uint256"}],"stateMutability":"view"},{"type":"function","name":"fess","inputs":[{"name":"tab","type":"uint256","internalType":"uint256"}],"outputs":[],"stateMutability":"nonpayable"},{"type":"function","name":"file","inputs":[{"name":"what","type":"bytes32","internalType":"bytes32"},{"name":"data","type":"uint256","internalType":"uint256"}],"outputs":[],"stateMutability":"nonpayable"},{"type":"function","name":"file","inputs":[{"name":"what","type":"bytes32","internalType":"bytes32"},{"name":"data","type":"address","internalType":"address"}],"outputs":[],"stateMutability":"nonpayable"},{"type":"function","name":"flap","inputs":[],"outputs":[{"name":"id","type":"uint256","internalType":"uint256"}],"stateMutability":"nonpayable"},{"type":"function","name":"flapper","inputs":[],"outputs":[{"name":"","type":"address","internalType":"contract FlapLike"}],"stateMutability":"view"},{"type":"function","name":"flog","inputs":[{"name":"era","type":"uint256","internalType":"uint256"}],"outputs":[],"stateMutability":"nonpayable"},{"type":"function","name":"flop","inputs":[],"outputs":[{"name":"id","type":"uint256","internalType":"uint256"}],"stateMutability":"nonpayable"},{"type":"function","name":"flopper","inputs":[],"outputs":[{"name":"","type":"address","internalType":"contract FlopLike"}],"stateMutability":"view"},{"type":"function","name":"heal","inputs":[{"name":"rad","type":"uint256","internalType":"uint256"}],"outputs":[],"stateMutability":"nonpayable"},{"type":"function","name":"hump","inputs":[],"outputs":[{"name":"","type":"uint256","internalType":"uint256"}],"stateMutability":"view"},{"type":"function","name":"kiss","inputs":[{"name":"rad","type":"uint256","internalType":"uint256"}],"outputs":[],"stateMutability":"nonpayable"},{"type":"function","name":"live","inputs":[],"outputs":[{"name":"","type":"uint256","internalType":"uint256"}],"stateMutability":"view"},{"type":"function","name":"rely","inputs":[{"name":"usr","type":"address","internalType":"address"}],"outputs":[],"stateMutability":"nonpayable"},{"type":"function","name":"sin","inputs":[{"name":"","type":"uint256","internalType":"uint256"}],"outputs":[{"name":"","type":"uint256","internalType":"uint256"}],"stateMutability":"view"},{"type":"function","name":"sump","inputs":[],"outputs":[{"name":"","type":"uint256","internalType":"uint256"}],"stateMutability":"view"},{"type":"function","name":"vat","inputs":[],"outputs":[{"name":"","type":"address","internalType":"contract VatLike"}],"stateMutability":"view"},{"type":"function","name":"wait","inputs":[],"outputs":[{"name":"","type":"uint256","internalType":"uint256"}],"stateMutability":"view"},{"type":"function","name":"wards","inputs":[{"name":"","type":"address","internalType":"address"}],"outputs":[{"name":"","type":"uint256","internalType":"uint256"}],"stateMutability":"view"}],"bytecode":{"object":"0x608060405234801561001057600080fd5b5060405161154b38038061154b8339818101604052606081101561003357600080fd5b5080516020808301516040938401513360009081529283905284832060019081905580546001600160a01b038087166001600160a01b031992831617928390556002805482871690841681179091556003805483871694169390931790925587516328ec8bf160e21b815260048101929092529651959693959294919093169263a3b22fc4926024808301939282900301818387803b1580156100d557600080fd5b505af11580156100e9573d6000803e3d6000fd5b50506001600c555050505050611447806101046000396000f3fe608060405234801561001057600080fd5b50600436106101585760003560e01c8063697efb78116100c3578063cb5cc1091161007c578063cb5cc109146102bc578063d0adc35f146102d9578063d4e8be83146102e1578063d7ee674b1461030d578063e43305451461032a578063f37ac61c1461033257610158565b8063697efb781461023b578063957aa58c146102585780639c52a7f114610260578063bbbb0d7b14610286578063bf353dbb1461028e578063c349d362146102b457610158565b80634081d73a116101155780634081d73a146101ed5780635ca0d723146101f557806364bd7013146101fd57806365fae35e1461020557806368110b2f1461022b578063692450091461023357610158565b80630e01198b1461015d5780631b8e8cfa146101775780632506855a1461017f57806329ae81141461019e5780632a1d2b3c146101c157806336569e77146101c9575b600080fd5b61016561034f565b60408051918252519081900360200190f35b610165610607565b61019c6004803603602081101561019557600080fd5b503561060d565b005b61019c600480360360408110156101b457600080fd5b5080359060200135610796565b6101656108bd565b6101d16108c3565b604080516001600160a01b039092168252519081900360200190f35b6101d16108d2565b6101d16108e1565b6101656108f0565b61019c6004803603602081101561021b57600080fd5b50356001600160a01b03166108f6565b6101656109b2565b61019c6109b8565b61019c6004803603602081101561025157600080fd5b5035610cf6565b610165610d8c565b61019c6004803603602081101561027657600080fd5b50356001600160a01b0316610d92565b610165610e05565b610165600480360360208110156102a457600080fd5b50356001600160a01b0316610fdc565b610165610fee565b610165600480360360208110156102d257600080fd5b5035610ff4565b610165611006565b61019c600480360360408110156102f757600080fd5b50803590602001356001600160a01b031661100c565b61019c6004803603602081101561032357600080fd5b5035611192565b61016561121a565b61019c6004803603602081101561034857600080fd5b5035611220565b6001546040805163782c909560e11b815230600482015290516000926103e1926103d9926001600160a01b039092169163f059212a91602480820192602092909190829003018186803b1580156103a557600080fd5b505afa1580156103b9573d6000803e3d6000fd5b505050506040513d60208110156103cf57600080fd5b5051600a546113d2565b600b546113d2565b60015460408051633612d9a360e11b815230600482015290516001600160a01b0390921691636c25b34691602480820192602092909190829003018186803b15801561042c57600080fd5b505afa158015610440573d6000803e3d6000fd5b505050506040513d602081101561045657600080fd5b505110156104a6576040805162461bcd60e51b8152602060048201526018602482015277566f772f696e73756666696369656e742d737572706c757360401b604482015290519081900360640190fd5b6001546040805163782c909560e11b815230600482015290516105359261052d926001600160a01b039091169163f059212a91602480820192602092909190829003018186803b1580156104f957600080fd5b505afa15801561050d573d6000803e3d6000fd5b505050506040513d602081101561052357600080fd5b50516005546113e8565b6006546113e8565b1561057b576040805162461bcd60e51b8152602060048201526011602482015270566f772f646562742d6e6f742d7a65726f60781b604482015290519081900360640190fd5b600254600a546040805163ca40c41960e01b8152600481019290925260006024830181905290516001600160a01b039093169263ca40c419926044808201936020939283900390910190829087803b1580156105d657600080fd5b505af11580156105ea573d6000803e3d6000fd5b505050506040513d602081101561060057600080fd5b5051919050565b600b5481565b600654811115610659576040805162461bcd60e51b81526020600482015260126024820152710acdeee5edcdee85acadcdeeaced05ac2e6d60731b604482015290519081900360640190fd5b60015460408051633612d9a360e11b815230600482015290516001600160a01b0390921691636c25b34691602480820192602092909190829003018186803b1580156106a457600080fd5b505afa1580156106b8573d6000803e3d6000fd5b505050506040513d60208110156106ce57600080fd5b505181111561071f576040805162461bcd60e51b8152602060048201526018602482015277566f772f696e73756666696369656e742d737572706c757360401b604482015290519081900360640190fd5b61072b600654826113e8565b60065560015460408051633cdeb18760e21b81526004810184905290516001600160a01b039092169163f37ac61c9160248082019260009290919082900301818387803b15801561077b57600080fd5b505af115801561078f573d6000803e3d6000fd5b5050505050565b336000908152602081905260409020546001146107ef576040805162461bcd60e51b8152602060048201526012602482015271159bddcbdb9bdd0b585d5d1a1bdc9a5e995960721b604482015290519081900360640190fd5b81631dd85a5d60e21b14156108085760078190556108b9565b8163062756d760e41b141561082157600a8190556108b9565b8163073756d760e41b141561083a5760098190556108b9565b8163064756d760e41b14156108535760088190556108b9565b8163068756d760e41b141561086c57600b8190556108b9565b6040805162461bcd60e51b815260206004820152601b60248201527f566f772f66696c652d756e7265636f676e697a65642d706172616d0000000000604482015290519081900360640190fd5b5050565b60065481565b6001546001600160a01b031681565b6003546001600160a01b031681565b6002546001600160a01b031681565b60075481565b3360009081526020819052604090205460011461094f576040805162461bcd60e51b8152602060048201526012602482015271159bddcbdb9bdd0b585d5d1a1bdc9a5e995960721b604482015290519081900360640190fd5b600c54600114610995576040805162461bcd60e51b815260206004820152600c60248201526b566f772f6e6f742d6c69766560a01b604482015290519081900360640190fd5b6001600160a01b0316600090815260208190526040902060019055565b600a5481565b33600090815260208190526040902054600114610a11576040805162461bcd60e51b8152602060048201526012602482015271159bddcbdb9bdd0b585d5d1a1bdc9a5e995960721b604482015290519081900360640190fd5b600c54600114610a57576040805162461bcd60e51b815260206004820152600c60248201526b566f772f6e6f742d6c69766560a01b604482015290519081900360640190fd5b6000600c819055600581905560065560025460015460408051633612d9a360e11b81526001600160a01b03938416600482018190529151919363a2f91af2931691636c25b34691602480820192602092909190829003018186803b158015610abe57600080fd5b505afa158015610ad2573d6000803e3d6000fd5b505050506040513d6020811015610ae857600080fd5b5051604080516001600160e01b031960e085901b168152600481019290925251602480830192600092919082900301818387803b158015610b2857600080fd5b505af1158015610b3c573d6000803e3d6000fd5b50505050600360009054906101000a90046001600160a01b03166001600160a01b031663692450096040518163ffffffff1660e01b8152600401600060405180830381600087803b158015610b9057600080fd5b505af1158015610ba4573d6000803e3d6000fd5b505060015460408051633612d9a360e11b815230600482015290516001600160a01b03909216935063f37ac61c9250610ca6918491636c25b346916024808301926020929190829003018186803b158015610bfe57600080fd5b505afa158015610c12573d6000803e3d6000fd5b505050506040513d6020811015610c2857600080fd5b50516001546040805163782c909560e11b815230600482015290516001600160a01b039092169163f059212a91602480820192602092909190829003018186803b158015610c7557600080fd5b505afa158015610c89573d6000803e3d6000fd5b505050506040513d6020811015610c9f57600080fd5b50516113f8565b6040518263ffffffff1660e01b815260040180828152602001915050600060405180830381600087803b158015610cdc57600080fd5b505af1158015610cf0573d6000803e3d6000fd5b50505050565b33600090815260208190526040902054600114610d4f576040805162461bcd60e51b8152602060048201526012602482015271159bddcbdb9bdd0b585d5d1a1bdc9a5e995960721b604482015290519081900360640190fd5b42600090815260046020526040902054610d6990826113d2565b42600090815260046020526040902055600554610d8690826113d2565b60055550565b600c5481565b33600090815260208190526040902054600114610deb576040805162461bcd60e51b8152602060048201526012602482015271159bddcbdb9bdd0b585d5d1a1bdc9a5e995960721b604482015290519081900360640190fd5b6001600160a01b0316600090815260208190526040812055565b6001546040805163782c909560e11b81523060048201529051600092610e5b9261052d926001600160a01b039092169163f059212a91602480820192602092909190829003018186803b1580156104f957600080fd5b6009541115610ea9576040805162461bcd60e51b8152602060048201526015602482015274159bddcbda5b9cdd59999a58da595b9d0b5919589d605a1b604482015290519081900360640190fd5b60015460408051633612d9a360e11b815230600482015290516001600160a01b0390921691636c25b34691602480820192602092909190829003018186803b158015610ef457600080fd5b505afa158015610f08573d6000803e3d6000fd5b505050506040513d6020811015610f1e57600080fd5b505115610f69576040805162461bcd60e51b8152602060048201526014602482015273566f772f737572706c75732d6e6f742d7a65726f60601b604482015290519081900360640190fd5b610f776006546009546113d2565b60065560035460085460095460408051632dfa734960e21b815230600482015260248101939093526044830191909152516001600160a01b039092169163b7e9cd24916064808201926020929091908290030181600087803b1580156105d657600080fd5b60006020819052908152604090205481565b60095481565b60046020526000908152604090205481565b60055481565b33600090815260208190526040902054600114611065576040805162461bcd60e51b8152602060048201526012602482015271159bddcbdb9bdd0b585d5d1a1bdc9a5e995960721b604482015290519081900360640190fd5b8166333630b83832b960c91b14156111605760015460025460408051636e26907d60e11b81526001600160a01b0392831660048201529051919092169163dc4d20fa91602480830192600092919082900301818387803b1580156110c857600080fd5b505af11580156110dc573d6000803e3d6000fd5b5050600280546001600160a01b0319166001600160a01b03858116918217909255600154604080516328ec8bf160e21b81526004810193909352519216935063a3b22fc4925060248082019260009290919082900301818387803b15801561114357600080fd5b505af1158015611157573d6000803e3d6000fd5b505050506108b9565b8166333637b83832b960c91b141561086c57600380546001600160a01b0319166001600160a01b0383161790556108b9565b4261119f826007546113d2565b11156111ea576040805162461bcd60e51b8152602060048201526015602482015274159bddcbddd85a5d0b5b9bdd0b599a5b9a5cda1959605a1b604482015290519081900360640190fd5b60055460008281526004602052604090205461120691906113e8565b600555600090815260046020526040812055565b60085481565b60015460408051633612d9a360e11b815230600482015290516001600160a01b0390921691636c25b34691602480820192602092909190829003018186803b15801561126b57600080fd5b505afa15801561127f573d6000803e3d6000fd5b505050506040513d602081101561129557600080fd5b50518111156112e6576040805162461bcd60e51b8152602060048201526018602482015277566f772f696e73756666696369656e742d737572706c757360401b604482015290519081900360640190fd5b6001546040805163782c909560e11b815230600482015290516113399261052d926001600160a01b039091169163f059212a91602480820192602092909190829003018186803b1580156104f957600080fd5b811115611385576040805162461bcd60e51b8152602060048201526015602482015274159bddcbda5b9cdd59999a58da595b9d0b5919589d605a1b604482015290519081900360640190fd5b60015460408051633cdeb18760e21b81526004810184905290516001600160a01b039092169163f37ac61c9160248082019260009290919082900301818387803b15801561077b57600080fd5b808201828110156113e257600080fd5b92915050565b808203828111156113e257600080fd5b600081831115611408578161140a565b825b939250505056fea26469706673582212200d746048e274cc16658f49a1530a317c84f97bc6fab6656438d4cb7602c9cc9164736f6c634300060c0033","linkReferences":{}},"methodIdentifiers":{"Ash()":"2a1d2b3c","Sin()":"d0adc35f","bump()":"68110b2f","cage()":"69245009","deny(address)":"9c52a7f1","dump()":"e4330545","fess(uint256)":"697efb78","file(bytes32,address)":"d4e8be83","file(bytes32,uint256)":"29ae8114","flap()":"0e01198b","flapper()":"5ca0d723","flog(uint256)":"d7ee674b","flop()":"bbbb0d7b","flopper()":"4081d73a","heal(uint256)":"f37ac61c","hump()":"1b8e8cfa","kiss(uint256)":"2506855a","live()":"957aa58c","rely(address)":"65fae35e","sin(uint256)":"cb5cc109","sump()":"c349d362","vat()":"36569e77","wait()":"64bd7013","wards(address)":"bf353dbb"},"id":40}