{"abi":[{"type":"constructor","inputs":[{"name":"vat_","type":"address","internalType":"address"},{"name":"gem_","type":"address","internalType":"address"}],"stateMutability":"nonpayable"},{"type":"function","name":"beg","inputs":[],"outputs":[{"name":"","type":"uint256","internalType":"uint256"}],"stateMutability":"view"},{"type":"function","name":"bids","inputs":[{"name":"","type":"uint256","internalType":"uint256"}],"outputs":[{"name":"bid","type":"uint256","internalType":"uint256"},{"name":"lot","type":"uint256","internalType":"uint256"},{"name":"guy","type":"address","internalType":"address"},{"name":"tic","type":"uint48","internalType":"uint48"},{"name":"end","type":"uint48","internalType":"uint48"}],"stateMutability":"view"},{"type":"function","name":"cage","inputs":[],"outputs":[],"stateMutability":"nonpayable"},{"type":"function","name":"deal","inputs":[{"name":"id","type":"uint256","internalType":"uint256"}],"outputs":[],"stateMutability":"nonpayable"},{"type":"function","name":"dent","inputs":[{"name":"id","type":"uint256","internalType":"uint256"},{"name":"lot","type":"uint256","internalType":"uint256"},{"name":"bid","type":"uint256","internalType":"uint256"}],"outputs":[],"stateMutability":"nonpayable"},{"type":"function","name":"deny","inputs":[{"name":"usr","type":"address","internalType":"address"}],"outputs":[],"stateMutability":"nonpayable"},{"type":"function","name":"file","inputs":[{"name":"what","type":"bytes32","internalType":"bytes32"},{"name":"data","type":"uint256","internalType":"uint256"}],"outputs":[],"stateMutability":"nonpayable"},{"type":"function","name":"gem","inputs":[],"outputs":[{"name":"","type":"address","internalType":"contract GemLike"}],"stateMutability":"view"},{"type":"function","name":"kick","inputs":[{"name":"gal","type":"address","internalType":"address"},{"name":"lot","type":"uint256","internalType":"uint256"},{"name":"bid","type":"uint256","internalType":"uint256"}],"outputs":[{"name":"id","type":"uint256","internalType":"uint256"}],"stateMutability":"nonpayable"},{"type":"function","name":"kicks","inputs":[],"outputs":[{"name":"","type":"uint256","internalType":"uint256"}],"stateMutability":"view"},{"type":"function","name":"live","inputs":[],"outputs":[{"name":"","type":"uint256","internalType":"uint256"}],"stateMutability":"view"},{"type":"function","name":"pad","inputs":[],"outputs":[{"name":"","type":"uint256","internalType":"uint256"}],"stateMutability":"view"},{"type":"function","name":"rely","inputs":[{"name":"usr","type":"address","internalType":"address"}],"outputs":[],"stateMutability":"nonpayable"},{"type":"function","name":"tau","inputs":[],"outputs":[{"name":"","type":"uint48","internalType":"uint48"}],"stateMutability":"view"},{"type":"function","name":"tick","inputs":[{"name":"id","type":"uint256","internalType":"uint256"}],"outputs":[],"stateMutability":"nonpayable"},{"type":"function","name":"ttl","inputs":[],"outputs":[{"name":"","type":"uint48","internalType":"uint48"}],"stateMutability":"view"},{"type":"function","name":"vat","inputs":[],"outputs":[{"name":"","type":"address","internalType":"contract VatLike"}],"stateMutability":"view"},{"type":"function","name":"vow","inputs":[],"outputs":[{"name":"","type":"address","internalType":"address"}],"stateMutability":"view"},{"type":"function","name":"wards","inputs":[{"name":"","type":"address","internalType":"address"}],"outputs":[{"name":"","type":"uint256","internalType":"uint256"}],"stateMutability":"view"},{"type":"function","name":"yank","inputs":[{"name":"id","type":"uint256","internalType":"uint256"}],"outputs":[],"stateMutability":"nonpayable"},{"type":"event","name":"Kick","inputs":[{"name":"id","type":"uint256","indexed":false,"internalType":"uint256"},{"name":"lot","type":"uint256","indexed":false,"internalType":"uint256"},{"name":"bid","type":"uint256","indexed":false,"internalType":"uint256"},{"name":"gal","type":"address","indexed":true,"internalType":"address"}],"anonymous":false}],"bytecode":{"object":"0x6080604052670e92596fd62900006004556714d1120d7b16000060055560068054612a3065ffffffffffff199091161765ffffffffffff60301b19166802a300000000000000179055600060075534801561005957600080fd5b506040516113b13803806113b18339818101604052604081101561007c57600080fd5b508051602091820151336000908152928390526040909220600190819055600280546001600160a01b039384166001600160a01b03199182161790915560038054939094169216919091179091556008556112d5806100dc6000396000f3fe608060405234801561001057600080fd5b506004361061012c5760003560e01c80637d780d82116100ad578063bf353dbb11610071578063bf353dbb146102fe578063c959c42b14610324578063cfc4af5514610341578063cfdd330214610349578063fc7b6aee146103515761012c565b80637d780d821461027c5780639361266c14610296578063957aa58c1461029e5780639c52a7f1146102a6578063b7e9cd24146102cc5761012c565b80635ff3a382116100f45780635ff3a38214610215578063626cb3c51461023e57806365fae35e14610246578063692450091461026c5780637bd2bea7146102745761012c565b806326e027f11461013157806329ae81141461015057806336569e77146101735780634423c5f1146101975780634e8b1dd5146101f2575b600080fd5b61014e6004803603602081101561014757600080fd5b503561036e565b005b61014e6004803603604081101561016657600080fd5b50803590602001356104bf565b61017b610601565b604080516001600160a01b039092168252519081900360200190f35b6101b4600480360360208110156101ad57600080fd5b5035610610565b6040805195865260208601949094526001600160a01b039092168484015265ffffffffffff9081166060850152166080830152519081900360a00190f35b6101fa610654565b6040805165ffffffffffff9092168252519081900360200190f35b61014e6004803603606081101561022b57600080fd5b5080359060208101359060400135610662565b61017b610bb2565b61014e6004803603602081101561025c57600080fd5b50356001600160a01b0316610bc1565b61014e610c3b565b61017b610cb1565b610284610cc0565b60408051918252519081900360200190f35b610284610cc6565b610284610ccc565b61014e600480360360208110156102bc57600080fd5b50356001600160a01b0316610cd2565b610284600480360360608110156102e257600080fd5b506001600160a01b038135169060208101359060400135610d49565b6102846004803603602081101561031457600080fd5b50356001600160a01b0316610f22565b61014e6004803603602081101561033a57600080fd5b5035610f34565b6101fa6110a9565b6102846110be565b61014e6004803603602081101561036757600080fd5b50356110c4565b600854156103b8576040805162461bcd60e51b8152602060048201526012602482015271466c6f707065722f7374696c6c2d6c69766560701b604482015290519081900360640190fd5b6000818152600160205260409020600201546001600160a01b031661041a576040805162461bcd60e51b8152602060048201526013602482015272119b1bdc1c195c8bd9dd5e4b5b9bdd0b5cd95d606a1b604482015290519081900360640190fd5b60028054600954600084815260016020526040808220948501549454815163f24e23eb60e01b81526001600160a01b0394851660048201529584166024870152604486015251919092169263f24e23eb92606480830193919282900301818387803b15801561048857600080fd5b505af115801561049c573d6000803e3d6000fd5b505050600091825250600160208190526040822082815590810182905560020155565b3360009081526020819052604090205460011461051c576040805162461bcd60e51b8152602060048201526016602482015275119b1bdc1c195c8bdb9bdd0b585d5d1a1bdc9a5e995960521b604482015290519081900360640190fd5b816262656760e81b14156105345760048190556105fd565b81621c185960ea1b141561054c5760058190556105fd565b81621d1d1b60ea1b1415610578576006805465ffffffffffff191665ffffffffffff83161790556105fd565b816274617560e81b14156105b057600680546bffffffffffff0000000000001916600160301b65ffffffffffff8416021790556105fd565b6040805162461bcd60e51b815260206004820152601f60248201527f466c6f707065722f66696c652d756e7265636f676e697a65642d706172616d00604482015290519081900360640190fd5b5050565b6002546001600160a01b031681565b60016020819052600091825260409091208054918101546002909101546001600160a01b0381169065ffffffffffff600160a01b8204811691600160d01b90041685565b60065465ffffffffffff1681565b6008546001146106ac576040805162461bcd60e51b815260206004820152601060248201526f466c6f707065722f6e6f742d6c69766560801b604482015290519081900360640190fd5b6000838152600160205260409020600201546001600160a01b031661070e576040805162461bcd60e51b8152602060048201526013602482015272119b1bdc1c195c8bd9dd5e4b5b9bdd0b5cd95d606a1b604482015290519081900360640190fd5b60008381526001602052604090206002015442600160a01b90910465ffffffffffff16118061075b5750600083815260016020526040902060020154600160a01b900465ffffffffffff16155b6107ac576040805162461bcd60e51b815260206004820152601c60248201527f466c6f707065722f616c72656164792d66696e69736865642d74696300000000604482015290519081900360640190fd5b60008381526001602052604090206002015442600160d01b90910465ffffffffffff1611610821576040805162461bcd60e51b815260206004820152601c60248201527f466c6f707065722f616c72656164792d66696e69736865642d656e6400000000604482015290519081900360640190fd5b6000838152600160205260409020548114610883576040805162461bcd60e51b815260206004820152601860248201527f466c6f707065722f6e6f742d6d61746368696e672d6269640000000000000000604482015290519081900360640190fd5b6000838152600160208190526040909120015482106108e1576040805162461bcd60e51b8152602060048201526015602482015274233637b83832b917b637ba16b737ba16b637bbb2b960591b604482015290519081900360640190fd5b6000838152600160208190526040909120015461090690670de0b6b3a7640000611242565b61091260045484611242565b1115610965576040805162461bcd60e51b815260206004820152601d60248201527f466c6f707065722f696e73756666696369656e742d6465637265617365000000604482015290519081900360640190fd5b6000838152600160205260409020600201546001600160a01b03163314610b49576002805460008581526001602052604080822090930154835163bb35783b60e01b81523360048201526001600160a01b03918216602482015260448101869052935192169263bb35783b926064808301939282900301818387803b1580156109ed57600080fd5b505af1158015610a01573d6000803e3d6000fd5b505050600084815260016020526040902060020154600160a01b900465ffffffffffff1615159050610b27576000838152600160209081526040808320600201548151630a874acf60e21b815291516001600160a01b0390911692632a1d2b3c926004808201939182900301818787803b158015610a7e57600080fd5b505af1158015610a92573d6000803e3d6000fd5b505050506040513d6020811015610aa857600080fd5b50516000858152600160205260409020600201549091506001600160a01b0316632506855a610ad7848461126c565b6040518263ffffffff1660e01b815260040180828152602001915050600060405180830381600087803b158015610b0d57600080fd5b505af1158015610b21573d6000803e3d6000fd5b50505050505b600083815260016020526040902060020180546001600160a01b031916331790555b600083815260016020819052604090912001829055600654610b7490429065ffffffffffff16611284565b600093845260016020526040909320600201805465ffffffffffff94909416600160a01b0265ffffffffffff60a01b19909416939093179092555050565b6009546001600160a01b031681565b33600090815260208190526040902054600114610c1e576040805162461bcd60e51b8152602060048201526016602482015275119b1bdc1c195c8bdb9bdd0b585d5d1a1bdc9a5e995960521b604482015290519081900360640190fd5b6001600160a01b0316600090815260208190526040902060019055565b33600090815260208190526040902054600114610c98576040805162461bcd60e51b8152602060048201526016602482015275119b1bdc1c195c8bdb9bdd0b585d5d1a1bdc9a5e995960521b604482015290519081900360640190fd5b6000600855600980546001600160a01b03191633179055565b6003546001600160a01b031681565b60045481565b60055481565b60085481565b33600090815260208190526040902054600114610d2f576040805162461bcd60e51b8152602060048201526016602482015275119b1bdc1c195c8bdb9bdd0b585d5d1a1bdc9a5e995960521b604482015290519081900360640190fd5b6001600160a01b0316600090815260208190526040812055565b33600090815260208190526040812054600114610da6576040805162461bcd60e51b8152602060048201526016602482015275119b1bdc1c195c8bdb9bdd0b585d5d1a1bdc9a5e995960521b604482015290519081900360640190fd5b600854600114610df0576040805162461bcd60e51b815260206004820152601060248201526f466c6f707065722f6e6f742d6c69766560801b604482015290519081900360640190fd5b60001960075410610e3b576040805162461bcd60e51b815260206004820152601060248201526f466c6f707065722f6f766572666c6f7760801b604482015290519081900360640190fd5b5060078054600190810191829055600082815260208290526040902083815590810184905560020180546001600160a01b0319166001600160a01b038616179055600654610e99904290600160301b900465ffffffffffff16611284565b600082815260016020908152604091829020600201805465ffffffffffff94909416600160d01b026001600160d01b03909416939093179092558051838152918201859052818101849052516001600160a01b038616917f7e8881001566f9f89aedb9c5dc3d856a2b81e5235a8196413ed484be91cc0df6919081900360600190a29392505050565b60006020819052908152604090205481565b600854600114610f7e576040805162461bcd60e51b815260206004820152601060248201526f466c6f707065722f6e6f742d6c69766560801b604482015290519081900360640190fd5b600081815260016020526040902060020154600160a01b900465ffffffffffff1615801590610ff7575060008181526001602052604090206002015442600160a01b90910465ffffffffffff161080610ff7575060008181526001602052604090206002015442600160d01b90910465ffffffffffff16105b61103f576040805162461bcd60e51b8152602060048201526014602482015273119b1bdc1c195c8bdb9bdd0b599a5b9a5cda195960621b604482015290519081900360640190fd5b6003546000828152600160208190526040808320600281015492015481516340c10f1960e01b81526001600160a01b0393841660048201526024810191909152905191909316926340c10f1992604480830193919282900301818387803b15801561048857600080fd5b600654600160301b900465ffffffffffff1681565b60075481565b60008181526001602052604090206002015442600160d01b90910465ffffffffffff1610611130576040805162461bcd60e51b8152602060048201526014602482015273119b1bdc1c195c8bdb9bdd0b599a5b9a5cda195960621b604482015290519081900360640190fd5b600081815260016020526040902060020154600160a01b900465ffffffffffff16156111a3576040805162461bcd60e51b815260206004820152601a60248201527f466c6f707065722f6269642d616c72656164792d706c61636564000000000000604482015290519081900360640190fd5b670de0b6b3a76400006111ce6005546001600085815260200190815260200160002060010154611242565b816111d557fe5b60008381526001602081905260409091209290910491015560065461120a904290600160301b900465ffffffffffff16611284565b600091825260016020526040909120600201805465ffffffffffff92909216600160d01b026001600160d01b03909216919091179055565b600081158061125d5750508082028282828161125a57fe5b04145b61126657600080fd5b92915050565b60008183111561127d575080611266565b5090919050565b80820165ffffffffffff808416908216101561126657600080fdfea26469706673582212200006bdf5aa533dd73ee5976b38489e766a015a3c850f73d98cd223d66fa03a2b64736f6c634300060c0033","linkReferences":{}},"methodIdentifiers":{"beg()":"7d780d82","bids(uint256)":"4423c5f1","cage()":"69245009","deal(uint256)":"c959c42b","dent(uint256,uint256,uint256)":"5ff3a382","deny(address)":"9c52a7f1","file(bytes32,uint256)":"29ae8114","gem()":"7bd2bea7","kick(address,uint256,uint256)":"b7e9cd24","kicks()":"cfdd3302","live()":"957aa58c","pad()":"9361266c","rely(address)":"65fae35e","tau()":"cfc4af55","tick(uint256)":"fc7b6aee","ttl()":"4e8b1dd5","vat()":"36569e77","vow()":"626cb3c5","wards(address)":"bf353dbb","yank(uint256)":"26e027f1"},"id":32}