{"abi":[{"type":"constructor","inputs":[],"stateMutability":"nonpayable"},{"type":"function","name":"amt","inputs":[{"name":"","type":"address","internalType":"address"}],"outputs":[{"name":"","type":"uint256","internalType":"uint256"}],"stateMutability":"view"},{"type":"function","name":"cage","inputs":[],"outputs":[],"stateMutability":"nonpayable"},{"type":"function","name":"deny","inputs":[{"name":"usr","type":"address","internalType":"address"}],"outputs":[],"stateMutability":"nonpayable"},{"type":"function","name":"drop","inputs":[{"name":"src","type":"address","internalType":"address"}],"outputs":[],"stateMutability":"nonpayable"},{"type":"function","name":"file","inputs":[{"name":"what","type":"bytes32","internalType":"bytes32"},{"name":"data","type":"uint256","internalType":"uint256"}],"outputs":[],"stateMutability":"nonpayable"},{"type":"function","name":"lCount","inputs":[],"outputs":[{"name":"","type":"uint256","internalType":"uint256"}],"stateMutability":"view"},{"type":"function","name":"lift","inputs":[{"name":"src","type":"address","internalType":"address"}],"outputs":[],"stateMutability":"nonpayable"},{"type":"function","name":"list","inputs":[],"outputs":[{"name":"","type":"address[]","internalType":"address[]"}],"stateMutability":"view"},{"type":"function","name":"live","inputs":[],"outputs":[{"name":"","type":"uint256","internalType":"uint256"}],"stateMutability":"view"},{"type":"function","name":"load","inputs":[{"name":"src","type":"address","internalType":"address"}],"outputs":[],"stateMutability":"nonpayable"},{"type":"function","name":"loaded","inputs":[{"name":"","type":"address","internalType":"address"}],"outputs":[{"name":"","type":"uint256","internalType":"uint256"}],"stateMutability":"view"},{"type":"function","name":"pos","inputs":[{"name":"","type":"address","internalType":"address"}],"outputs":[{"name":"","type":"uint256","internalType":"uint256"}],"stateMutability":"view"},{"type":"function","name":"rely","inputs":[{"name":"usr","type":"address","internalType":"address"}],"outputs":[],"stateMutability":"nonpayable"},{"type":"function","name":"say","inputs":[],"outputs":[{"name":"","type":"uint256","internalType":"uint256"}],"stateMutability":"view"},{"type":"function","name":"srcs","inputs":[{"name":"","type":"uint256","internalType":"uint256"}],"outputs":[{"name":"","type":"address","internalType":"address"}],"stateMutability":"view"},{"type":"function","name":"tCount","inputs":[],"outputs":[{"name":"count_","type":"uint256","internalType":"uint256"}],"stateMutability":"view"},{"type":"function","name":"tell","inputs":[],"outputs":[{"name":"","type":"uint256","internalType":"uint256"}],"stateMutability":"view"},{"type":"function","name":"wait","inputs":[],"outputs":[{"name":"","type":"uint256","internalType":"uint256"}],"stateMutability":"view"},{"type":"function","name":"wards","inputs":[{"name":"","type":"address","internalType":"address"}],"outputs":[{"name":"","type":"uint256","internalType":"uint256"}],"stateMutability":"view"},{"type":"function","name":"when","inputs":[],"outputs":[{"name":"","type":"uint256","internalType":"uint256"}],"stateMutability":"view"},{"type":"event","name":"Cage","inputs":[],"anonymous":false},{"type":"event","name":"Deny","inputs":[{"name":"usr","type":"address","indexed":true,"internalType":"address"}],"anonymous":false},{"type":"event","name":"Drop","inputs":[{"name":"src","type":"address","indexed":true,"internalType":"address"}],"anonymous":false},{"type":"event","name":"File","inputs":[{"name":"what","type":"bytes32","indexed":true,"internalType":"bytes32"},{"name":"data","type":"uint256","indexed":false,"internalType":"uint256"}],"anonymous":false},{"type":"event","name":"Lift","inputs":[{"name":"src","type":"address","indexed":true,"internalType":"address"}],"anonymous":false},{"type":"event","name":"Load","inputs":[{"name":"src","type":"address","indexed":true,"internalType":"address"}],"anonymous":false},{"type":"event","name":"Rely","inputs":[{"name":"usr","type":"address","indexed":true,"internalType":"address"}],"anonymous":false}],"bytecode":{"object":"0x608060405234801561001057600080fd5b5060018080553360008181526020819052604080822093909355915190917fdd0e34038ac38b2a1ce960229778ac48a8719bc900b6c4f8d0475c6e8b385a6091a2610f4c806100606000396000f3fe608060405234801561001057600080fd5b506004361061012c5760003560e01c806369245009116100ad5780639c52a7f1116100715780639c52a7f1146102dc578063bf353dbb14610302578063e2b0caef14610328578063f381273f14610330578063ffa9ca9f146103695761012c565b8063692450091461027857806391f2700a1461028057806393d0281c146102a6578063954ab4b2146102cc578063957aa58c146102d45761012c565b8063493aa4c7116100f4578063493aa4c71461023257806353d700e51461023a57806353f9a8731461024257806364bd70131461024a57806365fae35e146102525761012c565b806309615662146101315780630f560cd71461016957806329ae8114146101c15780632f40e734146101e65780633c278bd51461020c575b600080fd5b6101576004803603602081101561014757600080fd5b50356001600160a01b031661038f565b60408051918252519081900360200190f35b6101716103a1565b60408051602080825283518183015283519192839290830191858101910280838360005b838110156101ad578181015183820152602001610195565b505050509050019250505060405180910390f35b6101e4600480360360408110156101d757600080fd5b5080359060200135610403565b005b6101e4600480360360208110156101fc57600080fd5b50356001600160a01b0316610544565b6101e46004803603602081101561022257600080fd5b50356001600160a01b0316610720565b6101576108b2565b6101576108b8565b61015761091d565b610157610923565b6101e46004803603602081101561026857600080fd5b50356001600160a01b0316610929565b6101e4610a0f565b6101e46004803603602081101561029657600080fd5b50356001600160a01b0316610af1565b610157600480360360208110156102bc57600080fd5b50356001600160a01b0316610cfe565b610157610d10565b610157610d16565b6101e4600480360360208110156102f257600080fd5b50356001600160a01b0316610d1c565b6101576004803603602081101561031857600080fd5b50356001600160a01b0316610e01565b610157610e13565b61034d6004803603602081101561034657600080fd5b5035610e19565b604080516001600160a01b039092168252519081900360200190f35b6101576004803603602081101561037f57600080fd5b50356001600160a01b0316610e40565b60066020526000908152604090205481565b606060028054806020026020016040519081016040528092919081815260200182805480156103f957602002820191906000526020600020905b81546001600160a01b031681526001909101906020018083116103db575b5050505050905090565b3360009081526020819052604090205460011461045d576040805162461bcd60e51b815260206004820152601360248201527210dd5c994bdb9bdd0b585d5d1a1bdc9a5e9959606a1b604482015290519081900360640190fd5b6001546001146104a4576040805162461bcd60e51b815260206004820152600d60248201526c437572652f6e6f742d6c69766560981b604482015290519081900360640190fd5b81631dd85a5d60e21b14156104bd57600381905561050a565b6040805162461bcd60e51b815260206004820152601c60248201527f437572652f66696c652d756e7265636f676e697a65642d706172616d00000000604482015290519081900360640190fd5b60408051828152905183917fe986e40cc8c151830d4f61050f4fb2e4add8567caad2d5f5496f9158e91fe4c7919081900360200190a25050565b6001541561058b576040805162461bcd60e51b815260206004820152600f60248201526e437572652f7374696c6c2d6c69766560881b604482015290519081900360640190fd5b6001600160a01b0381166000908152600560205260409020546105f0576040805162461bcd60e51b8152602060048201526018602482015277437572652f6e6f6e2d6578697374696e672d736f7572636560401b604482015290519081900360640190fd5b6001600160a01b038116600081815260066020908152604080832054815163840782ed60e01b8152915190949263840782ed9260048082019391829003018186803b15801561063e57600080fd5b505afa158015610652573d6000803e3d6000fd5b505050506040513d602081101561066857600080fd5b50516001600160a01b038416600090815260066020526040902081905560095490915061069f906106999084610e52565b82610ea5565b6009556001600160a01b0383166000908152600760205260409020546106e7576001600160a01b03831660009081526007602052604090206001908190556008805490910190555b6040516001600160a01b038416907fe90dfdfab1f4f73aeba2ef47b366c3c4118d3c38cab46bb993f7ed257a61c8c090600090a2505050565b3360009081526020819052604090205460011461077a576040805162461bcd60e51b815260206004820152601360248201527210dd5c994bdb9bdd0b585d5d1a1bdc9a5e9959606a1b604482015290519081900360640190fd5b6001546001146107c1576040805162461bcd60e51b815260206004820152600d60248201526c437572652f6e6f742d6c69766560981b604482015290519081900360640190fd5b6001600160a01b0381166000908152600560205260409020541561082c576040805162461bcd60e51b815260206004820152601c60248201527f437572652f616c72656164792d6578697374696e672d736f7572636500000000604482015290519081900360640190fd5b600280546001810182557f405787fa12a823e0f2b7631cc41b3ba8828b3321ca811111fa75cd3aa3bb5ace0180546001600160a01b0319166001600160a01b03841690811790915590546000828152600560205260408082209290925590517f2b07094bdf192088dc9d18c2c3a2b11b7f1df5d6f3460343964c059221e3f0489190a250565b60085481565b600060015460001480156108db575060025460085414806108db57506004544210155b6109165760405162461bcd60e51b8152600401808060200182810382526025815260200180610ef26025913960400191505060405180910390fd5b5060095490565b60025490565b60035481565b33600090815260208190526040902054600114610983576040805162461bcd60e51b815260206004820152601360248201527210dd5c994bdb9bdd0b585d5d1a1bdc9a5e9959606a1b604482015290519081900360640190fd5b6001546001146109ca576040805162461bcd60e51b815260206004820152600d60248201526c437572652f6e6f742d6c69766560981b604482015290519081900360640190fd5b6001600160a01b03811660008181526020819052604080822060019055517fdd0e34038ac38b2a1ce960229778ac48a8719bc900b6c4f8d0475c6e8b385a609190a250565b33600090815260208190526040902054600114610a69576040805162461bcd60e51b815260206004820152601360248201527210dd5c994bdb9bdd0b585d5d1a1bdc9a5e9959606a1b604482015290519081900360640190fd5b600154600114610ab0576040805162461bcd60e51b815260206004820152600d60248201526c437572652f6e6f742d6c69766560981b604482015290519081900360640190fd5b6000600155600354610ac3904290610ea5565b6004556040517f2308ed18a14e800c39b86eb6ea43270105955ca385b603b64eca89f98ae8fbda90600090a1565b33600090815260208190526040902054600114610b4b576040805162461bcd60e51b815260206004820152601360248201527210dd5c994bdb9bdd0b585d5d1a1bdc9a5e9959606a1b604482015290519081900360640190fd5b600154600114610b92576040805162461bcd60e51b815260206004820152600d60248201526c437572652f6e6f742d6c69766560981b604482015290519081900360640190fd5b6001600160a01b03811660009081526005602052604090205480610bf8576040805162461bcd60e51b8152602060048201526018602482015277437572652f6e6f6e2d6578697374696e672d736f7572636560401b604482015290519081900360640190fd5b60025480821015610c7d57600060026001830381548110610c1557fe5b600091825260209091200154600280546001600160a01b03909216925082916000198601908110610c4257fe5b600091825260208083209190910180546001600160a01b0319166001600160a01b039485161790559290911681526005909152604090208290555b6002805480610c8857fe5b60008281526020808220830160001990810180546001600160a01b03191690559092019092556001600160a01b0385168083526005825260408084208490556006909252818320839055905190917fdbc628f334a9c7bf46419d864ca89e17415703fa12263f2284d94cc9b75b659e91a2505050565b60056020526000908152604090205481565b60095481565b60015481565b33600090815260208190526040902054600114610d76576040805162461bcd60e51b815260206004820152601360248201527210dd5c994bdb9bdd0b585d5d1a1bdc9a5e9959606a1b604482015290519081900360640190fd5b600154600114610dbd576040805162461bcd60e51b815260206004820152600d60248201526c437572652f6e6f742d6c69766560981b604482015290519081900360640190fd5b6001600160a01b038116600081815260208190526040808220829055517f184450df2e323acec0ed3b5c7531b81f9b4cdef7914dfd4c0a4317416bb5251b9190a250565b60006020819052908152604090205481565b60045481565b60028181548110610e2657fe5b6000918252602090912001546001600160a01b0316905081565b60076020526000908152604090205481565b80820382811115610e9f576040805162461bcd60e51b8152602060048201526012602482015271437572652f7375622d756e646572666c6f7760701b604482015290519081900360640190fd5b92915050565b80820182811015610e9f576040805162461bcd60e51b8152602060048201526011602482015270437572652f6164642d6f766572666c6f7760781b604482015290519081900360640190fdfe437572652f6d697373696e672d6c6f61642d616e642d74696d652d6e6f742d706173736564a264697066735822122072501acd4a8e54e1cadc9fca8a9053d14c70721d9a515fe59a21787d0a51078664736f6c634300060c0033","linkReferences":{}},"methodIdentifiers":{"amt(address)":"09615662","cage()":"69245009","deny(address)":"9c52a7f1","drop(address)":"91f2700a","file(bytes32,uint256)":"29ae8114","lCount()":"493aa4c7","lift(address)":"3c278bd5","list()":"0f560cd7","live()":"957aa58c","load(address)":"2f40e734","loaded(address)":"ffa9ca9f","pos(address)":"93d0281c","rely(address)":"65fae35e","say()":"954ab4b2","srcs(uint256)":"f381273f","tCount()":"53f9a873","tell()":"53d700e5","wait()":"64bd7013","wards(address)":"bf353dbb","when()":"e2b0caef"},"id":26}