{"abi":[{"type":"constructor","inputs":[],"stateMutability":"nonpayable"},{"type":"function","name":"Line","inputs":[],"outputs":[{"name":"","type":"uint256","internalType":"uint256"}],"stateMutability":"view"},{"type":"function","name":"cage","inputs":[],"outputs":[],"stateMutability":"nonpayable"},{"type":"function","name":"can","inputs":[{"name":"","type":"address","internalType":"address"},{"name":"","type":"address","internalType":"address"}],"outputs":[{"name":"","type":"uint256","internalType":"uint256"}],"stateMutability":"view"},{"type":"function","name":"dai","inputs":[{"name":"","type":"address","internalType":"address"}],"outputs":[{"name":"","type":"uint256","internalType":"uint256"}],"stateMutability":"view"},{"type":"function","name":"debt","inputs":[],"outputs":[{"name":"","type":"uint256","internalType":"uint256"}],"stateMutability":"view"},{"type":"function","name":"deny","inputs":[{"name":"usr","type":"address","internalType":"address"}],"outputs":[],"stateMutability":"nonpayable"},{"type":"function","name":"file","inputs":[{"name":"ilk","type":"bytes32","internalType":"bytes32"},{"name":"what","type":"bytes32","internalType":"bytes32"},{"name":"data","type":"uint256","internalType":"uint256"}],"outputs":[],"stateMutability":"nonpayable"},{"type":"function","name":"file","inputs":[{"name":"what","type":"bytes32","internalType":"bytes32"},{"name":"data","type":"uint256","internalType":"uint256"}],"outputs":[],"stateMutability":"nonpayable"},{"type":"function","name":"flux","inputs":[{"name":"ilk","type":"bytes32","internalType":"bytes32"},{"name":"src","type":"address","internalType":"address"},{"name":"dst","type":"address","internalType":"address"},{"name":"wad","type":"uint256","internalType":"uint256"}],"outputs":[],"stateMutability":"nonpayable"},{"type":"function","name":"fold","inputs":[{"name":"i","type":"bytes32","internalType":"bytes32"},{"name":"u","type":"address","internalType":"address"},{"name":"rate","type":"int256","internalType":"int256"}],"outputs":[],"stateMutability":"nonpayable"},{"type":"function","name":"fork","inputs":[{"name":"ilk","type":"bytes32","internalType":"bytes32"},{"name":"src","type":"address","internalType":"address"},{"name":"dst","type":"address","internalType":"address"},{"name":"dink","type":"int256","internalType":"int256"},{"name":"dart","type":"int256","internalType":"int256"}],"outputs":[],"stateMutability":"nonpayable"},{"type":"function","name":"frob","inputs":[{"name":"i","type":"bytes32","internalType":"bytes32"},{"name":"u","type":"address","internalType":"address"},{"name":"v","type":"address","internalType":"address"},{"name":"w","type":"address","internalType":"address"},{"name":"dink","type":"int256","internalType":"int256"},{"name":"dart","type":"int256","internalType":"int256"}],"outputs":[],"stateMutability":"nonpayable"},{"type":"function","name":"gem","inputs":[{"name":"","type":"bytes32","internalType":"bytes32"},{"name":"","type":"address","internalType":"address"}],"outputs":[{"name":"","type":"uint256","internalType":"uint256"}],"stateMutability":"view"},{"type":"function","name":"grab","inputs":[{"name":"i","type":"bytes32","internalType":"bytes32"},{"name":"u","type":"address","internalType":"address"},{"name":"v","type":"address","internalType":"address"},{"name":"w","type":"address","internalType":"address"},{"name":"dink","type":"int256","internalType":"int256"},{"name":"dart","type":"int256","internalType":"int256"}],"outputs":[],"stateMutability":"nonpayable"},{"type":"function","name":"heal","inputs":[{"name":"rad","type":"uint256","internalType":"uint256"}],"outputs":[],"stateMutability":"nonpayable"},{"type":"function","name":"hope","inputs":[{"name":"usr","type":"address","internalType":"address"}],"outputs":[],"stateMutability":"nonpayable"},{"type":"function","name":"ilks","inputs":[{"name":"","type":"bytes32","internalType":"bytes32"}],"outputs":[{"name":"Art","type":"uint256","internalType":"uint256"},{"name":"rate","type":"uint256","internalType":"uint256"},{"name":"spot","type":"uint256","internalType":"uint256"},{"name":"line","type":"uint256","internalType":"uint256"},{"name":"dust","type":"uint256","internalType":"uint256"}],"stateMutability":"view"},{"type":"function","name":"init","inputs":[{"name":"ilk","type":"bytes32","internalType":"bytes32"}],"outputs":[],"stateMutability":"nonpayable"},{"type":"function","name":"live","inputs":[],"outputs":[{"name":"","type":"uint256","internalType":"uint256"}],"stateMutability":"view"},{"type":"function","name":"move","inputs":[{"name":"src","type":"address","internalType":"address"},{"name":"dst","type":"address","internalType":"address"},{"name":"rad","type":"uint256","internalType":"uint256"}],"outputs":[],"stateMutability":"nonpayable"},{"type":"function","name":"nope","inputs":[{"name":"usr","type":"address","internalType":"address"}],"outputs":[],"stateMutability":"nonpayable"},{"type":"function","name":"rely","inputs":[{"name":"usr","type":"address","internalType":"address"}],"outputs":[],"stateMutability":"nonpayable"},{"type":"function","name":"sin","inputs":[{"name":"","type":"address","internalType":"address"}],"outputs":[{"name":"","type":"uint256","internalType":"uint256"}],"stateMutability":"view"},{"type":"function","name":"slip","inputs":[{"name":"ilk","type":"bytes32","internalType":"bytes32"},{"name":"usr","type":"address","internalType":"address"},{"name":"wad","type":"int256","internalType":"int256"}],"outputs":[],"stateMutability":"nonpayable"},{"type":"function","name":"suck","inputs":[{"name":"u","type":"address","internalType":"address"},{"name":"v","type":"address","internalType":"address"},{"name":"rad","type":"uint256","internalType":"uint256"}],"outputs":[],"stateMutability":"nonpayable"},{"type":"function","name":"urns","inputs":[{"name":"","type":"bytes32","internalType":"bytes32"},{"name":"","type":"address","internalType":"address"}],"outputs":[{"name":"ink","type":"uint256","internalType":"uint256"},{"name":"art","type":"uint256","internalType":"uint256"}],"stateMutability":"view"},{"type":"function","name":"vice","inputs":[],"outputs":[{"name":"","type":"uint256","internalType":"uint256"}],"stateMutability":"view"},{"type":"function","name":"wards","inputs":[{"name":"","type":"address","internalType":"address"}],"outputs":[{"name":"","type":"uint256","internalType":"uint256"}],"stateMutability":"view"}],"bytecode":{"object":"0x608060405234801561001057600080fd5b50336000908152602081905260409020600190819055600a55611b5e806100386000396000f3fe608060405234801561001057600080fd5b50600436106101c45760003560e01c80637cdd3fde116100f9578063bb35783b11610097578063dc4d20fa11610071578063dc4d20fa146105bb578063f059212a146105e1578063f24e23eb14610607578063f37ac61c1461063d576101c4565b8063bb35783b14610517578063bf353dbb1461054d578063d9638d3614610573576101c4565b80639c52a7f1116100d35780639c52a7f114610491578063a3b22fc4146104b7578063b65337df146104dd578063babe8a3f1461050f576101c4565b80637cdd3fde14610415578063870c616d14610447578063957aa58c14610489576101c4565b80634538c4eb11610166578063692450091161014057806369245009146103575780636c25b3461461035f57806376088703146103855780637bab3f40146103cd576101c4565b80634538c4eb146102c75780636111be2e146102f557806365fae35e14610331576101c4565b80632424be5c116101a25780632424be5c1461023a57806329ae81141461027f5780632d61a355146102a25780633b663195146102aa576101c4565b80630dca59c1146101c95780631a0b287e146101e3578063214414d51461020e575b600080fd5b6101d161065a565b60408051918252519081900360200190f35b61020c600480360360608110156101f957600080fd5b5080359060208101359060400135610660565b005b6101d16004803603604081101561022457600080fd5b50803590602001356001600160a01b03166107c3565b6102666004803603604081101561025057600080fd5b50803590602001356001600160a01b03166107e0565b6040805192835260208301919091528051918290030190f35b61020c6004803603604081101561029557600080fd5b5080359060200135610804565b6101d16108b1565b61020c600480360360208110156102c057600080fd5b50356108b7565b6101d1600480360360408110156102dd57600080fd5b506001600160a01b0381358116916020013516610987565b61020c6004803603608081101561030b57600080fd5b508035906001600160a01b036020820135811691604081013590911690606001356109a4565b61020c6004803603602081101561034757600080fd5b50356001600160a01b0316610a7f565b61020c610b34565b6101d16004803603602081101561037557600080fd5b50356001600160a01b0316610b8d565b61020c600480360360c081101561039b57600080fd5b508035906001600160a01b03602082013581169160408101358216916060820135169060808101359060a00135610b9f565b61020c600480360360c08110156103e357600080fd5b508035906001600160a01b03602082013581169160408101358216916060820135169060808101359060a0013561106c565b61020c6004803603606081101561042b57600080fd5b508035906001600160a01b0360208201351690604001356111ce565b61020c600480360360a081101561045d57600080fd5b508035906001600160a01b03602082013581169160408101359091169060608101359060800135611276565b6101d16114ec565b61020c600480360360208110156104a757600080fd5b50356001600160a01b03166114f2565b61020c600480360360208110156104cd57600080fd5b50356001600160a01b03166115a4565b61020c600480360360608110156104f357600080fd5b508035906001600160a01b0360208201351690604001356115cd565b6101d16116ec565b61020c6004803603606081101561052d57600080fd5b506001600160a01b038135811691602081013590911690604001356116f2565b6101d16004803603602081101561056357600080fd5b50356001600160a01b03166117b2565b6105906004803603602081101561058957600080fd5b50356117c4565b6040805195865260208601949094528484019290925260608401526080830152519081900360a00190f35b61020c600480360360208110156105d157600080fd5b50356001600160a01b03166117f3565b6101d1600480360360208110156105f757600080fd5b50356001600160a01b031661181c565b61020c6004803603606081101561061d57600080fd5b506001600160a01b0381358116916020810135909116906040013561182e565b61020c6004803603602081101561065357600080fd5b5035611917565b60075481565b336000908152602081905260409020546001146106b2576040805162461bcd60e51b81526020600482015260126024820152600080516020611b09833981519152604482015290519081900360640190fd5b600a546001146106f8576040805162461bcd60e51b815260206004820152600c60248201526b5661742f6e6f742d6c69766560a01b604482015290519081900360640190fd5b81631cdc1bdd60e21b1415610721576000838152600260208190526040909120018190556107be565b81636c696e6560e01b14156107495760008381526002602052604090206003018190556107be565b8163191d5cdd60e21b14156107715760008381526002602052604090206004018190556107be565b6040805162461bcd60e51b815260206004820152601b60248201527f5661742f66696c652d756e7265636f676e697a65642d706172616d0000000000604482015290519081900360640190fd5b505050565b600460209081526000928352604080842090915290825290205481565b60036020908152600092835260408084209091529082529020805460019091015482565b33600090815260208190526040902054600114610856576040805162461bcd60e51b81526020600482015260126024820152600080516020611b09833981519152604482015290519081900360640190fd5b600a5460011461089c576040805162461bcd60e51b815260206004820152600c60248201526b5661742f6e6f742d6c69766560a01b604482015290519081900360640190fd5b81634c696e6560e01b14156107715760095550565b60085481565b33600090815260208190526040902054600114610909576040805162461bcd60e51b81526020600482015260126024820152600080516020611b09833981519152604482015290519081900360640190fd5b60008181526002602052604090206001015415610964576040805162461bcd60e51b815260206004820152601460248201527315985d0bda5b1acb585b1c9958591e4b5a5b9a5d60621b604482015290519081900360640190fd5b60009081526002602052604090206b033b2e3c9fd0803ce8000000600190910155565b600160209081526000928352604080842090915290825290205481565b6109ae833361199d565b6109f1576040805162461bcd60e51b815260206004820152600f60248201526e15985d0bdb9bdd0b585b1b1bddd959608a1b604482015290519081900360640190fd5b60008481526004602090815260408083206001600160a01b0387168452909152902054610a1e90826119dd565b60008581526004602090815260408083206001600160a01b038881168552925280832093909355841681522054610a5590826119ed565b60009485526004602090815260408087206001600160a01b03909516875293905291909320555050565b33600090815260208190526040902054600114610ad1576040805162461bcd60e51b81526020600482015260126024820152600080516020611b09833981519152604482015290519081900360640190fd5b600a54600114610b17576040805162461bcd60e51b815260206004820152600c60248201526b5661742f6e6f742d6c69766560a01b604482015290519081900360640190fd5b6001600160a01b0316600090815260208190526040902060019055565b33600090815260208190526040902054600114610b86576040805162461bcd60e51b81526020600482015260126024820152600080516020611b09833981519152604482015290519081900360640190fd5b6000600a55565b60056020526000908152604090205481565b600a54600114610be5576040805162461bcd60e51b815260206004820152600c60248201526b5661742f6e6f742d6c69766560a01b604482015290519081900360640190fd5b610bed611abf565b5060008681526003602090815260408083206001600160a01b03891684528252918290208251808401909352805483526001015490820152610c2d611ad9565b50600087815260026020818152604092839020835160a081018552815481526001820154928101839052928101549383019390935260038301546060830152600490920154608082015290610cbc576040805162461bcd60e51b815260206004820152601060248201526f15985d0bda5b1acb5b9bdd0b5a5b9a5d60821b604482015290519081900360640190fd5b8151610cc890856119fd565b82526020820151610cd990846119fd565b60208301528051610cea90846119fd565b81526020810151600090610cfe9085611a32565b90506000610d1483602001518560200151611a60565b9050610d22600754836119fd565b600781905550610d5e6000861315610d598560600151610d4a87600001518860200151611a60565b11156009546007541115611a83565b611a87565b610da6576040805162461bcd60e51b815260206004820152601460248201527315985d0bd8d95a5b1a5b99cb595e18d95959195960621b604482015290519081900360640190fd5b610dd5610dbb60008713156000891215611a83565b610dcd86600001518660400151611a60565b831115611a87565b610e15576040805162461bcd60e51b815260206004820152600c60248201526b5661742f6e6f742d7361666560a01b604482015290519081900360640190fd5b610e34610e2a60008713156000891215611a83565b610d598b3361199d565b610e79576040805162461bcd60e51b81526020600482015260116024820152705661742f6e6f742d616c6c6f7765642d7560781b604482015290519081900360640190fd5b610e8b6000871315610d598a3361199d565b610ed0576040805162461bcd60e51b81526020600482015260116024820152702b30ba17b737ba16b0b63637bbb2b216bb60791b604482015290519081900360640190fd5b610ee26000861215610d59893361199d565b610f27576040805162461bcd60e51b81526020600482015260116024820152705661742f6e6f742d616c6c6f7765642d7760781b604482015290519081900360640190fd5b610f3f84602001516000148460800151831015611a87565b610f7b576040805162461bcd60e51b815260206004820152600860248201526715985d0bd91d5cdd60c21b604482015290519081900360640190fd5b60008a81526004602090815260408083206001600160a01b038c168452909152902054610fa89087611a8b565b60008b81526004602090815260408083206001600160a01b03808e16855290835281842094909455928a168252600590522054610fe590836119fd565b6001600160a01b039788166000908152600560209081526040808320939093558c825260038082528383209c909a1682529a8b5281812086518155958b01516001968701559a8b526002808b529a8190208451815599840151948a019490945550509081015196860196909655505060608401519083015550608090910151600490910155565b336000908152602081905260409020546001146110be576040805162461bcd60e51b81526020600482015260126024820152600080516020611b09833981519152604482015290519081900360640190fd5b60008681526003602090815260408083206001600160a01b03891684528252808320898452600290925290912081546110f790856119fd565b8255600182015461110890846119fd565b6001830155805461111990846119fd565b8155600181015460009061112d9085611a32565b60008a81526004602090815260408083206001600160a01b038c16845290915290205490915061115d9086611a8b565b60008a81526004602090815260408083206001600160a01b03808d16855290835281842094909455928916825260069052205461119a9082611a8b565b6001600160a01b0387166000908152600660205260409020556008546111c09082611a8b565b600855505050505050505050565b33600090815260208190526040902054600114611220576040805162461bcd60e51b81526020600482015260126024820152600080516020611b09833981519152604482015290519081900360640190fd5b60008381526004602090815260408083206001600160a01b038616845290915290205461124d90826119fd565b60009384526004602090815260408086206001600160a01b039095168652939052919092205550565b60008581526003602090815260408083206001600160a01b03888116855290835281842090871684528184208985526002909352922082546112b89086611a8b565b835560018301546112c99085611a8b565b600184015581546112da90866119fd565b825560018201546112eb90856119fd565b8260010181905550600061130784600101548360010154611a60565b9050600061131d84600101548460010154611a60565b905061133b61132c8a3361199d565b6113368a3361199d565b611a83565b61137e576040805162461bcd60e51b815260206004820152600f60248201526e15985d0bdb9bdd0b585b1b1bddd959608a1b604482015290519081900360640190fd5b61139085600001548460020154611a60565b8211156113d7576040805162461bcd60e51b815260206004820152601060248201526f5661742f6e6f742d736166652d73726360801b604482015290519081900360640190fd5b6113e984600001548460020154611a60565b811115611430576040805162461bcd60e51b815260206004820152601060248201526f15985d0bdb9bdd0b5cd859994b591cdd60821b604482015290519081900360640190fd5b61144883600401548310158660010154600014611a87565b611488576040805162461bcd60e51b815260206004820152600c60248201526b5661742f647573742d73726360a01b604482015290519081900360640190fd5b6114a083600401548210158560010154600014611a87565b6114e0576040805162461bcd60e51b815260206004820152600c60248201526b15985d0bd91d5cdd0b591cdd60a21b604482015290519081900360640190fd5b50505050505050505050565b600a5481565b33600090815260208190526040902054600114611544576040805162461bcd60e51b81526020600482015260126024820152600080516020611b09833981519152604482015290519081900360640190fd5b600a5460011461158a576040805162461bcd60e51b815260206004820152600c60248201526b5661742f6e6f742d6c69766560a01b604482015290519081900360640190fd5b6001600160a01b0316600090815260208190526040812055565b3360009081526001602081815260408084206001600160a01b0395909516845293905291902055565b3360009081526020819052604090205460011461161f576040805162461bcd60e51b81526020600482015260126024820152600080516020611b09833981519152604482015290519081900360640190fd5b600a54600114611665576040805162461bcd60e51b815260206004820152600c60248201526b5661742f6e6f742d6c69766560a01b604482015290519081900360640190fd5b6000838152600260205260409020600181015461168290836119fd565b600182015580546000906116969084611a32565b6001600160a01b0385166000908152600560205260409020549091506116bc90826119fd565b6001600160a01b0385166000908152600560205260409020556007546116e290826119fd565b6007555050505050565b60095481565b6116fc833361199d565b61173f576040805162461bcd60e51b815260206004820152600f60248201526e15985d0bdb9bdd0b585b1b1bddd959608a1b604482015290519081900360640190fd5b6001600160a01b03831660009081526005602052604090205461176290826119dd565b6001600160a01b03808516600090815260056020526040808220939093559084168152205461179190826119ed565b6001600160a01b039092166000908152600560205260409020919091555050565b60006020819052908152604090205481565b600260208190526000918252604090912080546001820154928201546003830154600490930154919392909185565b3360009081526001602090815260408083206001600160a01b0394909416835292905290812055565b60066020526000908152604090205481565b33600090815260208190526040902054600114611880576040805162461bcd60e51b81526020600482015260126024820152600080516020611b09833981519152604482015290519081900360640190fd5b6001600160a01b0383166000908152600660205260409020546118a390826119ed565b6001600160a01b038085166000908152600660209081526040808320949094559185168152600590915220546118d990826119ed565b6001600160a01b0383166000908152600560205260409020556008546118ff90826119ed565b60085560075461190f90826119ed565b600755505050565b3360008181526006602052604090205461193190836119dd565b6001600160a01b03821660009081526006602090815260408083209390935560059052205461196090836119dd565b6001600160a01b03821660009081526005602052604090205560085461198690836119dd565b60085560075461199690836119dd565b6007555050565b6001600160a01b0382811660008181526001602081815260408084209587168085529590915282205491936119d493149114611a87565b90505b92915050565b808203828111156119d757600080fd5b808201828110156119d757600080fd5b818101600082121580611a105750828111155b611a1957600080fd5b600082131580611a295750828110155b6119d757600080fd5b8181026000831215611a4357600080fd5b811580611a29575082828281611a5557fe5b05146119d757600080fd5b6000811580611a2957505080820282828281611a7857fe5b04146119d757600080fd5b1690565b1790565b808203600082131580611a9e5750828111155b611aa757600080fd5b600082121580611a295750828110156119d757600080fd5b604051806040016040528060008152602001600081525090565b6040518060a001604052806000815260200160008152602001600081526020016000815260200160008152509056fe5661742f6e6f742d617574686f72697a65640000000000000000000000000000a2646970667358221220e89d04a9f7db76307c5e8a7030ca74a4e37242a1574c6558a71512be6bc0282764736f6c634300060c0033","linkReferences":{}},"methodIdentifiers":{"Line()":"babe8a3f","cage()":"69245009","can(address,address)":"4538c4eb","dai(address)":"6c25b346","debt()":"0dca59c1","deny(address)":"9c52a7f1","file(bytes32,bytes32,uint256)":"1a0b287e","file(bytes32,uint256)":"29ae8114","flux(bytes32,address,address,uint256)":"6111be2e","fold(bytes32,address,int256)":"b65337df","fork(bytes32,address,address,int256,int256)":"870c616d","frob(bytes32,address,address,address,int256,int256)":"76088703","gem(bytes32,address)":"214414d5","grab(bytes32,address,address,address,int256,int256)":"7bab3f40","heal(uint256)":"f37ac61c","hope(address)":"a3b22fc4","ilks(bytes32)":"d9638d36","init(bytes32)":"3b663195","live()":"957aa58c","move(address,address,uint256)":"bb35783b","nope(address)":"dc4d20fa","rely(address)":"65fae35e","sin(address)":"f059212a","slip(bytes32,address,int256)":"7cdd3fde","suck(address,address,uint256)":"f24e23eb","urns(bytes32,address)":"2424be5c","vice()":"2d61a355","wards(address)":"bf353dbb"},"id":39}